{
  "_format": "hh-sol-artifact-1",
  "contractName": "T1",
  "sourceName": "contracts/T1.sol",
  "abi": [
    {
      "inputs": [
        {
          "internalType": "string",
          "name": "name",
          "type": "string"
        },
        {
          "internalType": "string",
          "name": "symbol",
          "type": "string"
        },
        {
          "internalType": "uint8",
          "name": "decimals",
          "type": "uint8"
        },
        {
          "internalType": "uint256",
          "name": "initialBalance",
          "type": "uint256"
        },
        {
          "internalType": "address payable",
          "name": "feeReceiver",
          "type": "address"
        }
      ],
      "stateMutability": "payable",
      "type": "constructor"
    },
    {
      "anonymous": false,
      "inputs": [
        {
          "indexed": true,
          "internalType": "address",
          "name": "owner",
          "type": "address"
        },
        {
          "indexed": true,
          "internalType": "address",
          "name": "spender",
          "type": "address"
        },
        {
          "indexed": false,
          "internalType": "uint256",
          "name": "value",
          "type": "uint256"
        }
      ],
      "name": "Approval",
      "type": "event"
    },
    {
      "anonymous": false,
      "inputs": [
        {
          "indexed": true,
          "internalType": "address",
          "name": "previousOwner",
          "type": "address"
        },
        {
          "indexed": true,
          "internalType": "address",
          "name": "newOwner",
          "type": "address"
        }
      ],
      "name": "OwnershipTransferred",
      "type": "event"
    },
    {
      "anonymous": false,
      "inputs": [
        {
          "indexed": true,
          "internalType": "address",
          "name": "from",
          "type": "address"
        },
        {
          "indexed": true,
          "internalType": "address",
          "name": "to",
          "type": "address"
        },
        {
          "indexed": false,
          "internalType": "uint256",
          "name": "value",
          "type": "uint256"
        }
      ],
      "name": "Transfer",
      "type": "event"
    },
    {
      "inputs": [
        {
          "internalType": "address",
          "name": "owner",
          "type": "address"
        },
        {
          "internalType": "address",
          "name": "spender",
          "type": "address"
        }
      ],
      "name": "allowance",
      "outputs": [
        {
          "internalType": "uint256",
          "name": "",
          "type": "uint256"
        }
      ],
      "stateMutability": "view",
      "type": "function"
    },
    {
      "inputs": [
        {
          "internalType": "address",
          "name": "spender",
          "type": "address"
        },
        {
          "internalType": "uint256",
          "name": "amount",
          "type": "uint256"
        }
      ],
      "name": "approve",
      "outputs": [
        {
          "internalType": "bool",
          "name": "",
          "type": "bool"
        }
      ],
      "stateMutability": "nonpayable",
      "type": "function"
    },
    {
      "inputs": [
        {
          "internalType": "address",
          "name": "spender",
          "type": "address"
        },
        {
          "internalType": "uint256",
          "name": "amount",
          "type": "uint256"
        }
      ],
      "name": "approveAndCall",
      "outputs": [
        {
          "internalType": "bool",
          "name": "",
          "type": "bool"
        }
      ],
      "stateMutability": "nonpayable",
      "type": "function"
    },
    {
      "inputs": [
        {
          "internalType": "address",
          "name": "spender",
          "type": "address"
        },
        {
          "internalType": "uint256",
          "name": "amount",
          "type": "uint256"
        },
        {
          "internalType": "bytes",
          "name": "data",
          "type": "bytes"
        }
      ],
      "name": "approveAndCall",
      "outputs": [
        {
          "internalType": "bool",
          "name": "",
          "type": "bool"
        }
      ],
      "stateMutability": "nonpayable",
      "type": "function"
    },
    {
      "inputs": [
        {
          "internalType": "address",
          "name": "account",
          "type": "address"
        }
      ],
      "name": "balanceOf",
      "outputs": [
        {
          "internalType": "uint256",
          "name": "",
          "type": "uint256"
        }
      ],
      "stateMutability": "view",
      "type": "function"
    },
    {
      "inputs": [],
      "name": "decimals",
      "outputs": [
        {
          "internalType": "uint8",
          "name": "",
          "type": "uint8"
        }
      ],
      "stateMutability": "view",
      "type": "function"
    },
    {
      "inputs": [
        {
          "internalType": "address",
          "name": "spender",
          "type": "address"
        },
        {
          "internalType": "uint256",
          "name": "subtractedValue",
          "type": "uint256"
        }
      ],
      "name": "decreaseAllowance",
      "outputs": [
        {
          "internalType": "bool",
          "name": "",
          "type": "bool"
        }
      ],
      "stateMutability": "nonpayable",
      "type": "function"
    },
    {
      "inputs": [
        {
          "internalType": "address",
          "name": "spender",
          "type": "address"
        },
        {
          "internalType": "uint256",
          "name": "addedValue",
          "type": "uint256"
        }
      ],
      "name": "increaseAllowance",
      "outputs": [
        {
          "internalType": "bool",
          "name": "",
          "type": "bool"
        }
      ],
      "stateMutability": "nonpayable",
      "type": "function"
    },
    {
      "inputs": [],
      "name": "name",
      "outputs": [
        {
          "internalType": "string",
          "name": "",
          "type": "string"
        }
      ],
      "stateMutability": "view",
      "type": "function"
    },
    {
      "inputs": [],
      "name": "owner",
      "outputs": [
        {
          "internalType": "address",
          "name": "",
          "type": "address"
        }
      ],
      "stateMutability": "view",
      "type": "function"
    },
    {
      "inputs": [
        {
          "internalType": "address",
          "name": "tokenAddress",
          "type": "address"
        },
        {
          "internalType": "uint256",
          "name": "tokenAmount",
          "type": "uint256"
        }
      ],
      "name": "recoverERC20",
      "outputs": [],
      "stateMutability": "nonpayable",
      "type": "function"
    },
    {
      "inputs": [],
      "name": "renounceOwnership",
      "outputs": [],
      "stateMutability": "nonpayable",
      "type": "function"
    },
    {
      "inputs": [
        {
          "internalType": "bytes4",
          "name": "interfaceId",
          "type": "bytes4"
        }
      ],
      "name": "supportsInterface",
      "outputs": [
        {
          "internalType": "bool",
          "name": "",
          "type": "bool"
        }
      ],
      "stateMutability": "view",
      "type": "function"
    },
    {
      "inputs": [],
      "name": "symbol",
      "outputs": [
        {
          "internalType": "string",
          "name": "",
          "type": "string"
        }
      ],
      "stateMutability": "view",
      "type": "function"
    },
    {
      "inputs": [],
      "name": "totalSupply",
      "outputs": [
        {
          "internalType": "uint256",
          "name": "",
          "type": "uint256"
        }
      ],
      "stateMutability": "view",
      "type": "function"
    },
    {
      "inputs": [
        {
          "internalType": "address",
          "name": "recipient",
          "type": "address"
        },
        {
          "internalType": "uint256",
          "name": "amount",
          "type": "uint256"
        }
      ],
      "name": "transfer",
      "outputs": [
        {
          "internalType": "bool",
          "name": "",
          "type": "bool"
        }
      ],
      "stateMutability": "nonpayable",
      "type": "function"
    },
    {
      "inputs": [
        {
          "internalType": "address",
          "name": "recipient",
          "type": "address"
        },
        {
          "internalType": "uint256",
          "name": "amount",
          "type": "uint256"
        }
      ],
      "name": "transferAndCall",
      "outputs": [
        {
          "internalType": "bool",
          "name": "",
          "type": "bool"
        }
      ],
      "stateMutability": "nonpayable",
      "type": "function"
    },
    {
      "inputs": [
        {
          "internalType": "address",
          "name": "recipient",
          "type": "address"
        },
        {
          "internalType": "uint256",
          "name": "amount",
          "type": "uint256"
        },
        {
          "internalType": "bytes",
          "name": "data",
          "type": "bytes"
        }
      ],
      "name": "transferAndCall",
      "outputs": [
        {
          "internalType": "bool",
          "name": "",
          "type": "bool"
        }
      ],
      "stateMutability": "nonpayable",
      "type": "function"
    },
    {
      "inputs": [
        {
          "internalType": "address",
          "name": "sender",
          "type": "address"
        },
        {
          "internalType": "address",
          "name": "recipient",
          "type": "address"
        },
        {
          "internalType": "uint256",
          "name": "amount",
          "type": "uint256"
        }
      ],
      "name": "transferFrom",
      "outputs": [
        {
          "internalType": "bool",
          "name": "",
          "type": "bool"
        }
      ],
      "stateMutability": "nonpayable",
      "type": "function"
    },
    {
      "inputs": [
        {
          "internalType": "address",
          "name": "sender",
          "type": "address"
        },
        {
          "internalType": "address",
          "name": "recipient",
          "type": "address"
        },
        {
          "internalType": "uint256",
          "name": "amount",
          "type": "uint256"
        },
        {
          "internalType": "bytes",
          "name": "data",
          "type": "bytes"
        }
      ],
      "name": "transferFromAndCall",
      "outputs": [
        {
          "internalType": "bool",
          "name": "",
          "type": "bool"
        }
      ],
      "stateMutability": "nonpayable",
      "type": "function"
    },
    {
      "inputs": [
        {
          "internalType": "address",
          "name": "sender",
          "type": "address"
        },
        {
          "internalType": "address",
          "name": "recipient",
          "type": "address"
        },
        {
          "internalType": "uint256",
          "name": "amount",
          "type": "uint256"
        }
      ],
      "name": "transferFromAndCall",
      "outputs": [
        {
          "internalType": "bool",
          "name": "",
          "type": "bool"
        }
      ],
      "stateMutability": "nonpayable",
      "type": "function"
    },
    {
      "inputs": [
        {
          "internalType": "address",
          "name": "newOwner",
          "type": "address"
        }
      ],
      "name": "transferOwnership",
      "outputs": [],
      "stateMutability": "nonpayable",
      "type": "function"
    }
  ],
  "bytecode": "0x60a060405260405162001e3138038062001e3183398101604081905262000026916200038e565b848484848484848160039080519060200190620000459291906200021b565b5080516200005b9060049060208401906200021b565b5050506200007862000072620000dd60201b60201c565b620000e1565b60ff83166080526200009633836200013360201b62000c841760201c565b6040516001600160a01b038216903480156108fc02916000818181858888f19350505050158015620000cc573d6000803e3d6000fd5b5050505050505050505050620004a2565b3390565b600580546001600160a01b038381166001600160a01b0319831681179093556040519116919082907f8be0079c531659141344cd1fd0a4f28419497f9722a3daafe3b4186f6b6457e090600090a35050565b6001600160a01b0382166200018e5760405162461bcd60e51b815260206004820152601f60248201527f45524332303a206d696e7420746f20746865207a65726f206164647265737300604482015260640160405180910390fd5b8060026000828254620001a291906200043e565b90915550506001600160a01b03821660009081526020819052604081208054839290620001d19084906200043e565b90915550506040518181526001600160a01b038316906000907fddf252ad1be2c89b69c2b068fc378daa952ba7f163c4a11628f55a4df523b3ef9060200160405180910390a35050565b828054620002299062000465565b90600052602060002090601f0160209004810192826200024d576000855562000298565b82601f106200026857805160ff191683800117855562000298565b8280016001018555821562000298579182015b82811115620002985782518255916020019190600101906200027b565b50620002a6929150620002aa565b5090565b5b80821115620002a65760008155600101620002ab565b634e487b7160e01b600052604160045260246000fd5b600082601f830112620002e957600080fd5b81516001600160401b0380821115620003065762000306620002c1565b604051601f8301601f19908116603f01168101908282118183101715620003315762000331620002c1565b816040528381526020925086838588010111156200034e57600080fd5b600091505b8382101562000372578582018301518183018401529082019062000353565b83821115620003845760008385830101525b9695505050505050565b600080600080600060a08688031215620003a757600080fd5b85516001600160401b0380821115620003bf57600080fd5b620003cd89838a01620002d7565b96506020880151915080821115620003e457600080fd5b50620003f388828901620002d7565b945050604086015160ff811681146200040b57600080fd5b6060870151608088015191945092506001600160a01b03811681146200043057600080fd5b809150509295509295909350565b600082198211156200046057634e487b7160e01b600052601160045260246000fd5b500190565b600181811c908216806200047a57607f821691505b602082108114156200049c57634e487b7160e01b600052602260045260246000fd5b50919050565b608051611973620004be600039600061021601526119736000f3fe608060405234801561001057600080fd5b50600436106101825760003560e01c8063715018a6116100d8578063a9059cbb1161008c578063d8fbe99411610066578063d8fbe99414610348578063dd62ed3e1461035b578063f2fde38b146103a157600080fd5b8063a9059cbb1461030f578063c1d34b8914610322578063cae9ca511461033557600080fd5b80638da5cb5b116100bd5780638da5cb5b146102cc57806395d89b41146102f4578063a457c2d7146102fc57600080fd5b8063715018a6146102af5780638980f11f146102b957600080fd5b806323b872dd1161013a578063395093511161011457806339509351146102535780634000aea01461026657806370a082311461027957600080fd5b806323b872dd146101fc578063313ce5671461020f5780633177029f1461024057600080fd5b8063095ea7b31161016b578063095ea7b3146101c45780631296ee62146101d757806318160ddd146101ea57600080fd5b806301ffc9a71461018757806306fdde03146101af575b600080fd5b61019a6101953660046114d3565b6103b4565b60405190151581526020015b60405180910390f35b6101b761044d565b6040516101a6919061155b565b61019a6101d2366004611597565b6104df565b61019a6101e5366004611597565b6104f5565b6002545b6040519081526020016101a6565b61019a61020a3660046115c1565b610518565b60405160ff7f00000000000000000000000000000000000000000000000000000000000000001681526020016101a6565b61019a61024e366004611597565b610603565b61019a610261366004611597565b61061f565b61019a6102743660046116d7565b610668565b6101ee61028736600461172e565b73ffffffffffffffffffffffffffffffffffffffff1660009081526020819052604090205490565b6102b7610717565b005b6102b76102c7366004611597565b6107a4565b60055460405173ffffffffffffffffffffffffffffffffffffffff90911681526020016101a6565b6101b76108fb565b61019a61030a366004611597565b61090a565b61019a61031d366004611597565b6109d8565b61019a610330366004611749565b6109e5565b61019a6103433660046116d7565b610a93565b61019a6103563660046115c1565b610b37565b6101ee6103693660046117b1565b73ffffffffffffffffffffffffffffffffffffffff918216600090815260016020908152604080832093909416825291909152205490565b6102b76103af36600461172e565b610b54565b60007fffffffff0000000000000000000000000000000000000000000000000000000082167fb0202a1100000000000000000000000000000000000000000000000000000000148061044757507f01ffc9a7000000000000000000000000000000000000000000000000000000007fffffffff000000000000000000000000000000000000000000000000000000008316145b92915050565b60606003805461045c906117e4565b80601f0160208091040260200160405190810160405280929190818152602001828054610488906117e4565b80156104d55780601f106104aa576101008083540402835291602001916104d5565b820191906000526020600020905b8154815290600101906020018083116104b857829003601f168201915b5050505050905090565b60006104ec338484610da4565b50600192915050565b6000610511838360405180602001604052806000815250610668565b9392505050565b6000610525848484610f57565b73ffffffffffffffffffffffffffffffffffffffff84166000908152600160209081526040808320338452909152902054828110156105eb576040517f08c379a000000000000000000000000000000000000000000000000000000000815260206004820152602860248201527f45524332303a207472616e7366657220616d6f756e742065786365656473206160448201527f6c6c6f77616e636500000000000000000000000000000000000000000000000060648201526084015b60405180910390fd5b6105f88533858403610da4565b506001949350505050565b6000610511838360405180602001604052806000815250610a93565b33600081815260016020908152604080832073ffffffffffffffffffffffffffffffffffffffff8716845290915281205490916104ec918590610663908690611838565b610da4565b600061067484846109d8565b506106813385858561120b565b61070d576040517f08c379a000000000000000000000000000000000000000000000000000000000815260206004820152602660248201527f455243313336333a205f636865636b416e6443616c6c5472616e73666572207260448201527f657665727473000000000000000000000000000000000000000000000000000060648201526084016105e2565b5060019392505050565b60055473ffffffffffffffffffffffffffffffffffffffff163314610798576040517f08c379a000000000000000000000000000000000000000000000000000000000815260206004820181905260248201527f4f776e61626c653a2063616c6c6572206973206e6f7420746865206f776e657260448201526064016105e2565b6107a2600061131e565b565b60055473ffffffffffffffffffffffffffffffffffffffff163314610825576040517f08c379a000000000000000000000000000000000000000000000000000000000815260206004820181905260248201527f4f776e61626c653a2063616c6c6572206973206e6f7420746865206f776e657260448201526064016105e2565b8173ffffffffffffffffffffffffffffffffffffffff1663a9059cbb61086060055473ffffffffffffffffffffffffffffffffffffffff1690565b6040517fffffffff0000000000000000000000000000000000000000000000000000000060e084901b16815273ffffffffffffffffffffffffffffffffffffffff9091166004820152602481018490526044016020604051808303816000875af11580156108d2573d6000803e3d6000fd5b505050506040513d601f19601f820116820180604052508101906108f69190611877565b505050565b60606004805461045c906117e4565b33600090815260016020908152604080832073ffffffffffffffffffffffffffffffffffffffff86168452909152812054828110156109cb576040517f08c379a000000000000000000000000000000000000000000000000000000000815260206004820152602560248201527f45524332303a2064656372656173656420616c6c6f77616e63652062656c6f7760448201527f207a65726f00000000000000000000000000000000000000000000000000000060648201526084016105e2565b61070d3385858403610da4565b60006104ec338484610f57565b60006109f2858585610518565b506109ff8585858561120b565b6105f8576040517f08c379a000000000000000000000000000000000000000000000000000000000815260206004820152602660248201527f455243313336333a205f636865636b416e6443616c6c5472616e73666572207260448201527f657665727473000000000000000000000000000000000000000000000000000060648201526084016105e2565b949350505050565b6000610a9f84846104df565b50610aab848484611395565b61070d576040517f08c379a000000000000000000000000000000000000000000000000000000000815260206004820152602560248201527f455243313336333a205f636865636b416e6443616c6c417070726f766520726560448201527f766572747300000000000000000000000000000000000000000000000000000060648201526084016105e2565b6000610a8b848484604051806020016040528060008152506109e5565b60055473ffffffffffffffffffffffffffffffffffffffff163314610bd5576040517f08c379a000000000000000000000000000000000000000000000000000000000815260206004820181905260248201527f4f776e61626c653a2063616c6c6572206973206e6f7420746865206f776e657260448201526064016105e2565b73ffffffffffffffffffffffffffffffffffffffff8116610c78576040517f08c379a000000000000000000000000000000000000000000000000000000000815260206004820152602660248201527f4f776e61626c653a206e6577206f776e657220697320746865207a65726f206160448201527f646472657373000000000000000000000000000000000000000000000000000060648201526084016105e2565b610c818161131e565b50565b73ffffffffffffffffffffffffffffffffffffffff8216610d01576040517f08c379a000000000000000000000000000000000000000000000000000000000815260206004820152601f60248201527f45524332303a206d696e7420746f20746865207a65726f20616464726573730060448201526064016105e2565b8060026000828254610d139190611838565b909155505073ffffffffffffffffffffffffffffffffffffffff821660009081526020819052604081208054839290610d4d908490611838565b909155505060405181815273ffffffffffffffffffffffffffffffffffffffff8316906000907fddf252ad1be2c89b69c2b068fc378daa952ba7f163c4a11628f55a4df523b3ef9060200160405180910390a35050565b73ffffffffffffffffffffffffffffffffffffffff8316610e46576040517f08c379a0000000000000000000000000000000000000000000000000000000008152602060048201526024808201527f45524332303a20617070726f76652066726f6d20746865207a65726f2061646460448201527f726573730000000000000000000000000000000000000000000000000000000060648201526084016105e2565b73ffffffffffffffffffffffffffffffffffffffff8216610ee9576040517f08c379a000000000000000000000000000000000000000000000000000000000815260206004820152602260248201527f45524332303a20617070726f766520746f20746865207a65726f20616464726560448201527f737300000000000000000000000000000000000000000000000000000000000060648201526084016105e2565b73ffffffffffffffffffffffffffffffffffffffff83811660008181526001602090815260408083209487168084529482529182902085905590518481527f8c5be1e5ebec7d5bd14f71427d1e84f3dd0314c0f7b2291e5b200ac8c7c3b925910160405180910390a3505050565b73ffffffffffffffffffffffffffffffffffffffff8316610ffa576040517f08c379a000000000000000000000000000000000000000000000000000000000815260206004820152602560248201527f45524332303a207472616e736665722066726f6d20746865207a65726f20616460448201527f647265737300000000000000000000000000000000000000000000000000000060648201526084016105e2565b73ffffffffffffffffffffffffffffffffffffffff821661109d576040517f08c379a000000000000000000000000000000000000000000000000000000000815260206004820152602360248201527f45524332303a207472616e7366657220746f20746865207a65726f206164647260448201527f657373000000000000000000000000000000000000000000000000000000000060648201526084016105e2565b73ffffffffffffffffffffffffffffffffffffffff831660009081526020819052604090205481811015611153576040517f08c379a000000000000000000000000000000000000000000000000000000000815260206004820152602660248201527f45524332303a207472616e7366657220616d6f756e742065786365656473206260448201527f616c616e6365000000000000000000000000000000000000000000000000000060648201526084016105e2565b73ffffffffffffffffffffffffffffffffffffffff808516600090815260208190526040808220858503905591851681529081208054849290611197908490611838565b925050819055508273ffffffffffffffffffffffffffffffffffffffff168473ffffffffffffffffffffffffffffffffffffffff167fddf252ad1be2c89b69c2b068fc378daa952ba7f163c4a11628f55a4df523b3ef846040516111fd91815260200190565b60405180910390a350505050565b600073ffffffffffffffffffffffffffffffffffffffff84163b61123157506000610a8b565b6040517f88a7ca5c00000000000000000000000000000000000000000000000000000000815260009073ffffffffffffffffffffffffffffffffffffffff8616906388a7ca5c9061128c9033908a9089908990600401611899565b6020604051808303816000875af11580156112ab573d6000803e3d6000fd5b505050506040513d601f19601f820116820180604052508101906112cf91906118e2565b7fffffffff00000000000000000000000000000000000000000000000000000000167f88a7ca5c0000000000000000000000000000000000000000000000000000000014915050949350505050565b6005805473ffffffffffffffffffffffffffffffffffffffff8381167fffffffffffffffffffffffff0000000000000000000000000000000000000000831681179093556040519116919082907f8be0079c531659141344cd1fd0a4f28419497f9722a3daafe3b4186f6b6457e090600090a35050565b600073ffffffffffffffffffffffffffffffffffffffff84163b6113bb57506000610511565b6040517f7b04a2d000000000000000000000000000000000000000000000000000000000815260009073ffffffffffffffffffffffffffffffffffffffff861690637b04a2d090611414903390889088906004016118ff565b6020604051808303816000875af1158015611433573d6000803e3d6000fd5b505050506040513d601f19601f8201168201806040525081019061145791906118e2565b7fffffffff00000000000000000000000000000000000000000000000000000000167f7b04a2d000000000000000000000000000000000000000000000000000000000149150509392505050565b7fffffffff0000000000000000000000000000000000000000000000000000000081168114610c8157600080fd5b6000602082840312156114e557600080fd5b8135610511816114a5565b6000815180845260005b81811015611516576020818501810151868301820152016114fa565b81811115611528576000602083870101525b50601f017fffffffffffffffffffffffffffffffffffffffffffffffffffffffffffffffe0169290920160200192915050565b60208152600061051160208301846114f0565b803573ffffffffffffffffffffffffffffffffffffffff8116811461159257600080fd5b919050565b600080604083850312156115aa57600080fd5b6115b38361156e565b946020939093013593505050565b6000806000606084860312156115d657600080fd5b6115df8461156e565b92506115ed6020850161156e565b9150604084013590509250925092565b7f4e487b7100000000000000000000000000000000000000000000000000000000600052604160045260246000fd5b600082601f83011261163d57600080fd5b813567ffffffffffffffff80821115611658576116586115fd565b604051601f83017fffffffffffffffffffffffffffffffffffffffffffffffffffffffffffffffe0908116603f0116810190828211818310171561169e5761169e6115fd565b816040528381528660208588010111156116b757600080fd5b836020870160208301376000602085830101528094505050505092915050565b6000806000606084860312156116ec57600080fd5b6116f58461156e565b925060208401359150604084013567ffffffffffffffff81111561171857600080fd5b6117248682870161162c565b9150509250925092565b60006020828403121561174057600080fd5b6105118261156e565b6000806000806080858703121561175f57600080fd5b6117688561156e565b93506117766020860161156e565b925060408501359150606085013567ffffffffffffffff81111561179957600080fd5b6117a58782880161162c565b91505092959194509250565b600080604083850312156117c457600080fd5b6117cd8361156e565b91506117db6020840161156e565b90509250929050565b600181811c908216806117f857607f821691505b60208210811415611832577f4e487b7100000000000000000000000000000000000000000000000000000000600052602260045260246000fd5b50919050565b60008219821115611872577f4e487b7100000000000000000000000000000000000000000000000000000000600052601160045260246000fd5b500190565b60006020828403121561188957600080fd5b8151801515811461051157600080fd5b600073ffffffffffffffffffffffffffffffffffffffff8087168352808616602084015250836040830152608060608301526118d860808301846114f0565b9695505050505050565b6000602082840312156118f457600080fd5b8151610511816114a5565b73ffffffffffffffffffffffffffffffffffffffff8416815282602082015260606040820152600061193460608301846114f0565b9594505050505056fea2646970667358221220db86e5b646b4e21dd00908bf282091a1a24888dc05e6eb768739098260bc023464736f6c634300080a0033",
  "linkReferences": {},
  "deployedLinkReferences": {}
}