{
  "_format": "hh-sol-artifact-1",
  "contractName": "T5",
  "sourceName": "contracts/T5.sol",
  "abi": [
    {
      "inputs": [
        {
          "internalType": "string",
          "name": "name",
          "type": "string"
        },
        {
          "internalType": "string",
          "name": "symbol",
          "type": "string"
        },
        {
          "internalType": "uint8",
          "name": "_decimals",
          "type": "uint8"
        },
        {
          "internalType": "uint256",
          "name": "initialBalance",
          "type": "uint256"
        },
        {
          "internalType": "address payable",
          "name": "feeReceiver",
          "type": "address"
        },
        {
          "internalType": "uint256",
          "name": "cap",
          "type": "uint256"
        }
      ],
      "stateMutability": "payable",
      "type": "constructor"
    },
    {
      "anonymous": false,
      "inputs": [
        {
          "indexed": true,
          "internalType": "address",
          "name": "owner",
          "type": "address"
        },
        {
          "indexed": true,
          "internalType": "address",
          "name": "spender",
          "type": "address"
        },
        {
          "indexed": false,
          "internalType": "uint256",
          "name": "value",
          "type": "uint256"
        }
      ],
      "name": "Approval",
      "type": "event"
    },
    {
      "anonymous": false,
      "inputs": [],
      "name": "MintFinished",
      "type": "event"
    },
    {
      "anonymous": false,
      "inputs": [
        {
          "indexed": true,
          "internalType": "address",
          "name": "previousOwner",
          "type": "address"
        },
        {
          "indexed": true,
          "internalType": "address",
          "name": "newOwner",
          "type": "address"
        }
      ],
      "name": "OwnershipTransferred",
      "type": "event"
    },
    {
      "anonymous": false,
      "inputs": [
        {
          "indexed": false,
          "internalType": "address",
          "name": "account",
          "type": "address"
        }
      ],
      "name": "Paused",
      "type": "event"
    },
    {
      "anonymous": false,
      "inputs": [
        {
          "indexed": true,
          "internalType": "address",
          "name": "from",
          "type": "address"
        },
        {
          "indexed": true,
          "internalType": "address",
          "name": "to",
          "type": "address"
        },
        {
          "indexed": false,
          "internalType": "uint256",
          "name": "value",
          "type": "uint256"
        }
      ],
      "name": "Transfer",
      "type": "event"
    },
    {
      "anonymous": false,
      "inputs": [
        {
          "indexed": false,
          "internalType": "address",
          "name": "account",
          "type": "address"
        }
      ],
      "name": "Unpaused",
      "type": "event"
    },
    {
      "inputs": [
        {
          "internalType": "address",
          "name": "owner",
          "type": "address"
        },
        {
          "internalType": "address",
          "name": "spender",
          "type": "address"
        }
      ],
      "name": "allowance",
      "outputs": [
        {
          "internalType": "uint256",
          "name": "",
          "type": "uint256"
        }
      ],
      "stateMutability": "view",
      "type": "function"
    },
    {
      "inputs": [
        {
          "internalType": "address",
          "name": "spender",
          "type": "address"
        },
        {
          "internalType": "uint256",
          "name": "amount",
          "type": "uint256"
        }
      ],
      "name": "approve",
      "outputs": [
        {
          "internalType": "bool",
          "name": "",
          "type": "bool"
        }
      ],
      "stateMutability": "nonpayable",
      "type": "function"
    },
    {
      "inputs": [
        {
          "internalType": "address",
          "name": "spender",
          "type": "address"
        },
        {
          "internalType": "uint256",
          "name": "amount",
          "type": "uint256"
        }
      ],
      "name": "approveAndCall",
      "outputs": [
        {
          "internalType": "bool",
          "name": "",
          "type": "bool"
        }
      ],
      "stateMutability": "nonpayable",
      "type": "function"
    },
    {
      "inputs": [
        {
          "internalType": "address",
          "name": "spender",
          "type": "address"
        },
        {
          "internalType": "uint256",
          "name": "amount",
          "type": "uint256"
        },
        {
          "internalType": "bytes",
          "name": "data",
          "type": "bytes"
        }
      ],
      "name": "approveAndCall",
      "outputs": [
        {
          "internalType": "bool",
          "name": "",
          "type": "bool"
        }
      ],
      "stateMutability": "nonpayable",
      "type": "function"
    },
    {
      "inputs": [
        {
          "internalType": "address",
          "name": "account",
          "type": "address"
        }
      ],
      "name": "balanceOf",
      "outputs": [
        {
          "internalType": "uint256",
          "name": "",
          "type": "uint256"
        }
      ],
      "stateMutability": "view",
      "type": "function"
    },
    {
      "inputs": [],
      "name": "cap",
      "outputs": [
        {
          "internalType": "uint256",
          "name": "",
          "type": "uint256"
        }
      ],
      "stateMutability": "view",
      "type": "function"
    },
    {
      "inputs": [],
      "name": "decimals",
      "outputs": [
        {
          "internalType": "uint8",
          "name": "",
          "type": "uint8"
        }
      ],
      "stateMutability": "view",
      "type": "function"
    },
    {
      "inputs": [
        {
          "internalType": "address",
          "name": "spender",
          "type": "address"
        },
        {
          "internalType": "uint256",
          "name": "subtractedValue",
          "type": "uint256"
        }
      ],
      "name": "decreaseAllowance",
      "outputs": [
        {
          "internalType": "bool",
          "name": "",
          "type": "bool"
        }
      ],
      "stateMutability": "nonpayable",
      "type": "function"
    },
    {
      "inputs": [],
      "name": "finishMinting",
      "outputs": [],
      "stateMutability": "nonpayable",
      "type": "function"
    },
    {
      "inputs": [
        {
          "internalType": "address",
          "name": "spender",
          "type": "address"
        },
        {
          "internalType": "uint256",
          "name": "addedValue",
          "type": "uint256"
        }
      ],
      "name": "increaseAllowance",
      "outputs": [
        {
          "internalType": "bool",
          "name": "",
          "type": "bool"
        }
      ],
      "stateMutability": "nonpayable",
      "type": "function"
    },
    {
      "inputs": [
        {
          "internalType": "address",
          "name": "account",
          "type": "address"
        },
        {
          "internalType": "uint256",
          "name": "amount",
          "type": "uint256"
        }
      ],
      "name": "mint",
      "outputs": [],
      "stateMutability": "nonpayable",
      "type": "function"
    },
    {
      "inputs": [],
      "name": "mintingFinished",
      "outputs": [
        {
          "internalType": "bool",
          "name": "",
          "type": "bool"
        }
      ],
      "stateMutability": "view",
      "type": "function"
    },
    {
      "inputs": [],
      "name": "name",
      "outputs": [
        {
          "internalType": "string",
          "name": "",
          "type": "string"
        }
      ],
      "stateMutability": "view",
      "type": "function"
    },
    {
      "inputs": [],
      "name": "owner",
      "outputs": [
        {
          "internalType": "address",
          "name": "",
          "type": "address"
        }
      ],
      "stateMutability": "view",
      "type": "function"
    },
    {
      "inputs": [],
      "name": "pause",
      "outputs": [],
      "stateMutability": "nonpayable",
      "type": "function"
    },
    {
      "inputs": [],
      "name": "paused",
      "outputs": [
        {
          "internalType": "bool",
          "name": "",
          "type": "bool"
        }
      ],
      "stateMutability": "view",
      "type": "function"
    },
    {
      "inputs": [
        {
          "internalType": "address",
          "name": "tokenAddress",
          "type": "address"
        },
        {
          "internalType": "uint256",
          "name": "tokenAmount",
          "type": "uint256"
        }
      ],
      "name": "recoverERC20",
      "outputs": [],
      "stateMutability": "nonpayable",
      "type": "function"
    },
    {
      "inputs": [],
      "name": "renounceOwnership",
      "outputs": [],
      "stateMutability": "nonpayable",
      "type": "function"
    },
    {
      "inputs": [
        {
          "internalType": "bytes4",
          "name": "interfaceId",
          "type": "bytes4"
        }
      ],
      "name": "supportsInterface",
      "outputs": [
        {
          "internalType": "bool",
          "name": "",
          "type": "bool"
        }
      ],
      "stateMutability": "view",
      "type": "function"
    },
    {
      "inputs": [],
      "name": "symbol",
      "outputs": [
        {
          "internalType": "string",
          "name": "",
          "type": "string"
        }
      ],
      "stateMutability": "view",
      "type": "function"
    },
    {
      "inputs": [],
      "name": "totalSupply",
      "outputs": [
        {
          "internalType": "uint256",
          "name": "",
          "type": "uint256"
        }
      ],
      "stateMutability": "view",
      "type": "function"
    },
    {
      "inputs": [
        {
          "internalType": "address",
          "name": "recipient",
          "type": "address"
        },
        {
          "internalType": "uint256",
          "name": "amount",
          "type": "uint256"
        }
      ],
      "name": "transfer",
      "outputs": [
        {
          "internalType": "bool",
          "name": "",
          "type": "bool"
        }
      ],
      "stateMutability": "nonpayable",
      "type": "function"
    },
    {
      "inputs": [
        {
          "internalType": "address",
          "name": "recipient",
          "type": "address"
        },
        {
          "internalType": "uint256",
          "name": "amount",
          "type": "uint256"
        }
      ],
      "name": "transferAndCall",
      "outputs": [
        {
          "internalType": "bool",
          "name": "",
          "type": "bool"
        }
      ],
      "stateMutability": "nonpayable",
      "type": "function"
    },
    {
      "inputs": [
        {
          "internalType": "address",
          "name": "recipient",
          "type": "address"
        },
        {
          "internalType": "uint256",
          "name": "amount",
          "type": "uint256"
        },
        {
          "internalType": "bytes",
          "name": "data",
          "type": "bytes"
        }
      ],
      "name": "transferAndCall",
      "outputs": [
        {
          "internalType": "bool",
          "name": "",
          "type": "bool"
        }
      ],
      "stateMutability": "nonpayable",
      "type": "function"
    },
    {
      "inputs": [
        {
          "internalType": "address",
          "name": "sender",
          "type": "address"
        },
        {
          "internalType": "address",
          "name": "recipient",
          "type": "address"
        },
        {
          "internalType": "uint256",
          "name": "amount",
          "type": "uint256"
        }
      ],
      "name": "transferFrom",
      "outputs": [
        {
          "internalType": "bool",
          "name": "",
          "type": "bool"
        }
      ],
      "stateMutability": "nonpayable",
      "type": "function"
    },
    {
      "inputs": [
        {
          "internalType": "address",
          "name": "sender",
          "type": "address"
        },
        {
          "internalType": "address",
          "name": "recipient",
          "type": "address"
        },
        {
          "internalType": "uint256",
          "name": "amount",
          "type": "uint256"
        },
        {
          "internalType": "bytes",
          "name": "data",
          "type": "bytes"
        }
      ],
      "name": "transferFromAndCall",
      "outputs": [
        {
          "internalType": "bool",
          "name": "",
          "type": "bool"
        }
      ],
      "stateMutability": "nonpayable",
      "type": "function"
    },
    {
      "inputs": [
        {
          "internalType": "address",
          "name": "sender",
          "type": "address"
        },
        {
          "internalType": "address",
          "name": "recipient",
          "type": "address"
        },
        {
          "internalType": "uint256",
          "name": "amount",
          "type": "uint256"
        }
      ],
      "name": "transferFromAndCall",
      "outputs": [
        {
          "internalType": "bool",
          "name": "",
          "type": "bool"
        }
      ],
      "stateMutability": "nonpayable",
      "type": "function"
    },
    {
      "inputs": [
        {
          "internalType": "address",
          "name": "newOwner",
          "type": "address"
        }
      ],
      "name": "transferOwnership",
      "outputs": [],
      "stateMutability": "nonpayable",
      "type": "function"
    },
    {
      "inputs": [],
      "name": "unpause",
      "outputs": [],
      "stateMutability": "nonpayable",
      "type": "function"
    }
  ],
  "bytecode": "0x60c060408190526005805460ff60a81b1916905562002a59388190039081908339810160408190526200003291620004fa565b858585858585858585858585858581600390805190602001906200005892919062000387565b5080516200006e90600490602084019062000387565b50505060008111620000c75760405162461bcd60e51b815260206004820152601560248201527f45524332304361707065643a206361702069732030000000000000000000000060448201526064015b60405180910390fd5b6080526005805460ff19169055620000df336200019d565b60ff831660a052620000fd3383620001f760201b620011901760201c565b6040516001600160a01b038216903480156108fc02916000818181858888f1935050505015801562000133573d6000803e3d6000fd5b505050505050808311156200018b5760405162461bcd60e51b815260206004820152601960248201527f45524332304361707065643a20636170206578636565646564000000000000006044820152606401620000be565b50505050505050505050505062000616565b600580546001600160a01b03838116610100818102610100600160a81b031985161790945560405193909204169182907f8be0079c531659141344cd1fd0a4f28419497f9722a3daafe3b4186f6b6457e090600090a35050565b6001600160a01b0382166200024f5760405162461bcd60e51b815260206004820152601f60248201527f45524332303a206d696e7420746f20746865207a65726f2061646472657373006044820152606401620000be565b6200025d60008383620002ea565b8060026000828254620002719190620005b2565b90915550506001600160a01b03821660009081526020819052604081208054839290620002a0908490620005b2565b90915550506040518181526001600160a01b038316906000907fddf252ad1be2c89b69c2b068fc378daa952ba7f163c4a11628f55a4df523b3ef9060200160405180910390a35050565b620003028383836200030760201b620012bc1760201c565b505050565b6200031f8383836200030260201b62000dfc1760201c565b60055460ff1615620003025760405162461bcd60e51b815260206004820152602a60248201527f45524332305061757361626c653a20746f6b656e207472616e736665722077686044820152691a5b19481c185d5cd95960b21b6064820152608401620000be565b8280546200039590620005d9565b90600052602060002090601f016020900481019282620003b9576000855562000404565b82601f10620003d457805160ff191683800117855562000404565b8280016001018555821562000404579182015b8281111562000404578251825591602001919060010190620003e7565b506200041292915062000416565b5090565b5b8082111562000412576000815560010162000417565b634e487b7160e01b600052604160045260246000fd5b600082601f8301126200045557600080fd5b81516001600160401b03808211156200047257620004726200042d565b604051601f8301601f19908116603f011681019082821181831017156200049d576200049d6200042d565b81604052838152602092508683858801011115620004ba57600080fd5b600091505b83821015620004de5785820183015181830184015290820190620004bf565b83821115620004f05760008385830101525b9695505050505050565b60008060008060008060c087890312156200051457600080fd5b86516001600160401b03808211156200052c57600080fd5b6200053a8a838b0162000443565b975060208901519150808211156200055157600080fd5b506200056089828a0162000443565b955050604087015160ff811681146200057857600080fd5b6060880151608089015191955093506001600160a01b03811681146200059d57600080fd5b8092505060a087015190509295509295509295565b60008219821115620005d457634e487b7160e01b600052601160045260246000fd5b500190565b600181811c90821680620005ee57607f821691505b602082108114156200061057634e487b7160e01b600052602260045260246000fd5b50919050565b60805160a0516124166200064360003960006102870152600081816102c60152611ea301526124166000f3fe608060405234801561001057600080fd5b50600436106101cf5760003560e01c80635c975abb1161010457806395d89b41116100a2578063cae9ca5111610071578063cae9ca511461041d578063d8fbe99414610430578063dd62ed3e14610443578063f2fde38b1461048957600080fd5b806395d89b41146103dc578063a457c2d7146103e4578063a9059cbb146103f7578063c1d34b891461040a57600080fd5b80637d64bcb4116100de5780637d64bcb4146103765780638456cb591461037e5780638980f11f146103865780638da5cb5b1461039957600080fd5b80635c975abb1461032d57806370a0823114610338578063715018a61461036e57600080fd5b8063313ce56711610171578063395093511161014b57806339509351146102ea5780633f4ba83a146102fd5780634000aea01461030757806340c10f191461031a57600080fd5b8063313ce567146102805780633177029f146102b1578063355274ea146102c457600080fd5b8063095ea7b3116101ad578063095ea7b3146102355780631296ee621461024857806318160ddd1461025b57806323b872dd1461026d57600080fd5b806301ffc9a7146101d457806305d2035b146101fc57806306fdde0314610220575b600080fd5b6101e76101e2366004611f76565b61049c565b60405190151581526020015b60405180910390f35b6005547501000000000000000000000000000000000000000000900460ff166101e7565b610228610535565b6040516101f39190611ffe565b6101e761024336600461203a565b6105c7565b6101e761025636600461203a565b6105dd565b6002545b6040519081526020016101f3565b6101e761027b366004612064565b610600565b60405160ff7f00000000000000000000000000000000000000000000000000000000000000001681526020016101f3565b6101e76102bf36600461203a565b6106eb565b7f000000000000000000000000000000000000000000000000000000000000000061025f565b6101e76102f836600461203a565b610707565b610305610750565b005b6101e761031536600461217a565b6107e1565b61030561032836600461203a565b610890565b60055460ff166101e7565b61025f6103463660046121d1565b73ffffffffffffffffffffffffffffffffffffffff1660009081526020819052604090205490565b6103056109d1565b610305610a62565b610305610c00565b61030561039436600461203a565b610c8f565b600554610100900473ffffffffffffffffffffffffffffffffffffffff1660405173ffffffffffffffffffffffffffffffffffffffff90911681526020016101f3565b610228610e01565b6101e76103f236600461203a565b610e10565b6101e761040536600461203a565b610ede565b6101e76104183660046121ec565b610eeb565b6101e761042b36600461217a565b610f99565b6101e761043e366004612064565b61103d565b61025f610451366004612254565b73ffffffffffffffffffffffffffffffffffffffff918216600090815260016020908152604080832093909416825291909152205490565b6103056104973660046121d1565b61105a565b60007fffffffff0000000000000000000000000000000000000000000000000000000082167fb0202a1100000000000000000000000000000000000000000000000000000000148061052f57507f01ffc9a7000000000000000000000000000000000000000000000000000000007fffffffff000000000000000000000000000000000000000000000000000000008316145b92915050565b60606003805461054490612287565b80601f016020809104026020016040519081016040528092919081815260200182805461057090612287565b80156105bd5780601f10610592576101008083540402835291602001916105bd565b820191906000526020600020905b8154815290600101906020018083116105a057829003601f168201915b5050505050905090565b60006105d433848461134f565b50600192915050565b60006105f98383604051806020016040528060008152506107e1565b9392505050565b600061060d848484611502565b73ffffffffffffffffffffffffffffffffffffffff84166000908152600160209081526040808320338452909152902054828110156106d3576040517f08c379a000000000000000000000000000000000000000000000000000000000815260206004820152602860248201527f45524332303a207472616e7366657220616d6f756e742065786365656473206160448201527f6c6c6f77616e636500000000000000000000000000000000000000000000000060648201526084015b60405180910390fd5b6106e0853385840361134f565b506001949350505050565b60006105f9838360405180602001604052806000815250610f99565b33600081815260016020908152604080832073ffffffffffffffffffffffffffffffffffffffff8716845290915281205490916105d491859061074b9086906122db565b61134f565b60055473ffffffffffffffffffffffffffffffffffffffff6101009091041633146107d7576040517f08c379a000000000000000000000000000000000000000000000000000000000815260206004820181905260248201527f4f776e61626c653a2063616c6c6572206973206e6f7420746865206f776e657260448201526064016106ca565b6107df6117c1565b565b60006107ed8484610ede565b506107fa338585856118a2565b610886576040517f08c379a000000000000000000000000000000000000000000000000000000000815260206004820152602660248201527f455243313336333a205f636865636b416e6443616c6c5472616e73666572207260448201527f657665727473000000000000000000000000000000000000000000000000000060648201526084016106ca565b5060019392505050565b60055473ffffffffffffffffffffffffffffffffffffffff610100909104163314610917576040517f08c379a000000000000000000000000000000000000000000000000000000000815260206004820181905260248201527f4f776e61626c653a2063616c6c6572206973206e6f7420746865206f776e657260448201526064016106ca565b6005547501000000000000000000000000000000000000000000900460ff16156109c3576040517f08c379a000000000000000000000000000000000000000000000000000000000815260206004820152602260248201527f45524332304d696e7461626c653a206d696e74696e672069732066696e69736860448201527f656400000000000000000000000000000000000000000000000000000000000060648201526084016106ca565b6109cd82826119c4565b5050565b60055473ffffffffffffffffffffffffffffffffffffffff610100909104163314610a58576040517f08c379a000000000000000000000000000000000000000000000000000000000815260206004820181905260248201527f4f776e61626c653a2063616c6c6572206973206e6f7420746865206f776e657260448201526064016106ca565b6107df6000611b01565b60055473ffffffffffffffffffffffffffffffffffffffff610100909104163314610ae9576040517f08c379a000000000000000000000000000000000000000000000000000000000815260206004820181905260248201527f4f776e61626c653a2063616c6c6572206973206e6f7420746865206f776e657260448201526064016106ca565b6005547501000000000000000000000000000000000000000000900460ff1615610b95576040517f08c379a000000000000000000000000000000000000000000000000000000000815260206004820152602260248201527f45524332304d696e7461626c653a206d696e74696e672069732066696e69736860448201527f656400000000000000000000000000000000000000000000000000000000000060648201526084016106ca565b600580547fffffffffffffffffffff00ffffffffffffffffffffffffffffffffffffffffff1675010000000000000000000000000000000000000000001790556040517fae5184fba832cb2b1f702aca6117b8d265eaf03ad33eb133f19dde0f5920fa0890600090a1565b60055473ffffffffffffffffffffffffffffffffffffffff610100909104163314610c87576040517f08c379a000000000000000000000000000000000000000000000000000000000815260206004820181905260248201527f4f776e61626c653a2063616c6c6572206973206e6f7420746865206f776e657260448201526064016106ca565b6107df611b7f565b60055473ffffffffffffffffffffffffffffffffffffffff610100909104163314610d16576040517f08c379a000000000000000000000000000000000000000000000000000000000815260206004820181905260248201527f4f776e61626c653a2063616c6c6572206973206e6f7420746865206f776e657260448201526064016106ca565b8173ffffffffffffffffffffffffffffffffffffffff1663a9059cbb610d5760055473ffffffffffffffffffffffffffffffffffffffff6101009091041690565b6040517fffffffff0000000000000000000000000000000000000000000000000000000060e084901b16815273ffffffffffffffffffffffffffffffffffffffff909116600482015260248101849052604401602060405180830381600087803b158015610dc457600080fd5b505af1158015610dd8573d6000803e3d6000fd5b505050506040513d601f19601f82011682018060405250810190610dfc919061231a565b505050565b60606004805461054490612287565b33600090815260016020908152604080832073ffffffffffffffffffffffffffffffffffffffff8616845290915281205482811015610ed1576040517f08c379a000000000000000000000000000000000000000000000000000000000815260206004820152602560248201527f45524332303a2064656372656173656420616c6c6f77616e63652062656c6f7760448201527f207a65726f00000000000000000000000000000000000000000000000000000060648201526084016106ca565b610886338585840361134f565b60006105d4338484611502565b6000610ef8858585610600565b50610f05858585856118a2565b6106e0576040517f08c379a000000000000000000000000000000000000000000000000000000000815260206004820152602660248201527f455243313336333a205f636865636b416e6443616c6c5472616e73666572207260448201527f657665727473000000000000000000000000000000000000000000000000000060648201526084016106ca565b949350505050565b6000610fa584846105c7565b50610fb1848484611c3f565b610886576040517f08c379a000000000000000000000000000000000000000000000000000000000815260206004820152602560248201527f455243313336333a205f636865636b416e6443616c6c417070726f766520726560448201527f766572747300000000000000000000000000000000000000000000000000000060648201526084016106ca565b6000610f9184848460405180602001604052806000815250610eeb565b60055473ffffffffffffffffffffffffffffffffffffffff6101009091041633146110e1576040517f08c379a000000000000000000000000000000000000000000000000000000000815260206004820181905260248201527f4f776e61626c653a2063616c6c6572206973206e6f7420746865206f776e657260448201526064016106ca565b73ffffffffffffffffffffffffffffffffffffffff8116611184576040517f08c379a000000000000000000000000000000000000000000000000000000000815260206004820152602660248201527f4f776e61626c653a206e6577206f776e657220697320746865207a65726f206160448201527f646472657373000000000000000000000000000000000000000000000000000060648201526084016106ca565b61118d81611b01565b50565b73ffffffffffffffffffffffffffffffffffffffff821661120d576040517f08c379a000000000000000000000000000000000000000000000000000000000815260206004820152601f60248201527f45524332303a206d696e7420746f20746865207a65726f20616464726573730060448201526064016106ca565b61121960008383611d5e565b806002600082825461122b91906122db565b909155505073ffffffffffffffffffffffffffffffffffffffff8216600090815260208190526040812080548392906112659084906122db565b909155505060405181815273ffffffffffffffffffffffffffffffffffffffff8316906000907fddf252ad1be2c89b69c2b068fc378daa952ba7f163c4a11628f55a4df523b3ef9060200160405180910390a35050565b60055460ff1615610dfc576040517f08c379a000000000000000000000000000000000000000000000000000000000815260206004820152602a60248201527f45524332305061757361626c653a20746f6b656e207472616e7366657220776860448201527f696c65207061757365640000000000000000000000000000000000000000000060648201526084016106ca565b73ffffffffffffffffffffffffffffffffffffffff83166113f1576040517f08c379a0000000000000000000000000000000000000000000000000000000008152602060048201526024808201527f45524332303a20617070726f76652066726f6d20746865207a65726f2061646460448201527f726573730000000000000000000000000000000000000000000000000000000060648201526084016106ca565b73ffffffffffffffffffffffffffffffffffffffff8216611494576040517f08c379a000000000000000000000000000000000000000000000000000000000815260206004820152602260248201527f45524332303a20617070726f766520746f20746865207a65726f20616464726560448201527f737300000000000000000000000000000000000000000000000000000000000060648201526084016106ca565b73ffffffffffffffffffffffffffffffffffffffff83811660008181526001602090815260408083209487168084529482529182902085905590518481527f8c5be1e5ebec7d5bd14f71427d1e84f3dd0314c0f7b2291e5b200ac8c7c3b925910160405180910390a3505050565b73ffffffffffffffffffffffffffffffffffffffff83166115a5576040517f08c379a000000000000000000000000000000000000000000000000000000000815260206004820152602560248201527f45524332303a207472616e736665722066726f6d20746865207a65726f20616460448201527f647265737300000000000000000000000000000000000000000000000000000060648201526084016106ca565b73ffffffffffffffffffffffffffffffffffffffff8216611648576040517f08c379a000000000000000000000000000000000000000000000000000000000815260206004820152602360248201527f45524332303a207472616e7366657220746f20746865207a65726f206164647260448201527f657373000000000000000000000000000000000000000000000000000000000060648201526084016106ca565b611653838383611d5e565b73ffffffffffffffffffffffffffffffffffffffff831660009081526020819052604090205481811015611709576040517f08c379a000000000000000000000000000000000000000000000000000000000815260206004820152602660248201527f45524332303a207472616e7366657220616d6f756e742065786365656473206260448201527f616c616e6365000000000000000000000000000000000000000000000000000060648201526084016106ca565b73ffffffffffffffffffffffffffffffffffffffff80851660009081526020819052604080822085850390559185168152908120805484929061174d9084906122db565b925050819055508273ffffffffffffffffffffffffffffffffffffffff168473ffffffffffffffffffffffffffffffffffffffff167fddf252ad1be2c89b69c2b068fc378daa952ba7f163c4a11628f55a4df523b3ef846040516117b391815260200190565b60405180910390a350505050565b60055460ff1661182d576040517f08c379a000000000000000000000000000000000000000000000000000000000815260206004820152601460248201527f5061757361626c653a206e6f742070617573656400000000000000000000000060448201526064016106ca565b600580547fffffffffffffffffffffffffffffffffffffffffffffffffffffffffffffff001690557f5db9ee0a495bf2e6ff9c91a7834c1ba4fdd244a5e8aa4e537bd38aeae4b073aa335b60405173ffffffffffffffffffffffffffffffffffffffff909116815260200160405180910390a1565b600073ffffffffffffffffffffffffffffffffffffffff84163b6118c857506000610f91565b6040517f88a7ca5c00000000000000000000000000000000000000000000000000000000815260009073ffffffffffffffffffffffffffffffffffffffff8616906388a7ca5c906119239033908a908990899060040161233c565b602060405180830381600087803b15801561193d57600080fd5b505af1158015611951573d6000803e3d6000fd5b505050506040513d601f19601f820116820180604052508101906119759190612385565b7fffffffff00000000000000000000000000000000000000000000000000000000167f88a7ca5c0000000000000000000000000000000000000000000000000000000014915050949350505050565b60055473ffffffffffffffffffffffffffffffffffffffff610100909104163314611a4b576040517f08c379a000000000000000000000000000000000000000000000000000000000815260206004820181905260248201527f4f776e61626c653a2063616c6c6572206973206e6f7420746865206f776e657260448201526064016106ca565b6005547501000000000000000000000000000000000000000000900460ff1615611af7576040517f08c379a000000000000000000000000000000000000000000000000000000000815260206004820152602260248201527f45524332304d696e7461626c653a206d696e74696e672069732066696e69736860448201527f656400000000000000000000000000000000000000000000000000000000000060648201526084016106ca565b6109cd8282611d69565b6005805473ffffffffffffffffffffffffffffffffffffffff8381166101008181027fffffffffffffffffffffff0000000000000000000000000000000000000000ff85161790945560405193909204169182907f8be0079c531659141344cd1fd0a4f28419497f9722a3daafe3b4186f6b6457e090600090a35050565b60055460ff1615611bec576040517f08c379a000000000000000000000000000000000000000000000000000000000815260206004820152601060248201527f5061757361626c653a207061757365640000000000000000000000000000000060448201526064016106ca565b600580547fffffffffffffffffffffffffffffffffffffffffffffffffffffffffffffff001660011790557f62e78cea01bee320cd4e420270b5ea74000d11b0c9f74754ebdbfc544b05a2586118783390565b600073ffffffffffffffffffffffffffffffffffffffff84163b611c65575060006105f9565b6040517f7b04a2d000000000000000000000000000000000000000000000000000000000815260009073ffffffffffffffffffffffffffffffffffffffff861690637b04a2d090611cbe903390889088906004016123a2565b602060405180830381600087803b158015611cd857600080fd5b505af1158015611cec573d6000803e3d6000fd5b505050506040513d601f19601f82011682018060405250810190611d109190612385565b7fffffffff00000000000000000000000000000000000000000000000000000000167f7b04a2d000000000000000000000000000000000000000000000000000000000149150509392505050565b610dfc8383836112bc565b60055473ffffffffffffffffffffffffffffffffffffffff610100909104163314611df0576040517f08c379a000000000000000000000000000000000000000000000000000000000815260206004820181905260248201527f4f776e61626c653a2063616c6c6572206973206e6f7420746865206f776e657260448201526064016106ca565b6005547501000000000000000000000000000000000000000000900460ff1615611e9c576040517f08c379a000000000000000000000000000000000000000000000000000000000815260206004820152602260248201527f45524332304d696e7461626c653a206d696e74696e672069732066696e69736860448201527f656400000000000000000000000000000000000000000000000000000000000060648201526084016106ca565b6109cd82827f000000000000000000000000000000000000000000000000000000000000000081611ecc60025490565b611ed691906122db565b1115611f3e576040517f08c379a000000000000000000000000000000000000000000000000000000000815260206004820152601960248201527f45524332304361707065643a206361702065786365656465640000000000000060448201526064016106ca565b6109cd8282611190565b7fffffffff000000000000000000000000000000000000000000000000000000008116811461118d57600080fd5b600060208284031215611f8857600080fd5b81356105f981611f48565b6000815180845260005b81811015611fb957602081850181015186830182015201611f9d565b81811115611fcb576000602083870101525b50601f017fffffffffffffffffffffffffffffffffffffffffffffffffffffffffffffffe0169290920160200192915050565b6020815260006105f96020830184611f93565b803573ffffffffffffffffffffffffffffffffffffffff8116811461203557600080fd5b919050565b6000806040838503121561204d57600080fd5b61205683612011565b946020939093013593505050565b60008060006060848603121561207957600080fd5b61208284612011565b925061209060208501612011565b9150604084013590509250925092565b7f4e487b7100000000000000000000000000000000000000000000000000000000600052604160045260246000fd5b600082601f8301126120e057600080fd5b813567ffffffffffffffff808211156120fb576120fb6120a0565b604051601f83017fffffffffffffffffffffffffffffffffffffffffffffffffffffffffffffffe0908116603f01168101908282118183101715612141576121416120a0565b8160405283815286602085880101111561215a57600080fd5b836020870160208301376000602085830101528094505050505092915050565b60008060006060848603121561218f57600080fd5b61219884612011565b925060208401359150604084013567ffffffffffffffff8111156121bb57600080fd5b6121c7868287016120cf565b9150509250925092565b6000602082840312156121e357600080fd5b6105f982612011565b6000806000806080858703121561220257600080fd5b61220b85612011565b935061221960208601612011565b925060408501359150606085013567ffffffffffffffff81111561223c57600080fd5b612248878288016120cf565b91505092959194509250565b6000806040838503121561226757600080fd5b61227083612011565b915061227e60208401612011565b90509250929050565b600181811c9082168061229b57607f821691505b602082108114156122d5577f4e487b7100000000000000000000000000000000000000000000000000000000600052602260045260246000fd5b50919050565b60008219821115612315577f4e487b7100000000000000000000000000000000000000000000000000000000600052601160045260246000fd5b500190565b60006020828403121561232c57600080fd5b815180151581146105f957600080fd5b600073ffffffffffffffffffffffffffffffffffffffff80871683528086166020840152508360408301526080606083015261237b6080830184611f93565b9695505050505050565b60006020828403121561239757600080fd5b81516105f981611f48565b73ffffffffffffffffffffffffffffffffffffffff841681528260208201526060604082015260006123d76060830184611f93565b9594505050505056fea2646970667358221220f943ebaa25b080e94b138f2668cbb2847e39ede932f6336c1859109ebe56981364736f6c63430008090033",
  "linkReferences": {},
  "deployedLinkReferences": {}
}