{
  "_format": "hh-sol-artifact-1",
  "contractName": "T5",
  "sourceName": "contracts/T5.sol",
  "abi": [
    {
      "inputs": [
        {
          "internalType": "string",
          "name": "name",
          "type": "string"
        },
        {
          "internalType": "string",
          "name": "symbol",
          "type": "string"
        },
        {
          "internalType": "uint8",
          "name": "_decimals",
          "type": "uint8"
        },
        {
          "internalType": "uint256",
          "name": "initialBalance",
          "type": "uint256"
        },
        {
          "internalType": "address payable",
          "name": "feeReceiver",
          "type": "address"
        },
        {
          "internalType": "uint256",
          "name": "cap",
          "type": "uint256"
        }
      ],
      "stateMutability": "payable",
      "type": "constructor"
    },
    {
      "anonymous": false,
      "inputs": [
        {
          "indexed": true,
          "internalType": "address",
          "name": "owner",
          "type": "address"
        },
        {
          "indexed": true,
          "internalType": "address",
          "name": "spender",
          "type": "address"
        },
        {
          "indexed": false,
          "internalType": "uint256",
          "name": "value",
          "type": "uint256"
        }
      ],
      "name": "Approval",
      "type": "event"
    },
    {
      "anonymous": false,
      "inputs": [],
      "name": "MintFinished",
      "type": "event"
    },
    {
      "anonymous": false,
      "inputs": [
        {
          "indexed": true,
          "internalType": "address",
          "name": "previousOwner",
          "type": "address"
        },
        {
          "indexed": true,
          "internalType": "address",
          "name": "newOwner",
          "type": "address"
        }
      ],
      "name": "OwnershipTransferred",
      "type": "event"
    },
    {
      "anonymous": false,
      "inputs": [
        {
          "indexed": false,
          "internalType": "address",
          "name": "account",
          "type": "address"
        }
      ],
      "name": "Paused",
      "type": "event"
    },
    {
      "anonymous": false,
      "inputs": [
        {
          "indexed": true,
          "internalType": "address",
          "name": "from",
          "type": "address"
        },
        {
          "indexed": true,
          "internalType": "address",
          "name": "to",
          "type": "address"
        },
        {
          "indexed": false,
          "internalType": "uint256",
          "name": "value",
          "type": "uint256"
        }
      ],
      "name": "Transfer",
      "type": "event"
    },
    {
      "anonymous": false,
      "inputs": [
        {
          "indexed": false,
          "internalType": "address",
          "name": "account",
          "type": "address"
        }
      ],
      "name": "Unpaused",
      "type": "event"
    },
    {
      "inputs": [
        {
          "internalType": "address",
          "name": "owner",
          "type": "address"
        },
        {
          "internalType": "address",
          "name": "spender",
          "type": "address"
        }
      ],
      "name": "allowance",
      "outputs": [
        {
          "internalType": "uint256",
          "name": "",
          "type": "uint256"
        }
      ],
      "stateMutability": "view",
      "type": "function"
    },
    {
      "inputs": [
        {
          "internalType": "address",
          "name": "spender",
          "type": "address"
        },
        {
          "internalType": "uint256",
          "name": "amount",
          "type": "uint256"
        }
      ],
      "name": "approve",
      "outputs": [
        {
          "internalType": "bool",
          "name": "",
          "type": "bool"
        }
      ],
      "stateMutability": "nonpayable",
      "type": "function"
    },
    {
      "inputs": [
        {
          "internalType": "address",
          "name": "spender",
          "type": "address"
        },
        {
          "internalType": "uint256",
          "name": "amount",
          "type": "uint256"
        }
      ],
      "name": "approveAndCall",
      "outputs": [
        {
          "internalType": "bool",
          "name": "",
          "type": "bool"
        }
      ],
      "stateMutability": "nonpayable",
      "type": "function"
    },
    {
      "inputs": [
        {
          "internalType": "address",
          "name": "spender",
          "type": "address"
        },
        {
          "internalType": "uint256",
          "name": "amount",
          "type": "uint256"
        },
        {
          "internalType": "bytes",
          "name": "data",
          "type": "bytes"
        }
      ],
      "name": "approveAndCall",
      "outputs": [
        {
          "internalType": "bool",
          "name": "",
          "type": "bool"
        }
      ],
      "stateMutability": "nonpayable",
      "type": "function"
    },
    {
      "inputs": [
        {
          "internalType": "address",
          "name": "account",
          "type": "address"
        }
      ],
      "name": "balanceOf",
      "outputs": [
        {
          "internalType": "uint256",
          "name": "",
          "type": "uint256"
        }
      ],
      "stateMutability": "view",
      "type": "function"
    },
    {
      "inputs": [],
      "name": "cap",
      "outputs": [
        {
          "internalType": "uint256",
          "name": "",
          "type": "uint256"
        }
      ],
      "stateMutability": "view",
      "type": "function"
    },
    {
      "inputs": [],
      "name": "decimals",
      "outputs": [
        {
          "internalType": "uint8",
          "name": "",
          "type": "uint8"
        }
      ],
      "stateMutability": "view",
      "type": "function"
    },
    {
      "inputs": [
        {
          "internalType": "address",
          "name": "spender",
          "type": "address"
        },
        {
          "internalType": "uint256",
          "name": "subtractedValue",
          "type": "uint256"
        }
      ],
      "name": "decreaseAllowance",
      "outputs": [
        {
          "internalType": "bool",
          "name": "",
          "type": "bool"
        }
      ],
      "stateMutability": "nonpayable",
      "type": "function"
    },
    {
      "inputs": [],
      "name": "finishMinting",
      "outputs": [],
      "stateMutability": "nonpayable",
      "type": "function"
    },
    {
      "inputs": [
        {
          "internalType": "address",
          "name": "spender",
          "type": "address"
        },
        {
          "internalType": "uint256",
          "name": "addedValue",
          "type": "uint256"
        }
      ],
      "name": "increaseAllowance",
      "outputs": [
        {
          "internalType": "bool",
          "name": "",
          "type": "bool"
        }
      ],
      "stateMutability": "nonpayable",
      "type": "function"
    },
    {
      "inputs": [
        {
          "internalType": "address",
          "name": "account",
          "type": "address"
        },
        {
          "internalType": "uint256",
          "name": "amount",
          "type": "uint256"
        }
      ],
      "name": "mint",
      "outputs": [],
      "stateMutability": "nonpayable",
      "type": "function"
    },
    {
      "inputs": [],
      "name": "mintingFinished",
      "outputs": [
        {
          "internalType": "bool",
          "name": "",
          "type": "bool"
        }
      ],
      "stateMutability": "view",
      "type": "function"
    },
    {
      "inputs": [],
      "name": "name",
      "outputs": [
        {
          "internalType": "string",
          "name": "",
          "type": "string"
        }
      ],
      "stateMutability": "view",
      "type": "function"
    },
    {
      "inputs": [],
      "name": "owner",
      "outputs": [
        {
          "internalType": "address",
          "name": "",
          "type": "address"
        }
      ],
      "stateMutability": "view",
      "type": "function"
    },
    {
      "inputs": [],
      "name": "pause",
      "outputs": [],
      "stateMutability": "nonpayable",
      "type": "function"
    },
    {
      "inputs": [],
      "name": "paused",
      "outputs": [
        {
          "internalType": "bool",
          "name": "",
          "type": "bool"
        }
      ],
      "stateMutability": "view",
      "type": "function"
    },
    {
      "inputs": [
        {
          "internalType": "address",
          "name": "tokenAddress",
          "type": "address"
        },
        {
          "internalType": "uint256",
          "name": "tokenAmount",
          "type": "uint256"
        }
      ],
      "name": "recoverERC20",
      "outputs": [],
      "stateMutability": "nonpayable",
      "type": "function"
    },
    {
      "inputs": [],
      "name": "renounceOwnership",
      "outputs": [],
      "stateMutability": "nonpayable",
      "type": "function"
    },
    {
      "inputs": [
        {
          "internalType": "bytes4",
          "name": "interfaceId",
          "type": "bytes4"
        }
      ],
      "name": "supportsInterface",
      "outputs": [
        {
          "internalType": "bool",
          "name": "",
          "type": "bool"
        }
      ],
      "stateMutability": "view",
      "type": "function"
    },
    {
      "inputs": [],
      "name": "symbol",
      "outputs": [
        {
          "internalType": "string",
          "name": "",
          "type": "string"
        }
      ],
      "stateMutability": "view",
      "type": "function"
    },
    {
      "inputs": [],
      "name": "totalSupply",
      "outputs": [
        {
          "internalType": "uint256",
          "name": "",
          "type": "uint256"
        }
      ],
      "stateMutability": "view",
      "type": "function"
    },
    {
      "inputs": [
        {
          "internalType": "address",
          "name": "recipient",
          "type": "address"
        },
        {
          "internalType": "uint256",
          "name": "amount",
          "type": "uint256"
        }
      ],
      "name": "transfer",
      "outputs": [
        {
          "internalType": "bool",
          "name": "",
          "type": "bool"
        }
      ],
      "stateMutability": "nonpayable",
      "type": "function"
    },
    {
      "inputs": [
        {
          "internalType": "address",
          "name": "recipient",
          "type": "address"
        },
        {
          "internalType": "uint256",
          "name": "amount",
          "type": "uint256"
        }
      ],
      "name": "transferAndCall",
      "outputs": [
        {
          "internalType": "bool",
          "name": "",
          "type": "bool"
        }
      ],
      "stateMutability": "nonpayable",
      "type": "function"
    },
    {
      "inputs": [
        {
          "internalType": "address",
          "name": "recipient",
          "type": "address"
        },
        {
          "internalType": "uint256",
          "name": "amount",
          "type": "uint256"
        },
        {
          "internalType": "bytes",
          "name": "data",
          "type": "bytes"
        }
      ],
      "name": "transferAndCall",
      "outputs": [
        {
          "internalType": "bool",
          "name": "",
          "type": "bool"
        }
      ],
      "stateMutability": "nonpayable",
      "type": "function"
    },
    {
      "inputs": [
        {
          "internalType": "address",
          "name": "sender",
          "type": "address"
        },
        {
          "internalType": "address",
          "name": "recipient",
          "type": "address"
        },
        {
          "internalType": "uint256",
          "name": "amount",
          "type": "uint256"
        }
      ],
      "name": "transferFrom",
      "outputs": [
        {
          "internalType": "bool",
          "name": "",
          "type": "bool"
        }
      ],
      "stateMutability": "nonpayable",
      "type": "function"
    },
    {
      "inputs": [
        {
          "internalType": "address",
          "name": "sender",
          "type": "address"
        },
        {
          "internalType": "address",
          "name": "recipient",
          "type": "address"
        },
        {
          "internalType": "uint256",
          "name": "amount",
          "type": "uint256"
        },
        {
          "internalType": "bytes",
          "name": "data",
          "type": "bytes"
        }
      ],
      "name": "transferFromAndCall",
      "outputs": [
        {
          "internalType": "bool",
          "name": "",
          "type": "bool"
        }
      ],
      "stateMutability": "nonpayable",
      "type": "function"
    },
    {
      "inputs": [
        {
          "internalType": "address",
          "name": "sender",
          "type": "address"
        },
        {
          "internalType": "address",
          "name": "recipient",
          "type": "address"
        },
        {
          "internalType": "uint256",
          "name": "amount",
          "type": "uint256"
        }
      ],
      "name": "transferFromAndCall",
      "outputs": [
        {
          "internalType": "bool",
          "name": "",
          "type": "bool"
        }
      ],
      "stateMutability": "nonpayable",
      "type": "function"
    },
    {
      "inputs": [
        {
          "internalType": "address",
          "name": "newOwner",
          "type": "address"
        }
      ],
      "name": "transferOwnership",
      "outputs": [],
      "stateMutability": "nonpayable",
      "type": "function"
    }
  ],
  "bytecode": "0x60c060408190526005805460ff60a81b1916905562002900388190039081908339810160408190526200003291620004fa565b858585858585858585858585858581600390805190602001906200005892919062000387565b5080516200006e90600490602084019062000387565b50505060008111620000c75760405162461bcd60e51b815260206004820152601560248201527f45524332304361707065643a206361702069732030000000000000000000000060448201526064015b60405180910390fd5b6080526005805460ff19169055620000df336200019d565b60ff831660a052620000fd3383620001f760201b620010ee1760201c565b6040516001600160a01b038216903480156108fc02916000818181858888f1935050505015801562000133573d6000803e3d6000fd5b505050505050808311156200018b5760405162461bcd60e51b815260206004820152601960248201527f45524332304361707065643a20636170206578636565646564000000000000006044820152606401620000be565b50505050505050505050505062000616565b600580546001600160a01b03838116610100818102610100600160a81b031985161790945560405193909204169182907f8be0079c531659141344cd1fd0a4f28419497f9722a3daafe3b4186f6b6457e090600090a35050565b6001600160a01b0382166200024f5760405162461bcd60e51b815260206004820152601f60248201527f45524332303a206d696e7420746f20746865207a65726f2061646472657373006044820152606401620000be565b6200025d60008383620002ea565b8060026000828254620002719190620005b2565b90915550506001600160a01b03821660009081526020819052604081208054839290620002a0908490620005b2565b90915550506040518181526001600160a01b038316906000907fddf252ad1be2c89b69c2b068fc378daa952ba7f163c4a11628f55a4df523b3ef9060200160405180910390a35050565b620003028383836200030760201b6200121a1760201c565b505050565b6200031f8383836200030260201b62000d5a1760201c565b60055460ff1615620003025760405162461bcd60e51b815260206004820152602a60248201527f45524332305061757361626c653a20746f6b656e207472616e736665722077686044820152691a5b19481c185d5cd95960b21b6064820152608401620000be565b8280546200039590620005d9565b90600052602060002090601f016020900481019282620003b9576000855562000404565b82601f10620003d457805160ff191683800117855562000404565b8280016001018555821562000404579182015b8281111562000404578251825591602001919060010190620003e7565b506200041292915062000416565b5090565b5b8082111562000412576000815560010162000417565b634e487b7160e01b600052604160045260246000fd5b600082601f8301126200045557600080fd5b81516001600160401b03808211156200047257620004726200042d565b604051601f8301601f19908116603f011681019082821181831017156200049d576200049d6200042d565b81604052838152602092508683858801011115620004ba57600080fd5b600091505b83821015620004de5785820183015181830184015290820190620004bf565b83821115620004f05760008385830101525b9695505050505050565b60008060008060008060c087890312156200051457600080fd5b86516001600160401b03808211156200052c57600080fd5b6200053a8a838b0162000443565b975060208901519150808211156200055157600080fd5b506200056089828a0162000443565b955050604087015160ff811681146200057857600080fd5b6060880151608089015191955093506001600160a01b03811681146200059d57600080fd5b8092505060a087015190509295509295509295565b60008219821115620005d457634e487b7160e01b600052601160045260246000fd5b500190565b600181811c90821680620005ee57607f821691505b602082108114156200061057634e487b7160e01b600052602260045260246000fd5b50919050565b60805160a0516122bd62000643600039600061027c0152600081816102bb0152611d4a01526122bd6000f3fe608060405234801561001057600080fd5b50600436106101c45760003560e01c806370a08231116100f9578063a457c2d711610097578063cae9ca5111610071578063cae9ca511461040a578063d8fbe9941461041d578063dd62ed3e14610430578063f2fde38b1461047657600080fd5b8063a457c2d7146103d1578063a9059cbb146103e4578063c1d34b89146103f757600080fd5b80638456cb59116100d35780638456cb591461036b5780638980f11f146103735780638da5cb5b1461038657806395d89b41146103c957600080fd5b806370a0823114610325578063715018a61461035b5780637d64bcb41461036357600080fd5b8063313ce56711610166578063395093511161014057806339509351146102df5780634000aea0146102f257806340c10f19146103055780635c975abb1461031a57600080fd5b8063313ce567146102755780633177029f146102a6578063355274ea146102b957600080fd5b8063095ea7b3116101a2578063095ea7b31461022a5780631296ee621461023d57806318160ddd1461025057806323b872dd1461026257600080fd5b806301ffc9a7146101c957806305d2035b146101f157806306fdde0314610215575b600080fd5b6101dc6101d7366004611e1d565b610489565b60405190151581526020015b60405180910390f35b6005547501000000000000000000000000000000000000000000900460ff166101dc565b61021d610522565b6040516101e89190611ea5565b6101dc610238366004611ee1565b6105b4565b6101dc61024b366004611ee1565b6105ca565b6002545b6040519081526020016101e8565b6101dc610270366004611f0b565b6105ed565b60405160ff7f00000000000000000000000000000000000000000000000000000000000000001681526020016101e8565b6101dc6102b4366004611ee1565b6106d8565b7f0000000000000000000000000000000000000000000000000000000000000000610254565b6101dc6102ed366004611ee1565b6106f4565b6101dc610300366004612021565b61073d565b610318610313366004611ee1565b6107ec565b005b60055460ff166101dc565b610254610333366004612078565b73ffffffffffffffffffffffffffffffffffffffff1660009081526020819052604090205490565b61031861092d565b6103186109c0565b610318610b5e565b610318610381366004611ee1565b610bed565b600554610100900473ffffffffffffffffffffffffffffffffffffffff1660405173ffffffffffffffffffffffffffffffffffffffff90911681526020016101e8565b61021d610d5f565b6101dc6103df366004611ee1565b610d6e565b6101dc6103f2366004611ee1565b610e3c565b6101dc610405366004612093565b610e49565b6101dc610418366004612021565b610ef7565b6101dc61042b366004611f0b565b610f9b565b61025461043e3660046120fb565b73ffffffffffffffffffffffffffffffffffffffff918216600090815260016020908152604080832093909416825291909152205490565b610318610484366004612078565b610fb8565b60007fffffffff0000000000000000000000000000000000000000000000000000000082167fb0202a1100000000000000000000000000000000000000000000000000000000148061051c57507f01ffc9a7000000000000000000000000000000000000000000000000000000007fffffffff000000000000000000000000000000000000000000000000000000008316145b92915050565b6060600380546105319061212e565b80601f016020809104026020016040519081016040528092919081815260200182805461055d9061212e565b80156105aa5780601f1061057f576101008083540402835291602001916105aa565b820191906000526020600020905b81548152906001019060200180831161058d57829003601f168201915b5050505050905090565b60006105c13384846112ad565b50600192915050565b60006105e683836040518060200160405280600081525061073d565b9392505050565b60006105fa848484611460565b73ffffffffffffffffffffffffffffffffffffffff84166000908152600160209081526040808320338452909152902054828110156106c0576040517f08c379a000000000000000000000000000000000000000000000000000000000815260206004820152602860248201527f45524332303a207472616e7366657220616d6f756e742065786365656473206160448201527f6c6c6f77616e636500000000000000000000000000000000000000000000000060648201526084015b60405180910390fd5b6106cd85338584036112ad565b506001949350505050565b60006105e6838360405180602001604052806000815250610ef7565b33600081815260016020908152604080832073ffffffffffffffffffffffffffffffffffffffff8716845290915281205490916105c1918590610738908690612182565b6112ad565b60006107498484610e3c565b506107563385858561171f565b6107e2576040517f08c379a000000000000000000000000000000000000000000000000000000000815260206004820152602660248201527f455243313336333a205f636865636b416e6443616c6c5472616e73666572207260448201527f657665727473000000000000000000000000000000000000000000000000000060648201526084016106b7565b5060019392505050565b60055473ffffffffffffffffffffffffffffffffffffffff610100909104163314610873576040517f08c379a000000000000000000000000000000000000000000000000000000000815260206004820181905260248201527f4f776e61626c653a2063616c6c6572206973206e6f7420746865206f776e657260448201526064016106b7565b6005547501000000000000000000000000000000000000000000900460ff161561091f576040517f08c379a000000000000000000000000000000000000000000000000000000000815260206004820152602260248201527f45524332304d696e7461626c653a206d696e74696e672069732066696e69736860448201527f656400000000000000000000000000000000000000000000000000000000000060648201526084016106b7565b6109298282611841565b5050565b60055473ffffffffffffffffffffffffffffffffffffffff6101009091041633146109b4576040517f08c379a000000000000000000000000000000000000000000000000000000000815260206004820181905260248201527f4f776e61626c653a2063616c6c6572206973206e6f7420746865206f776e657260448201526064016106b7565b6109be600061197e565b565b60055473ffffffffffffffffffffffffffffffffffffffff610100909104163314610a47576040517f08c379a000000000000000000000000000000000000000000000000000000000815260206004820181905260248201527f4f776e61626c653a2063616c6c6572206973206e6f7420746865206f776e657260448201526064016106b7565b6005547501000000000000000000000000000000000000000000900460ff1615610af3576040517f08c379a000000000000000000000000000000000000000000000000000000000815260206004820152602260248201527f45524332304d696e7461626c653a206d696e74696e672069732066696e69736860448201527f656400000000000000000000000000000000000000000000000000000000000060648201526084016106b7565b600580547fffffffffffffffffffff00ffffffffffffffffffffffffffffffffffffffffff1675010000000000000000000000000000000000000000001790556040517fae5184fba832cb2b1f702aca6117b8d265eaf03ad33eb133f19dde0f5920fa0890600090a1565b60055473ffffffffffffffffffffffffffffffffffffffff610100909104163314610be5576040517f08c379a000000000000000000000000000000000000000000000000000000000815260206004820181905260248201527f4f776e61626c653a2063616c6c6572206973206e6f7420746865206f776e657260448201526064016106b7565b6109be6119fc565b60055473ffffffffffffffffffffffffffffffffffffffff610100909104163314610c74576040517f08c379a000000000000000000000000000000000000000000000000000000000815260206004820181905260248201527f4f776e61626c653a2063616c6c6572206973206e6f7420746865206f776e657260448201526064016106b7565b8173ffffffffffffffffffffffffffffffffffffffff1663a9059cbb610cb560055473ffffffffffffffffffffffffffffffffffffffff6101009091041690565b6040517fffffffff0000000000000000000000000000000000000000000000000000000060e084901b16815273ffffffffffffffffffffffffffffffffffffffff909116600482015260248101849052604401602060405180830381600087803b158015610d2257600080fd5b505af1158015610d36573d6000803e3d6000fd5b505050506040513d601f19601f82011682018060405250810190610d5a91906121c1565b505050565b6060600480546105319061212e565b33600090815260016020908152604080832073ffffffffffffffffffffffffffffffffffffffff8616845290915281205482811015610e2f576040517f08c379a000000000000000000000000000000000000000000000000000000000815260206004820152602560248201527f45524332303a2064656372656173656420616c6c6f77616e63652062656c6f7760448201527f207a65726f00000000000000000000000000000000000000000000000000000060648201526084016106b7565b6107e233858584036112ad565b60006105c1338484611460565b6000610e568585856105ed565b50610e638585858561171f565b6106cd576040517f08c379a000000000000000000000000000000000000000000000000000000000815260206004820152602660248201527f455243313336333a205f636865636b416e6443616c6c5472616e73666572207260448201527f657665727473000000000000000000000000000000000000000000000000000060648201526084016106b7565b949350505050565b6000610f0384846105b4565b50610f0f848484611ae6565b6107e2576040517f08c379a000000000000000000000000000000000000000000000000000000000815260206004820152602560248201527f455243313336333a205f636865636b416e6443616c6c417070726f766520726560448201527f766572747300000000000000000000000000000000000000000000000000000060648201526084016106b7565b6000610eef84848460405180602001604052806000815250610e49565b60055473ffffffffffffffffffffffffffffffffffffffff61010090910416331461103f576040517f08c379a000000000000000000000000000000000000000000000000000000000815260206004820181905260248201527f4f776e61626c653a2063616c6c6572206973206e6f7420746865206f776e657260448201526064016106b7565b73ffffffffffffffffffffffffffffffffffffffff81166110e2576040517f08c379a000000000000000000000000000000000000000000000000000000000815260206004820152602660248201527f4f776e61626c653a206e6577206f776e657220697320746865207a65726f206160448201527f646472657373000000000000000000000000000000000000000000000000000060648201526084016106b7565b6110eb8161197e565b50565b73ffffffffffffffffffffffffffffffffffffffff821661116b576040517f08c379a000000000000000000000000000000000000000000000000000000000815260206004820152601f60248201527f45524332303a206d696e7420746f20746865207a65726f20616464726573730060448201526064016106b7565b61117760008383611c05565b80600260008282546111899190612182565b909155505073ffffffffffffffffffffffffffffffffffffffff8216600090815260208190526040812080548392906111c3908490612182565b909155505060405181815273ffffffffffffffffffffffffffffffffffffffff8316906000907fddf252ad1be2c89b69c2b068fc378daa952ba7f163c4a11628f55a4df523b3ef9060200160405180910390a35050565b60055460ff1615610d5a576040517f08c379a000000000000000000000000000000000000000000000000000000000815260206004820152602a60248201527f45524332305061757361626c653a20746f6b656e207472616e7366657220776860448201527f696c65207061757365640000000000000000000000000000000000000000000060648201526084016106b7565b73ffffffffffffffffffffffffffffffffffffffff831661134f576040517f08c379a0000000000000000000000000000000000000000000000000000000008152602060048201526024808201527f45524332303a20617070726f76652066726f6d20746865207a65726f2061646460448201527f726573730000000000000000000000000000000000000000000000000000000060648201526084016106b7565b73ffffffffffffffffffffffffffffffffffffffff82166113f2576040517f08c379a000000000000000000000000000000000000000000000000000000000815260206004820152602260248201527f45524332303a20617070726f766520746f20746865207a65726f20616464726560448201527f737300000000000000000000000000000000000000000000000000000000000060648201526084016106b7565b73ffffffffffffffffffffffffffffffffffffffff83811660008181526001602090815260408083209487168084529482529182902085905590518481527f8c5be1e5ebec7d5bd14f71427d1e84f3dd0314c0f7b2291e5b200ac8c7c3b925910160405180910390a3505050565b73ffffffffffffffffffffffffffffffffffffffff8316611503576040517f08c379a000000000000000000000000000000000000000000000000000000000815260206004820152602560248201527f45524332303a207472616e736665722066726f6d20746865207a65726f20616460448201527f647265737300000000000000000000000000000000000000000000000000000060648201526084016106b7565b73ffffffffffffffffffffffffffffffffffffffff82166115a6576040517f08c379a000000000000000000000000000000000000000000000000000000000815260206004820152602360248201527f45524332303a207472616e7366657220746f20746865207a65726f206164647260448201527f657373000000000000000000000000000000000000000000000000000000000060648201526084016106b7565b6115b1838383611c05565b73ffffffffffffffffffffffffffffffffffffffff831660009081526020819052604090205481811015611667576040517f08c379a000000000000000000000000000000000000000000000000000000000815260206004820152602660248201527f45524332303a207472616e7366657220616d6f756e742065786365656473206260448201527f616c616e6365000000000000000000000000000000000000000000000000000060648201526084016106b7565b73ffffffffffffffffffffffffffffffffffffffff8085166000908152602081905260408082208585039055918516815290812080548492906116ab908490612182565b925050819055508273ffffffffffffffffffffffffffffffffffffffff168473ffffffffffffffffffffffffffffffffffffffff167fddf252ad1be2c89b69c2b068fc378daa952ba7f163c4a11628f55a4df523b3ef8460405161171191815260200190565b60405180910390a350505050565b600073ffffffffffffffffffffffffffffffffffffffff84163b61174557506000610eef565b6040517f88a7ca5c00000000000000000000000000000000000000000000000000000000815260009073ffffffffffffffffffffffffffffffffffffffff8616906388a7ca5c906117a09033908a90899089906004016121e3565b602060405180830381600087803b1580156117ba57600080fd5b505af11580156117ce573d6000803e3d6000fd5b505050506040513d601f19601f820116820180604052508101906117f2919061222c565b7fffffffff00000000000000000000000000000000000000000000000000000000167f88a7ca5c0000000000000000000000000000000000000000000000000000000014915050949350505050565b60055473ffffffffffffffffffffffffffffffffffffffff6101009091041633146118c8576040517f08c379a000000000000000000000000000000000000000000000000000000000815260206004820181905260248201527f4f776e61626c653a2063616c6c6572206973206e6f7420746865206f776e657260448201526064016106b7565b6005547501000000000000000000000000000000000000000000900460ff1615611974576040517f08c379a000000000000000000000000000000000000000000000000000000000815260206004820152602260248201527f45524332304d696e7461626c653a206d696e74696e672069732066696e69736860448201527f656400000000000000000000000000000000000000000000000000000000000060648201526084016106b7565b6109298282611c10565b6005805473ffffffffffffffffffffffffffffffffffffffff8381166101008181027fffffffffffffffffffffff0000000000000000000000000000000000000000ff85161790945560405193909204169182907f8be0079c531659141344cd1fd0a4f28419497f9722a3daafe3b4186f6b6457e090600090a35050565b60055460ff1615611a69576040517f08c379a000000000000000000000000000000000000000000000000000000000815260206004820152601060248201527f5061757361626c653a207061757365640000000000000000000000000000000060448201526064016106b7565b600580547fffffffffffffffffffffffffffffffffffffffffffffffffffffffffffffff001660011790557f62e78cea01bee320cd4e420270b5ea74000d11b0c9f74754ebdbfc544b05a258611abc3390565b60405173ffffffffffffffffffffffffffffffffffffffff909116815260200160405180910390a1565b600073ffffffffffffffffffffffffffffffffffffffff84163b611b0c575060006105e6565b6040517f7b04a2d000000000000000000000000000000000000000000000000000000000815260009073ffffffffffffffffffffffffffffffffffffffff861690637b04a2d090611b6590339088908890600401612249565b602060405180830381600087803b158015611b7f57600080fd5b505af1158015611b93573d6000803e3d6000fd5b505050506040513d601f19601f82011682018060405250810190611bb7919061222c565b7fffffffff00000000000000000000000000000000000000000000000000000000167f7b04a2d000000000000000000000000000000000000000000000000000000000149150509392505050565b610d5a83838361121a565b60055473ffffffffffffffffffffffffffffffffffffffff610100909104163314611c97576040517f08c379a000000000000000000000000000000000000000000000000000000000815260206004820181905260248201527f4f776e61626c653a2063616c6c6572206973206e6f7420746865206f776e657260448201526064016106b7565b6005547501000000000000000000000000000000000000000000900460ff1615611d43576040517f08c379a000000000000000000000000000000000000000000000000000000000815260206004820152602260248201527f45524332304d696e7461626c653a206d696e74696e672069732066696e69736860448201527f656400000000000000000000000000000000000000000000000000000000000060648201526084016106b7565b61092982827f000000000000000000000000000000000000000000000000000000000000000081611d7360025490565b611d7d9190612182565b1115611de5576040517f08c379a000000000000000000000000000000000000000000000000000000000815260206004820152601960248201527f45524332304361707065643a206361702065786365656465640000000000000060448201526064016106b7565b61092982826110ee565b7fffffffff00000000000000000000000000000000000000000000000000000000811681146110eb57600080fd5b600060208284031215611e2f57600080fd5b81356105e681611def565b6000815180845260005b81811015611e6057602081850181015186830182015201611e44565b81811115611e72576000602083870101525b50601f017fffffffffffffffffffffffffffffffffffffffffffffffffffffffffffffffe0169290920160200192915050565b6020815260006105e66020830184611e3a565b803573ffffffffffffffffffffffffffffffffffffffff81168114611edc57600080fd5b919050565b60008060408385031215611ef457600080fd5b611efd83611eb8565b946020939093013593505050565b600080600060608486031215611f2057600080fd5b611f2984611eb8565b9250611f3760208501611eb8565b9150604084013590509250925092565b7f4e487b7100000000000000000000000000000000000000000000000000000000600052604160045260246000fd5b600082601f830112611f8757600080fd5b813567ffffffffffffffff80821115611fa257611fa2611f47565b604051601f83017fffffffffffffffffffffffffffffffffffffffffffffffffffffffffffffffe0908116603f01168101908282118183101715611fe857611fe8611f47565b8160405283815286602085880101111561200157600080fd5b836020870160208301376000602085830101528094505050505092915050565b60008060006060848603121561203657600080fd5b61203f84611eb8565b925060208401359150604084013567ffffffffffffffff81111561206257600080fd5b61206e86828701611f76565b9150509250925092565b60006020828403121561208a57600080fd5b6105e682611eb8565b600080600080608085870312156120a957600080fd5b6120b285611eb8565b93506120c060208601611eb8565b925060408501359150606085013567ffffffffffffffff8111156120e357600080fd5b6120ef87828801611f76565b91505092959194509250565b6000806040838503121561210e57600080fd5b61211783611eb8565b915061212560208401611eb8565b90509250929050565b600181811c9082168061214257607f821691505b6020821081141561217c577f4e487b7100000000000000000000000000000000000000000000000000000000600052602260045260246000fd5b50919050565b600082198211156121bc577f4e487b7100000000000000000000000000000000000000000000000000000000600052601160045260246000fd5b500190565b6000602082840312156121d357600080fd5b815180151581146105e657600080fd5b600073ffffffffffffffffffffffffffffffffffffffff8087168352808616602084015250836040830152608060608301526122226080830184611e3a565b9695505050505050565b60006020828403121561223e57600080fd5b81516105e681611def565b73ffffffffffffffffffffffffffffffffffffffff8416815282602082015260606040820152600061227e6060830184611e3a565b9594505050505056fea264697066735822122025dbe7f7a6396a7990320b86604639e6ac17be3716ba55ab880502f77d7b8e1864736f6c63430008090033",
  "linkReferences": {},
  "deployedLinkReferences": {}
}