{
  "_format": "hh-sol-artifact-1",
  "contractName": "T7",
  "sourceName": "contracts/T7.sol",
  "abi": [
    {
      "inputs": [
        {
          "internalType": "string",
          "name": "name",
          "type": "string"
        },
        {
          "internalType": "string",
          "name": "symbol",
          "type": "string"
        },
        {
          "internalType": "uint8",
          "name": "_decimals",
          "type": "uint8"
        },
        {
          "internalType": "uint256",
          "name": "initialBalance",
          "type": "uint256"
        },
        {
          "internalType": "address payable",
          "name": "feeReceiver",
          "type": "address"
        }
      ],
      "stateMutability": "payable",
      "type": "constructor"
    },
    {
      "anonymous": false,
      "inputs": [
        {
          "indexed": true,
          "internalType": "address",
          "name": "owner",
          "type": "address"
        },
        {
          "indexed": true,
          "internalType": "address",
          "name": "spender",
          "type": "address"
        },
        {
          "indexed": false,
          "internalType": "uint256",
          "name": "value",
          "type": "uint256"
        }
      ],
      "name": "Approval",
      "type": "event"
    },
    {
      "anonymous": false,
      "inputs": [],
      "name": "MintFinished",
      "type": "event"
    },
    {
      "anonymous": false,
      "inputs": [
        {
          "indexed": true,
          "internalType": "address",
          "name": "previousOwner",
          "type": "address"
        },
        {
          "indexed": true,
          "internalType": "address",
          "name": "newOwner",
          "type": "address"
        }
      ],
      "name": "OwnershipTransferred",
      "type": "event"
    },
    {
      "anonymous": false,
      "inputs": [
        {
          "indexed": true,
          "internalType": "address",
          "name": "from",
          "type": "address"
        },
        {
          "indexed": true,
          "internalType": "address",
          "name": "to",
          "type": "address"
        },
        {
          "indexed": false,
          "internalType": "uint256",
          "name": "value",
          "type": "uint256"
        }
      ],
      "name": "Transfer",
      "type": "event"
    },
    {
      "inputs": [
        {
          "internalType": "address",
          "name": "owner",
          "type": "address"
        },
        {
          "internalType": "address",
          "name": "spender",
          "type": "address"
        }
      ],
      "name": "allowance",
      "outputs": [
        {
          "internalType": "uint256",
          "name": "",
          "type": "uint256"
        }
      ],
      "stateMutability": "view",
      "type": "function"
    },
    {
      "inputs": [
        {
          "internalType": "address",
          "name": "spender",
          "type": "address"
        },
        {
          "internalType": "uint256",
          "name": "amount",
          "type": "uint256"
        }
      ],
      "name": "approve",
      "outputs": [
        {
          "internalType": "bool",
          "name": "",
          "type": "bool"
        }
      ],
      "stateMutability": "nonpayable",
      "type": "function"
    },
    {
      "inputs": [
        {
          "internalType": "address",
          "name": "spender",
          "type": "address"
        },
        {
          "internalType": "uint256",
          "name": "amount",
          "type": "uint256"
        }
      ],
      "name": "approveAndCall",
      "outputs": [
        {
          "internalType": "bool",
          "name": "",
          "type": "bool"
        }
      ],
      "stateMutability": "nonpayable",
      "type": "function"
    },
    {
      "inputs": [
        {
          "internalType": "address",
          "name": "spender",
          "type": "address"
        },
        {
          "internalType": "uint256",
          "name": "amount",
          "type": "uint256"
        },
        {
          "internalType": "bytes",
          "name": "data",
          "type": "bytes"
        }
      ],
      "name": "approveAndCall",
      "outputs": [
        {
          "internalType": "bool",
          "name": "",
          "type": "bool"
        }
      ],
      "stateMutability": "nonpayable",
      "type": "function"
    },
    {
      "inputs": [
        {
          "internalType": "address",
          "name": "account",
          "type": "address"
        }
      ],
      "name": "balanceOf",
      "outputs": [
        {
          "internalType": "uint256",
          "name": "",
          "type": "uint256"
        }
      ],
      "stateMutability": "view",
      "type": "function"
    },
    {
      "inputs": [
        {
          "internalType": "uint256",
          "name": "amount",
          "type": "uint256"
        }
      ],
      "name": "burn",
      "outputs": [],
      "stateMutability": "nonpayable",
      "type": "function"
    },
    {
      "inputs": [
        {
          "internalType": "address",
          "name": "account",
          "type": "address"
        },
        {
          "internalType": "uint256",
          "name": "amount",
          "type": "uint256"
        }
      ],
      "name": "burnFrom",
      "outputs": [],
      "stateMutability": "nonpayable",
      "type": "function"
    },
    {
      "inputs": [],
      "name": "decimals",
      "outputs": [
        {
          "internalType": "uint8",
          "name": "",
          "type": "uint8"
        }
      ],
      "stateMutability": "view",
      "type": "function"
    },
    {
      "inputs": [
        {
          "internalType": "address",
          "name": "spender",
          "type": "address"
        },
        {
          "internalType": "uint256",
          "name": "subtractedValue",
          "type": "uint256"
        }
      ],
      "name": "decreaseAllowance",
      "outputs": [
        {
          "internalType": "bool",
          "name": "",
          "type": "bool"
        }
      ],
      "stateMutability": "nonpayable",
      "type": "function"
    },
    {
      "inputs": [],
      "name": "finishMinting",
      "outputs": [],
      "stateMutability": "nonpayable",
      "type": "function"
    },
    {
      "inputs": [
        {
          "internalType": "address",
          "name": "spender",
          "type": "address"
        },
        {
          "internalType": "uint256",
          "name": "addedValue",
          "type": "uint256"
        }
      ],
      "name": "increaseAllowance",
      "outputs": [
        {
          "internalType": "bool",
          "name": "",
          "type": "bool"
        }
      ],
      "stateMutability": "nonpayable",
      "type": "function"
    },
    {
      "inputs": [],
      "name": "mintingFinished",
      "outputs": [
        {
          "internalType": "bool",
          "name": "",
          "type": "bool"
        }
      ],
      "stateMutability": "view",
      "type": "function"
    },
    {
      "inputs": [],
      "name": "name",
      "outputs": [
        {
          "internalType": "string",
          "name": "",
          "type": "string"
        }
      ],
      "stateMutability": "view",
      "type": "function"
    },
    {
      "inputs": [],
      "name": "owner",
      "outputs": [
        {
          "internalType": "address",
          "name": "",
          "type": "address"
        }
      ],
      "stateMutability": "view",
      "type": "function"
    },
    {
      "inputs": [
        {
          "internalType": "address",
          "name": "tokenAddress",
          "type": "address"
        },
        {
          "internalType": "uint256",
          "name": "tokenAmount",
          "type": "uint256"
        }
      ],
      "name": "recoverERC20",
      "outputs": [],
      "stateMutability": "nonpayable",
      "type": "function"
    },
    {
      "inputs": [],
      "name": "renounceOwnership",
      "outputs": [],
      "stateMutability": "nonpayable",
      "type": "function"
    },
    {
      "inputs": [
        {
          "internalType": "bytes4",
          "name": "interfaceId",
          "type": "bytes4"
        }
      ],
      "name": "supportsInterface",
      "outputs": [
        {
          "internalType": "bool",
          "name": "",
          "type": "bool"
        }
      ],
      "stateMutability": "view",
      "type": "function"
    },
    {
      "inputs": [],
      "name": "symbol",
      "outputs": [
        {
          "internalType": "string",
          "name": "",
          "type": "string"
        }
      ],
      "stateMutability": "view",
      "type": "function"
    },
    {
      "inputs": [],
      "name": "totalSupply",
      "outputs": [
        {
          "internalType": "uint256",
          "name": "",
          "type": "uint256"
        }
      ],
      "stateMutability": "view",
      "type": "function"
    },
    {
      "inputs": [
        {
          "internalType": "address",
          "name": "recipient",
          "type": "address"
        },
        {
          "internalType": "uint256",
          "name": "amount",
          "type": "uint256"
        }
      ],
      "name": "transfer",
      "outputs": [
        {
          "internalType": "bool",
          "name": "",
          "type": "bool"
        }
      ],
      "stateMutability": "nonpayable",
      "type": "function"
    },
    {
      "inputs": [
        {
          "internalType": "address",
          "name": "recipient",
          "type": "address"
        },
        {
          "internalType": "uint256",
          "name": "amount",
          "type": "uint256"
        }
      ],
      "name": "transferAndCall",
      "outputs": [
        {
          "internalType": "bool",
          "name": "",
          "type": "bool"
        }
      ],
      "stateMutability": "nonpayable",
      "type": "function"
    },
    {
      "inputs": [
        {
          "internalType": "address",
          "name": "recipient",
          "type": "address"
        },
        {
          "internalType": "uint256",
          "name": "amount",
          "type": "uint256"
        },
        {
          "internalType": "bytes",
          "name": "data",
          "type": "bytes"
        }
      ],
      "name": "transferAndCall",
      "outputs": [
        {
          "internalType": "bool",
          "name": "",
          "type": "bool"
        }
      ],
      "stateMutability": "nonpayable",
      "type": "function"
    },
    {
      "inputs": [
        {
          "internalType": "address",
          "name": "sender",
          "type": "address"
        },
        {
          "internalType": "address",
          "name": "recipient",
          "type": "address"
        },
        {
          "internalType": "uint256",
          "name": "amount",
          "type": "uint256"
        }
      ],
      "name": "transferFrom",
      "outputs": [
        {
          "internalType": "bool",
          "name": "",
          "type": "bool"
        }
      ],
      "stateMutability": "nonpayable",
      "type": "function"
    },
    {
      "inputs": [
        {
          "internalType": "address",
          "name": "sender",
          "type": "address"
        },
        {
          "internalType": "address",
          "name": "recipient",
          "type": "address"
        },
        {
          "internalType": "uint256",
          "name": "amount",
          "type": "uint256"
        },
        {
          "internalType": "bytes",
          "name": "data",
          "type": "bytes"
        }
      ],
      "name": "transferFromAndCall",
      "outputs": [
        {
          "internalType": "bool",
          "name": "",
          "type": "bool"
        }
      ],
      "stateMutability": "nonpayable",
      "type": "function"
    },
    {
      "inputs": [
        {
          "internalType": "address",
          "name": "sender",
          "type": "address"
        },
        {
          "internalType": "address",
          "name": "recipient",
          "type": "address"
        },
        {
          "internalType": "uint256",
          "name": "amount",
          "type": "uint256"
        }
      ],
      "name": "transferFromAndCall",
      "outputs": [
        {
          "internalType": "bool",
          "name": "",
          "type": "bool"
        }
      ],
      "stateMutability": "nonpayable",
      "type": "function"
    },
    {
      "inputs": [
        {
          "internalType": "address",
          "name": "newOwner",
          "type": "address"
        }
      ],
      "name": "transferOwnership",
      "outputs": [],
      "stateMutability": "nonpayable",
      "type": "function"
    }
  ],
  "bytecode": "0x60a060408190526005805460ff60a01b19169055620023603881900390819083398101604081905262000032916200039a565b8484848484848481600390805190602001906200005192919062000227565b5080516200006790600490602084019062000227565b505050620000846200007e620000e960201b60201c565b620000ed565b60ff8316608052620000a233836200013f60201b62000f641760201c565b6040516001600160a01b038216903480156108fc02916000818181858888f19350505050158015620000d8573d6000803e3d6000fd5b5050505050505050505050620004ae565b3390565b600580546001600160a01b038381166001600160a01b0319831681179093556040519116919082907f8be0079c531659141344cd1fd0a4f28419497f9722a3daafe3b4186f6b6457e090600090a35050565b6001600160a01b0382166200019a5760405162461bcd60e51b815260206004820152601f60248201527f45524332303a206d696e7420746f20746865207a65726f206164647265737300604482015260640160405180910390fd5b8060026000828254620001ae91906200044a565b90915550506001600160a01b03821660009081526020819052604081208054839290620001dd9084906200044a565b90915550506040518181526001600160a01b038316906000907fddf252ad1be2c89b69c2b068fc378daa952ba7f163c4a11628f55a4df523b3ef9060200160405180910390a35050565b828054620002359062000471565b90600052602060002090601f016020900481019282620002595760008555620002a4565b82601f106200027457805160ff1916838001178555620002a4565b82800160010185558215620002a4579182015b82811115620002a457825182559160200191906001019062000287565b50620002b2929150620002b6565b5090565b5b80821115620002b25760008155600101620002b7565b634e487b7160e01b600052604160045260246000fd5b600082601f830112620002f557600080fd5b81516001600160401b0380821115620003125762000312620002cd565b604051601f8301601f19908116603f011681019082821181831017156200033d576200033d620002cd565b816040528381526020925086838588010111156200035a57600080fd5b600091505b838210156200037e57858201830151818301840152908201906200035f565b83821115620003905760008385830101525b9695505050505050565b600080600080600060a08688031215620003b357600080fd5b85516001600160401b0380821115620003cb57600080fd5b620003d989838a01620002e3565b96506020880151915080821115620003f057600080fd5b50620003ff88828901620002e3565b945050604086015160ff811681146200041757600080fd5b6060870151608088015191945092506001600160a01b03811681146200043c57600080fd5b809150509295509295909350565b600082198211156200046c57634e487b7160e01b600052601160045260246000fd5b500190565b600181811c908216806200048657607f821691505b60208210811415620004a857634e487b7160e01b600052602260045260246000fd5b50919050565b608051611e96620004ca60003960006102650152611e966000f3fe608060405234801561001057600080fd5b50600436106101ae5760003560e01c8063715018a6116100ee578063a457c2d711610097578063cae9ca5111610071578063cae9ca51146103b2578063d8fbe994146103c5578063dd62ed3e146103d8578063f2fde38b1461041e57600080fd5b8063a457c2d714610379578063a9059cbb1461038c578063c1d34b891461039f57600080fd5b80638980f11f116100c85780638980f11f146103365780638da5cb5b1461034957806395d89b411461037157600080fd5b8063715018a61461031357806379cc67901461031b5780637d64bcb41461032e57600080fd5b806323b872dd1161015b578063395093511161013557806339509351146102a25780634000aea0146102b557806342966c68146102c857806370a08231146102dd57600080fd5b806323b872dd1461024b578063313ce5671461025e5780633177029f1461028f57600080fd5b8063095ea7b31161018c578063095ea7b3146102135780631296ee621461022657806318160ddd1461023957600080fd5b806301ffc9a7146101b357806305d2035b146101db57806306fdde03146101fe575b600080fd5b6101c66101c13660046119be565b610431565b60405190151581526020015b60405180910390f35b60055474010000000000000000000000000000000000000000900460ff166101c6565b6102066104ca565b6040516101d29190611a46565b6101c6610221366004611a82565b61055c565b6101c6610234366004611a82565b610572565b6002545b6040519081526020016101d2565b6101c6610259366004611aac565b610595565b60405160ff7f00000000000000000000000000000000000000000000000000000000000000001681526020016101d2565b6101c661029d366004611a82565b610680565b6101c66102b0366004611a82565b61069c565b6101c66102c3366004611bc2565b6106e5565b6102db6102d6366004611c19565b610794565b005b61023d6102eb366004611c32565b73ffffffffffffffffffffffffffffffffffffffff1660009081526020819052604090205490565b6102db6107a1565b6102db610329366004611a82565b61082e565b6102db6108e7565b6102db610344366004611a82565b610a7d565b60055460405173ffffffffffffffffffffffffffffffffffffffff90911681526020016101d2565b610206610bde565b6101c6610387366004611a82565b610bed565b6101c661039a366004611a82565b610cbb565b6101c66103ad366004611c4d565b610cc8565b6101c66103c0366004611bc2565b610d76565b6101c66103d3366004611aac565b610e1a565b61023d6103e6366004611cb5565b73ffffffffffffffffffffffffffffffffffffffff918216600090815260016020908152604080832093909416825291909152205490565b6102db61042c366004611c32565b610e37565b60007fffffffff0000000000000000000000000000000000000000000000000000000082167fb0202a110000000000000000000000000000000000000000000000000000000014806104c457507f01ffc9a7000000000000000000000000000000000000000000000000000000007fffffffff000000000000000000000000000000000000000000000000000000008316145b92915050565b6060600380546104d990611ce8565b80601f016020809104026020016040519081016040528092919081815260200182805461050590611ce8565b80156105525780601f1061052757610100808354040283529160200191610552565b820191906000526020600020905b81548152906001019060200180831161053557829003601f168201915b5050505050905090565b6000610569338484611084565b50600192915050565b600061058e8383604051806020016040528060008152506106e5565b9392505050565b60006105a2848484611237565b73ffffffffffffffffffffffffffffffffffffffff8416600090815260016020908152604080832033845290915290205482811015610668576040517f08c379a000000000000000000000000000000000000000000000000000000000815260206004820152602860248201527f45524332303a207472616e7366657220616d6f756e742065786365656473206160448201527f6c6c6f77616e636500000000000000000000000000000000000000000000000060648201526084015b60405180910390fd5b6106758533858403611084565b506001949350505050565b600061058e838360405180602001604052806000815250610d76565b33600081815260016020908152604080832073ffffffffffffffffffffffffffffffffffffffff8716845290915281205490916105699185906106e0908690611d6b565b611084565b60006106f18484610cbb565b506106fe338585856114eb565b61078a576040517f08c379a000000000000000000000000000000000000000000000000000000000815260206004820152602660248201527f455243313336333a205f636865636b416e6443616c6c5472616e73666572207260448201527f6576657274730000000000000000000000000000000000000000000000000000606482015260840161065f565b5060019392505050565b61079e338261160d565b50565b60055473ffffffffffffffffffffffffffffffffffffffff163314610822576040517f08c379a000000000000000000000000000000000000000000000000000000000815260206004820181905260248201527f4f776e61626c653a2063616c6c6572206973206e6f7420746865206f776e6572604482015260640161065f565b61082c60006117fa565b565b600061083a83336103e6565b9050818110156108cb576040517f08c379a0000000000000000000000000000000000000000000000000000000008152602060048201526024808201527f45524332303a206275726e20616d6f756e74206578636565647320616c6c6f7760448201527f616e636500000000000000000000000000000000000000000000000000000000606482015260840161065f565b6108d88333848403611084565b6108e2838361160d565b505050565b60055473ffffffffffffffffffffffffffffffffffffffff163314610968576040517f08c379a000000000000000000000000000000000000000000000000000000000815260206004820181905260248201527f4f776e61626c653a2063616c6c6572206973206e6f7420746865206f776e6572604482015260640161065f565b60055474010000000000000000000000000000000000000000900460ff1615610a13576040517f08c379a000000000000000000000000000000000000000000000000000000000815260206004820152602260248201527f45524332304d696e7461626c653a206d696e74696e672069732066696e69736860448201527f6564000000000000000000000000000000000000000000000000000000000000606482015260840161065f565b600580547fffffffffffffffffffffff00ffffffffffffffffffffffffffffffffffffffff16740100000000000000000000000000000000000000001790556040517fae5184fba832cb2b1f702aca6117b8d265eaf03ad33eb133f19dde0f5920fa0890600090a1565b60055473ffffffffffffffffffffffffffffffffffffffff163314610afe576040517f08c379a000000000000000000000000000000000000000000000000000000000815260206004820181905260248201527f4f776e61626c653a2063616c6c6572206973206e6f7420746865206f776e6572604482015260640161065f565b8173ffffffffffffffffffffffffffffffffffffffff1663a9059cbb610b3960055473ffffffffffffffffffffffffffffffffffffffff1690565b6040517fffffffff0000000000000000000000000000000000000000000000000000000060e084901b16815273ffffffffffffffffffffffffffffffffffffffff909116600482015260248101849052604401602060405180830381600087803b158015610ba657600080fd5b505af1158015610bba573d6000803e3d6000fd5b505050506040513d601f19601f820116820180604052508101906108e29190611d83565b6060600480546104d990611ce8565b33600090815260016020908152604080832073ffffffffffffffffffffffffffffffffffffffff8616845290915281205482811015610cae576040517f08c379a000000000000000000000000000000000000000000000000000000000815260206004820152602560248201527f45524332303a2064656372656173656420616c6c6f77616e63652062656c6f7760448201527f207a65726f000000000000000000000000000000000000000000000000000000606482015260840161065f565b61078a3385858403611084565b6000610569338484611237565b6000610cd5858585610595565b50610ce2858585856114eb565b610675576040517f08c379a000000000000000000000000000000000000000000000000000000000815260206004820152602660248201527f455243313336333a205f636865636b416e6443616c6c5472616e73666572207260448201527f6576657274730000000000000000000000000000000000000000000000000000606482015260840161065f565b949350505050565b6000610d82848461055c565b50610d8e848484611871565b61078a576040517f08c379a000000000000000000000000000000000000000000000000000000000815260206004820152602560248201527f455243313336333a205f636865636b416e6443616c6c417070726f766520726560448201527f7665727473000000000000000000000000000000000000000000000000000000606482015260840161065f565b6000610d6e84848460405180602001604052806000815250610cc8565b60055473ffffffffffffffffffffffffffffffffffffffff163314610eb8576040517f08c379a000000000000000000000000000000000000000000000000000000000815260206004820181905260248201527f4f776e61626c653a2063616c6c6572206973206e6f7420746865206f776e6572604482015260640161065f565b73ffffffffffffffffffffffffffffffffffffffff8116610f5b576040517f08c379a000000000000000000000000000000000000000000000000000000000815260206004820152602660248201527f4f776e61626c653a206e6577206f776e657220697320746865207a65726f206160448201527f6464726573730000000000000000000000000000000000000000000000000000606482015260840161065f565b61079e816117fa565b73ffffffffffffffffffffffffffffffffffffffff8216610fe1576040517f08c379a000000000000000000000000000000000000000000000000000000000815260206004820152601f60248201527f45524332303a206d696e7420746f20746865207a65726f206164647265737300604482015260640161065f565b8060026000828254610ff39190611d6b565b909155505073ffffffffffffffffffffffffffffffffffffffff82166000908152602081905260408120805483929061102d908490611d6b565b909155505060405181815273ffffffffffffffffffffffffffffffffffffffff8316906000907fddf252ad1be2c89b69c2b068fc378daa952ba7f163c4a11628f55a4df523b3ef9060200160405180910390a35050565b73ffffffffffffffffffffffffffffffffffffffff8316611126576040517f08c379a0000000000000000000000000000000000000000000000000000000008152602060048201526024808201527f45524332303a20617070726f76652066726f6d20746865207a65726f2061646460448201527f7265737300000000000000000000000000000000000000000000000000000000606482015260840161065f565b73ffffffffffffffffffffffffffffffffffffffff82166111c9576040517f08c379a000000000000000000000000000000000000000000000000000000000815260206004820152602260248201527f45524332303a20617070726f766520746f20746865207a65726f20616464726560448201527f7373000000000000000000000000000000000000000000000000000000000000606482015260840161065f565b73ffffffffffffffffffffffffffffffffffffffff83811660008181526001602090815260408083209487168084529482529182902085905590518481527f8c5be1e5ebec7d5bd14f71427d1e84f3dd0314c0f7b2291e5b200ac8c7c3b925910160405180910390a3505050565b73ffffffffffffffffffffffffffffffffffffffff83166112da576040517f08c379a000000000000000000000000000000000000000000000000000000000815260206004820152602560248201527f45524332303a207472616e736665722066726f6d20746865207a65726f20616460448201527f6472657373000000000000000000000000000000000000000000000000000000606482015260840161065f565b73ffffffffffffffffffffffffffffffffffffffff821661137d576040517f08c379a000000000000000000000000000000000000000000000000000000000815260206004820152602360248201527f45524332303a207472616e7366657220746f20746865207a65726f206164647260448201527f6573730000000000000000000000000000000000000000000000000000000000606482015260840161065f565b73ffffffffffffffffffffffffffffffffffffffff831660009081526020819052604090205481811015611433576040517f08c379a000000000000000000000000000000000000000000000000000000000815260206004820152602660248201527f45524332303a207472616e7366657220616d6f756e742065786365656473206260448201527f616c616e63650000000000000000000000000000000000000000000000000000606482015260840161065f565b73ffffffffffffffffffffffffffffffffffffffff808516600090815260208190526040808220858503905591851681529081208054849290611477908490611d6b565b925050819055508273ffffffffffffffffffffffffffffffffffffffff168473ffffffffffffffffffffffffffffffffffffffff167fddf252ad1be2c89b69c2b068fc378daa952ba7f163c4a11628f55a4df523b3ef846040516114dd91815260200190565b60405180910390a350505050565b600073ffffffffffffffffffffffffffffffffffffffff84163b61151157506000610d6e565b6040517f88a7ca5c00000000000000000000000000000000000000000000000000000000815260009073ffffffffffffffffffffffffffffffffffffffff8616906388a7ca5c9061156c9033908a9089908990600401611da5565b602060405180830381600087803b15801561158657600080fd5b505af115801561159a573d6000803e3d6000fd5b505050506040513d601f19601f820116820180604052508101906115be9190611dee565b7fffffffff00000000000000000000000000000000000000000000000000000000167f88a7ca5c0000000000000000000000000000000000000000000000000000000014915050949350505050565b73ffffffffffffffffffffffffffffffffffffffff82166116b0576040517f08c379a000000000000000000000000000000000000000000000000000000000815260206004820152602160248201527f45524332303a206275726e2066726f6d20746865207a65726f2061646472657360448201527f7300000000000000000000000000000000000000000000000000000000000000606482015260840161065f565b73ffffffffffffffffffffffffffffffffffffffff821660009081526020819052604090205481811015611766576040517f08c379a000000000000000000000000000000000000000000000000000000000815260206004820152602260248201527f45524332303a206275726e20616d6f756e7420657863656564732062616c616e60448201527f6365000000000000000000000000000000000000000000000000000000000000606482015260840161065f565b73ffffffffffffffffffffffffffffffffffffffff831660009081526020819052604081208383039055600280548492906117a2908490611e0b565b909155505060405182815260009073ffffffffffffffffffffffffffffffffffffffff8516907fddf252ad1be2c89b69c2b068fc378daa952ba7f163c4a11628f55a4df523b3ef9060200160405180910390a3505050565b6005805473ffffffffffffffffffffffffffffffffffffffff8381167fffffffffffffffffffffffff0000000000000000000000000000000000000000831681179093556040519116919082907f8be0079c531659141344cd1fd0a4f28419497f9722a3daafe3b4186f6b6457e090600090a35050565b600073ffffffffffffffffffffffffffffffffffffffff84163b6118975750600061058e565b6040517f7b04a2d000000000000000000000000000000000000000000000000000000000815260009073ffffffffffffffffffffffffffffffffffffffff861690637b04a2d0906118f090339088908890600401611e22565b602060405180830381600087803b15801561190a57600080fd5b505af115801561191e573d6000803e3d6000fd5b505050506040513d601f19601f820116820180604052508101906119429190611dee565b7fffffffff00000000000000000000000000000000000000000000000000000000167f7b04a2d000000000000000000000000000000000000000000000000000000000149150509392505050565b7fffffffff000000000000000000000000000000000000000000000000000000008116811461079e57600080fd5b6000602082840312156119d057600080fd5b813561058e81611990565b6000815180845260005b81811015611a01576020818501810151868301820152016119e5565b81811115611a13576000602083870101525b50601f017fffffffffffffffffffffffffffffffffffffffffffffffffffffffffffffffe0169290920160200192915050565b60208152600061058e60208301846119db565b803573ffffffffffffffffffffffffffffffffffffffff81168114611a7d57600080fd5b919050565b60008060408385031215611a9557600080fd5b611a9e83611a59565b946020939093013593505050565b600080600060608486031215611ac157600080fd5b611aca84611a59565b9250611ad860208501611a59565b9150604084013590509250925092565b7f4e487b7100000000000000000000000000000000000000000000000000000000600052604160045260246000fd5b600082601f830112611b2857600080fd5b813567ffffffffffffffff80821115611b4357611b43611ae8565b604051601f83017fffffffffffffffffffffffffffffffffffffffffffffffffffffffffffffffe0908116603f01168101908282118183101715611b8957611b89611ae8565b81604052838152866020858801011115611ba257600080fd5b836020870160208301376000602085830101528094505050505092915050565b600080600060608486031215611bd757600080fd5b611be084611a59565b925060208401359150604084013567ffffffffffffffff811115611c0357600080fd5b611c0f86828701611b17565b9150509250925092565b600060208284031215611c2b57600080fd5b5035919050565b600060208284031215611c4457600080fd5b61058e82611a59565b60008060008060808587031215611c6357600080fd5b611c6c85611a59565b9350611c7a60208601611a59565b925060408501359150606085013567ffffffffffffffff811115611c9d57600080fd5b611ca987828801611b17565b91505092959194509250565b60008060408385031215611cc857600080fd5b611cd183611a59565b9150611cdf60208401611a59565b90509250929050565b600181811c90821680611cfc57607f821691505b60208210811415611d36577f4e487b7100000000000000000000000000000000000000000000000000000000600052602260045260246000fd5b50919050565b7f4e487b7100000000000000000000000000000000000000000000000000000000600052601160045260246000fd5b60008219821115611d7e57611d7e611d3c565b500190565b600060208284031215611d9557600080fd5b8151801515811461058e57600080fd5b600073ffffffffffffffffffffffffffffffffffffffff808716835280861660208401525083604083015260806060830152611de460808301846119db565b9695505050505050565b600060208284031215611e0057600080fd5b815161058e81611990565b600082821015611e1d57611e1d611d3c565b500390565b73ffffffffffffffffffffffffffffffffffffffff84168152826020820152606060408201526000611e5760608301846119db565b9594505050505056fea264697066735822122080b7259585bea7dce1615a86c0f49828af7d7dc5a692374fedab0f6cf84217f164736f6c63430008090033",
  "linkReferences": {},
  "deployedLinkReferences": {}
}