{
  "_format": "hh-sol-artifact-1",
  "contractName": "T8",
  "sourceName": "contracts/T8.sol",
  "abi": [
    {
      "inputs": [
        {
          "internalType": "string",
          "name": "name",
          "type": "string"
        },
        {
          "internalType": "string",
          "name": "symbol",
          "type": "string"
        },
        {
          "internalType": "uint8",
          "name": "_decimals",
          "type": "uint8"
        },
        {
          "internalType": "uint256",
          "name": "initialBalance",
          "type": "uint256"
        },
        {
          "internalType": "address payable",
          "name": "feeReceiver",
          "type": "address"
        }
      ],
      "stateMutability": "payable",
      "type": "constructor"
    },
    {
      "anonymous": false,
      "inputs": [
        {
          "indexed": true,
          "internalType": "address",
          "name": "owner",
          "type": "address"
        },
        {
          "indexed": true,
          "internalType": "address",
          "name": "spender",
          "type": "address"
        },
        {
          "indexed": false,
          "internalType": "uint256",
          "name": "value",
          "type": "uint256"
        }
      ],
      "name": "Approval",
      "type": "event"
    },
    {
      "anonymous": false,
      "inputs": [],
      "name": "MintFinished",
      "type": "event"
    },
    {
      "anonymous": false,
      "inputs": [
        {
          "indexed": true,
          "internalType": "address",
          "name": "previousOwner",
          "type": "address"
        },
        {
          "indexed": true,
          "internalType": "address",
          "name": "newOwner",
          "type": "address"
        }
      ],
      "name": "OwnershipTransferred",
      "type": "event"
    },
    {
      "anonymous": false,
      "inputs": [
        {
          "indexed": false,
          "internalType": "address",
          "name": "account",
          "type": "address"
        }
      ],
      "name": "Paused",
      "type": "event"
    },
    {
      "anonymous": false,
      "inputs": [
        {
          "indexed": true,
          "internalType": "address",
          "name": "from",
          "type": "address"
        },
        {
          "indexed": true,
          "internalType": "address",
          "name": "to",
          "type": "address"
        },
        {
          "indexed": false,
          "internalType": "uint256",
          "name": "value",
          "type": "uint256"
        }
      ],
      "name": "Transfer",
      "type": "event"
    },
    {
      "anonymous": false,
      "inputs": [
        {
          "indexed": false,
          "internalType": "address",
          "name": "account",
          "type": "address"
        }
      ],
      "name": "Unpaused",
      "type": "event"
    },
    {
      "inputs": [
        {
          "internalType": "address",
          "name": "owner",
          "type": "address"
        },
        {
          "internalType": "address",
          "name": "spender",
          "type": "address"
        }
      ],
      "name": "allowance",
      "outputs": [
        {
          "internalType": "uint256",
          "name": "",
          "type": "uint256"
        }
      ],
      "stateMutability": "view",
      "type": "function"
    },
    {
      "inputs": [
        {
          "internalType": "address",
          "name": "spender",
          "type": "address"
        },
        {
          "internalType": "uint256",
          "name": "amount",
          "type": "uint256"
        }
      ],
      "name": "approve",
      "outputs": [
        {
          "internalType": "bool",
          "name": "",
          "type": "bool"
        }
      ],
      "stateMutability": "nonpayable",
      "type": "function"
    },
    {
      "inputs": [
        {
          "internalType": "address",
          "name": "spender",
          "type": "address"
        },
        {
          "internalType": "uint256",
          "name": "amount",
          "type": "uint256"
        }
      ],
      "name": "approveAndCall",
      "outputs": [
        {
          "internalType": "bool",
          "name": "",
          "type": "bool"
        }
      ],
      "stateMutability": "nonpayable",
      "type": "function"
    },
    {
      "inputs": [
        {
          "internalType": "address",
          "name": "spender",
          "type": "address"
        },
        {
          "internalType": "uint256",
          "name": "amount",
          "type": "uint256"
        },
        {
          "internalType": "bytes",
          "name": "data",
          "type": "bytes"
        }
      ],
      "name": "approveAndCall",
      "outputs": [
        {
          "internalType": "bool",
          "name": "",
          "type": "bool"
        }
      ],
      "stateMutability": "nonpayable",
      "type": "function"
    },
    {
      "inputs": [
        {
          "internalType": "address",
          "name": "account",
          "type": "address"
        }
      ],
      "name": "balanceOf",
      "outputs": [
        {
          "internalType": "uint256",
          "name": "",
          "type": "uint256"
        }
      ],
      "stateMutability": "view",
      "type": "function"
    },
    {
      "inputs": [
        {
          "internalType": "uint256",
          "name": "amount",
          "type": "uint256"
        }
      ],
      "name": "burn",
      "outputs": [],
      "stateMutability": "nonpayable",
      "type": "function"
    },
    {
      "inputs": [
        {
          "internalType": "address",
          "name": "account",
          "type": "address"
        },
        {
          "internalType": "uint256",
          "name": "amount",
          "type": "uint256"
        }
      ],
      "name": "burnFrom",
      "outputs": [],
      "stateMutability": "nonpayable",
      "type": "function"
    },
    {
      "inputs": [],
      "name": "decimals",
      "outputs": [
        {
          "internalType": "uint8",
          "name": "",
          "type": "uint8"
        }
      ],
      "stateMutability": "view",
      "type": "function"
    },
    {
      "inputs": [
        {
          "internalType": "address",
          "name": "spender",
          "type": "address"
        },
        {
          "internalType": "uint256",
          "name": "subtractedValue",
          "type": "uint256"
        }
      ],
      "name": "decreaseAllowance",
      "outputs": [
        {
          "internalType": "bool",
          "name": "",
          "type": "bool"
        }
      ],
      "stateMutability": "nonpayable",
      "type": "function"
    },
    {
      "inputs": [],
      "name": "finishMinting",
      "outputs": [],
      "stateMutability": "nonpayable",
      "type": "function"
    },
    {
      "inputs": [
        {
          "internalType": "address",
          "name": "spender",
          "type": "address"
        },
        {
          "internalType": "uint256",
          "name": "addedValue",
          "type": "uint256"
        }
      ],
      "name": "increaseAllowance",
      "outputs": [
        {
          "internalType": "bool",
          "name": "",
          "type": "bool"
        }
      ],
      "stateMutability": "nonpayable",
      "type": "function"
    },
    {
      "inputs": [],
      "name": "mintingFinished",
      "outputs": [
        {
          "internalType": "bool",
          "name": "",
          "type": "bool"
        }
      ],
      "stateMutability": "view",
      "type": "function"
    },
    {
      "inputs": [],
      "name": "name",
      "outputs": [
        {
          "internalType": "string",
          "name": "",
          "type": "string"
        }
      ],
      "stateMutability": "view",
      "type": "function"
    },
    {
      "inputs": [],
      "name": "owner",
      "outputs": [
        {
          "internalType": "address",
          "name": "",
          "type": "address"
        }
      ],
      "stateMutability": "view",
      "type": "function"
    },
    {
      "inputs": [],
      "name": "paused",
      "outputs": [
        {
          "internalType": "bool",
          "name": "",
          "type": "bool"
        }
      ],
      "stateMutability": "view",
      "type": "function"
    },
    {
      "inputs": [
        {
          "internalType": "address",
          "name": "tokenAddress",
          "type": "address"
        },
        {
          "internalType": "uint256",
          "name": "tokenAmount",
          "type": "uint256"
        }
      ],
      "name": "recoverERC20",
      "outputs": [],
      "stateMutability": "nonpayable",
      "type": "function"
    },
    {
      "inputs": [],
      "name": "renounceOwnership",
      "outputs": [],
      "stateMutability": "nonpayable",
      "type": "function"
    },
    {
      "inputs": [
        {
          "internalType": "bytes4",
          "name": "interfaceId",
          "type": "bytes4"
        }
      ],
      "name": "supportsInterface",
      "outputs": [
        {
          "internalType": "bool",
          "name": "",
          "type": "bool"
        }
      ],
      "stateMutability": "view",
      "type": "function"
    },
    {
      "inputs": [],
      "name": "symbol",
      "outputs": [
        {
          "internalType": "string",
          "name": "",
          "type": "string"
        }
      ],
      "stateMutability": "view",
      "type": "function"
    },
    {
      "inputs": [],
      "name": "totalSupply",
      "outputs": [
        {
          "internalType": "uint256",
          "name": "",
          "type": "uint256"
        }
      ],
      "stateMutability": "view",
      "type": "function"
    },
    {
      "inputs": [
        {
          "internalType": "address",
          "name": "recipient",
          "type": "address"
        },
        {
          "internalType": "uint256",
          "name": "amount",
          "type": "uint256"
        }
      ],
      "name": "transfer",
      "outputs": [
        {
          "internalType": "bool",
          "name": "",
          "type": "bool"
        }
      ],
      "stateMutability": "nonpayable",
      "type": "function"
    },
    {
      "inputs": [
        {
          "internalType": "address",
          "name": "recipient",
          "type": "address"
        },
        {
          "internalType": "uint256",
          "name": "amount",
          "type": "uint256"
        }
      ],
      "name": "transferAndCall",
      "outputs": [
        {
          "internalType": "bool",
          "name": "",
          "type": "bool"
        }
      ],
      "stateMutability": "nonpayable",
      "type": "function"
    },
    {
      "inputs": [
        {
          "internalType": "address",
          "name": "recipient",
          "type": "address"
        },
        {
          "internalType": "uint256",
          "name": "amount",
          "type": "uint256"
        },
        {
          "internalType": "bytes",
          "name": "data",
          "type": "bytes"
        }
      ],
      "name": "transferAndCall",
      "outputs": [
        {
          "internalType": "bool",
          "name": "",
          "type": "bool"
        }
      ],
      "stateMutability": "nonpayable",
      "type": "function"
    },
    {
      "inputs": [
        {
          "internalType": "address",
          "name": "sender",
          "type": "address"
        },
        {
          "internalType": "address",
          "name": "recipient",
          "type": "address"
        },
        {
          "internalType": "uint256",
          "name": "amount",
          "type": "uint256"
        }
      ],
      "name": "transferFrom",
      "outputs": [
        {
          "internalType": "bool",
          "name": "",
          "type": "bool"
        }
      ],
      "stateMutability": "nonpayable",
      "type": "function"
    },
    {
      "inputs": [
        {
          "internalType": "address",
          "name": "sender",
          "type": "address"
        },
        {
          "internalType": "address",
          "name": "recipient",
          "type": "address"
        },
        {
          "internalType": "uint256",
          "name": "amount",
          "type": "uint256"
        },
        {
          "internalType": "bytes",
          "name": "data",
          "type": "bytes"
        }
      ],
      "name": "transferFromAndCall",
      "outputs": [
        {
          "internalType": "bool",
          "name": "",
          "type": "bool"
        }
      ],
      "stateMutability": "nonpayable",
      "type": "function"
    },
    {
      "inputs": [
        {
          "internalType": "address",
          "name": "sender",
          "type": "address"
        },
        {
          "internalType": "address",
          "name": "recipient",
          "type": "address"
        },
        {
          "internalType": "uint256",
          "name": "amount",
          "type": "uint256"
        }
      ],
      "name": "transferFromAndCall",
      "outputs": [
        {
          "internalType": "bool",
          "name": "",
          "type": "bool"
        }
      ],
      "stateMutability": "nonpayable",
      "type": "function"
    },
    {
      "inputs": [
        {
          "internalType": "address",
          "name": "newOwner",
          "type": "address"
        }
      ],
      "name": "transferOwnership",
      "outputs": [],
      "stateMutability": "nonpayable",
      "type": "function"
    }
  ],
  "bytecode": "0x60a060408190526005805460ff60a01b191690556200253138819003908190833981016040819052620000329162000462565b84848484848484816003908051906020019062000051929190620002ef565b50805162000067906004906020840190620002ef565b505050620000846200007e620000f760201b60201c565b620000fb565b60ff8316608052620000a233836200014d60201b62000f931760201c565b6040516001600160a01b038216903480156108fc02916000818181858888f19350505050158015620000d8573d6000803e3d6000fd5b50506005805460ff60a81b191690555062000576975050505050505050565b3390565b600580546001600160a01b038381166001600160a01b0319831681179093556040519116919082907f8be0079c531659141344cd1fd0a4f28419497f9722a3daafe3b4186f6b6457e090600090a35050565b6001600160a01b038216620001a95760405162461bcd60e51b815260206004820152601f60248201527f45524332303a206d696e7420746f20746865207a65726f20616464726573730060448201526064015b60405180910390fd5b620001b76000838362000244565b8060026000828254620001cb919062000512565b90915550506001600160a01b03821660009081526020819052604081208054839290620001fa90849062000512565b90915550506040518181526001600160a01b038316906000907fddf252ad1be2c89b69c2b068fc378daa952ba7f163c4a11628f55a4df523b3ef9060200160405180910390a35050565b6200025c8383836200026160201b620010bf1760201c565b505050565b620002798383836200025c60201b620009111760201c565b6200028d600554600160a81b900460ff1690565b156200025c5760405162461bcd60e51b815260206004820152602a60248201527f45524332305061757361626c653a20746f6b656e207472616e736665722077686044820152691a5b19481c185d5cd95960b21b6064820152608401620001a0565b828054620002fd9062000539565b90600052602060002090601f0160209004810192826200032157600085556200036c565b82601f106200033c57805160ff19168380011785556200036c565b828001600101855582156200036c579182015b828111156200036c5782518255916020019190600101906200034f565b506200037a9291506200037e565b5090565b5b808211156200037a57600081556001016200037f565b634e487b7160e01b600052604160045260246000fd5b600082601f830112620003bd57600080fd5b81516001600160401b0380821115620003da57620003da62000395565b604051601f8301601f19908116603f0116810190828211818310171562000405576200040562000395565b816040528381526020925086838588010111156200042257600080fd5b600091505b8382101562000446578582018301518183018401529082019062000427565b83821115620004585760008385830101525b9695505050505050565b600080600080600060a086880312156200047b57600080fd5b85516001600160401b03808211156200049357600080fd5b620004a189838a01620003ab565b96506020880151915080821115620004b857600080fd5b50620004c788828901620003ab565b945050604086015160ff81168114620004df57600080fd5b6060870151608088015191945092506001600160a01b03811681146200050457600080fd5b809150509295509295909350565b600082198211156200053457634e487b7160e01b600052601160045260246000fd5b500190565b600181811c908216806200054e57607f821691505b602082108114156200057057634e487b7160e01b600052602260045260246000fd5b50919050565b608051611f9f6200059260003960006102700152611f9f6000f3fe608060405234801561001057600080fd5b50600436106101b95760003560e01c806370a08231116100f9578063a457c2d711610097578063cae9ca5111610071578063cae9ca51146103e1578063d8fbe994146103f4578063dd62ed3e14610407578063f2fde38b1461044d57600080fd5b8063a457c2d7146103a8578063a9059cbb146103bb578063c1d34b89146103ce57600080fd5b80637d64bcb4116100d35780637d64bcb41461035d5780638980f11f146103655780638da5cb5b1461037857806395d89b41146103a057600080fd5b806370a082311461030c578063715018a61461034257806379cc67901461034a57600080fd5b806323b872dd11610166578063395093511161014057806339509351146102ad5780634000aea0146102c057806342966c68146102d35780635c975abb146102e857600080fd5b806323b872dd14610256578063313ce567146102695780633177029f1461029a57600080fd5b8063095ea7b311610197578063095ea7b31461021e5780631296ee621461023157806318160ddd1461024457600080fd5b806301ffc9a7146101be57806305d2035b146101e657806306fdde0314610209575b600080fd5b6101d16101cc366004611ac7565b610460565b60405190151581526020015b60405180910390f35b60055474010000000000000000000000000000000000000000900460ff166101d1565b6102116104f9565b6040516101dd9190611b4f565b6101d161022c366004611b8b565b61058b565b6101d161023f366004611b8b565b6105a1565b6002545b6040519081526020016101dd565b6101d1610264366004611bb5565b6105c4565b60405160ff7f00000000000000000000000000000000000000000000000000000000000000001681526020016101dd565b6101d16102a8366004611b8b565b6106af565b6101d16102bb366004611b8b565b6106cb565b6101d16102ce366004611ccb565b610714565b6102e66102e1366004611d22565b6107c3565b005b6005547501000000000000000000000000000000000000000000900460ff166101d1565b61024861031a366004611d3b565b73ffffffffffffffffffffffffffffffffffffffff1660009081526020819052604090205490565b6102e66107d0565b6102e6610358366004611b8b565b61085d565b6102e6610916565b6102e6610373366004611b8b565b610aac565b60055460405173ffffffffffffffffffffffffffffffffffffffff90911681526020016101dd565b610211610c0d565b6101d16103b6366004611b8b565b610c1c565b6101d16103c9366004611b8b565b610cea565b6101d16103dc366004611d56565b610cf7565b6101d16103ef366004611ccb565b610da5565b6101d1610402366004611bb5565b610e49565b610248610415366004611dbe565b73ffffffffffffffffffffffffffffffffffffffff918216600090815260016020908152604080832093909416825291909152205490565b6102e661045b366004611d3b565b610e66565b60007fffffffff0000000000000000000000000000000000000000000000000000000082167fb0202a110000000000000000000000000000000000000000000000000000000014806104f357507f01ffc9a7000000000000000000000000000000000000000000000000000000007fffffffff000000000000000000000000000000000000000000000000000000008316145b92915050565b60606003805461050890611df1565b80601f016020809104026020016040519081016040528092919081815260200182805461053490611df1565b80156105815780601f1061055657610100808354040283529160200191610581565b820191906000526020600020905b81548152906001019060200180831161056457829003601f168201915b5050505050905090565b600061059833848461116b565b50600192915050565b60006105bd838360405180602001604052806000815250610714565b9392505050565b60006105d184848461131e565b73ffffffffffffffffffffffffffffffffffffffff8416600090815260016020908152604080832033845290915290205482811015610697576040517f08c379a000000000000000000000000000000000000000000000000000000000815260206004820152602860248201527f45524332303a207472616e7366657220616d6f756e742065786365656473206160448201527f6c6c6f77616e636500000000000000000000000000000000000000000000000060648201526084015b60405180910390fd5b6106a4853385840361116b565b506001949350505050565b60006105bd838360405180602001604052806000815250610da5565b33600081815260016020908152604080832073ffffffffffffffffffffffffffffffffffffffff87168452909152812054909161059891859061070f908690611e74565b61116b565b60006107208484610cea565b5061072d338585856115dd565b6107b9576040517f08c379a000000000000000000000000000000000000000000000000000000000815260206004820152602660248201527f455243313336333a205f636865636b416e6443616c6c5472616e73666572207260448201527f6576657274730000000000000000000000000000000000000000000000000000606482015260840161068e565b5060019392505050565b6107cd33826116ff565b50565b60055473ffffffffffffffffffffffffffffffffffffffff163314610851576040517f08c379a000000000000000000000000000000000000000000000000000000000815260206004820181905260248201527f4f776e61626c653a2063616c6c6572206973206e6f7420746865206f776e6572604482015260640161068e565b61085b60006118f8565b565b60006108698333610415565b9050818110156108fa576040517f08c379a0000000000000000000000000000000000000000000000000000000008152602060048201526024808201527f45524332303a206275726e20616d6f756e74206578636565647320616c6c6f7760448201527f616e636500000000000000000000000000000000000000000000000000000000606482015260840161068e565b610907833384840361116b565b61091183836116ff565b505050565b60055473ffffffffffffffffffffffffffffffffffffffff163314610997576040517f08c379a000000000000000000000000000000000000000000000000000000000815260206004820181905260248201527f4f776e61626c653a2063616c6c6572206973206e6f7420746865206f776e6572604482015260640161068e565b60055474010000000000000000000000000000000000000000900460ff1615610a42576040517f08c379a000000000000000000000000000000000000000000000000000000000815260206004820152602260248201527f45524332304d696e7461626c653a206d696e74696e672069732066696e69736860448201527f6564000000000000000000000000000000000000000000000000000000000000606482015260840161068e565b600580547fffffffffffffffffffffff00ffffffffffffffffffffffffffffffffffffffff16740100000000000000000000000000000000000000001790556040517fae5184fba832cb2b1f702aca6117b8d265eaf03ad33eb133f19dde0f5920fa0890600090a1565b60055473ffffffffffffffffffffffffffffffffffffffff163314610b2d576040517f08c379a000000000000000000000000000000000000000000000000000000000815260206004820181905260248201527f4f776e61626c653a2063616c6c6572206973206e6f7420746865206f776e6572604482015260640161068e565b8173ffffffffffffffffffffffffffffffffffffffff1663a9059cbb610b6860055473ffffffffffffffffffffffffffffffffffffffff1690565b6040517fffffffff0000000000000000000000000000000000000000000000000000000060e084901b16815273ffffffffffffffffffffffffffffffffffffffff909116600482015260248101849052604401602060405180830381600087803b158015610bd557600080fd5b505af1158015610be9573d6000803e3d6000fd5b505050506040513d601f19601f820116820180604052508101906109119190611e8c565b60606004805461050890611df1565b33600090815260016020908152604080832073ffffffffffffffffffffffffffffffffffffffff8616845290915281205482811015610cdd576040517f08c379a000000000000000000000000000000000000000000000000000000000815260206004820152602560248201527f45524332303a2064656372656173656420616c6c6f77616e63652062656c6f7760448201527f207a65726f000000000000000000000000000000000000000000000000000000606482015260840161068e565b6107b9338585840361116b565b600061059833848461131e565b6000610d048585856105c4565b50610d11858585856115dd565b6106a4576040517f08c379a000000000000000000000000000000000000000000000000000000000815260206004820152602660248201527f455243313336333a205f636865636b416e6443616c6c5472616e73666572207260448201527f6576657274730000000000000000000000000000000000000000000000000000606482015260840161068e565b949350505050565b6000610db1848461058b565b50610dbd84848461196f565b6107b9576040517f08c379a000000000000000000000000000000000000000000000000000000000815260206004820152602560248201527f455243313336333a205f636865636b416e6443616c6c417070726f766520726560448201527f7665727473000000000000000000000000000000000000000000000000000000606482015260840161068e565b6000610d9d84848460405180602001604052806000815250610cf7565b60055473ffffffffffffffffffffffffffffffffffffffff163314610ee7576040517f08c379a000000000000000000000000000000000000000000000000000000000815260206004820181905260248201527f4f776e61626c653a2063616c6c6572206973206e6f7420746865206f776e6572604482015260640161068e565b73ffffffffffffffffffffffffffffffffffffffff8116610f8a576040517f08c379a000000000000000000000000000000000000000000000000000000000815260206004820152602660248201527f4f776e61626c653a206e6577206f776e657220697320746865207a65726f206160448201527f6464726573730000000000000000000000000000000000000000000000000000606482015260840161068e565b6107cd816118f8565b73ffffffffffffffffffffffffffffffffffffffff8216611010576040517f08c379a000000000000000000000000000000000000000000000000000000000815260206004820152601f60248201527f45524332303a206d696e7420746f20746865207a65726f206164647265737300604482015260640161068e565b61101c60008383611a8e565b806002600082825461102e9190611e74565b909155505073ffffffffffffffffffffffffffffffffffffffff821660009081526020819052604081208054839290611068908490611e74565b909155505060405181815273ffffffffffffffffffffffffffffffffffffffff8316906000907fddf252ad1be2c89b69c2b068fc378daa952ba7f163c4a11628f55a4df523b3ef9060200160405180910390a35050565b6005547501000000000000000000000000000000000000000000900460ff1615610911576040517f08c379a000000000000000000000000000000000000000000000000000000000815260206004820152602a60248201527f45524332305061757361626c653a20746f6b656e207472616e7366657220776860448201527f696c652070617573656400000000000000000000000000000000000000000000606482015260840161068e565b73ffffffffffffffffffffffffffffffffffffffff831661120d576040517f08c379a0000000000000000000000000000000000000000000000000000000008152602060048201526024808201527f45524332303a20617070726f76652066726f6d20746865207a65726f2061646460448201527f7265737300000000000000000000000000000000000000000000000000000000606482015260840161068e565b73ffffffffffffffffffffffffffffffffffffffff82166112b0576040517f08c379a000000000000000000000000000000000000000000000000000000000815260206004820152602260248201527f45524332303a20617070726f766520746f20746865207a65726f20616464726560448201527f7373000000000000000000000000000000000000000000000000000000000000606482015260840161068e565b73ffffffffffffffffffffffffffffffffffffffff83811660008181526001602090815260408083209487168084529482529182902085905590518481527f8c5be1e5ebec7d5bd14f71427d1e84f3dd0314c0f7b2291e5b200ac8c7c3b925910160405180910390a3505050565b73ffffffffffffffffffffffffffffffffffffffff83166113c1576040517f08c379a000000000000000000000000000000000000000000000000000000000815260206004820152602560248201527f45524332303a207472616e736665722066726f6d20746865207a65726f20616460448201527f6472657373000000000000000000000000000000000000000000000000000000606482015260840161068e565b73ffffffffffffffffffffffffffffffffffffffff8216611464576040517f08c379a000000000000000000000000000000000000000000000000000000000815260206004820152602360248201527f45524332303a207472616e7366657220746f20746865207a65726f206164647260448201527f6573730000000000000000000000000000000000000000000000000000000000606482015260840161068e565b61146f838383611a8e565b73ffffffffffffffffffffffffffffffffffffffff831660009081526020819052604090205481811015611525576040517f08c379a000000000000000000000000000000000000000000000000000000000815260206004820152602660248201527f45524332303a207472616e7366657220616d6f756e742065786365656473206260448201527f616c616e63650000000000000000000000000000000000000000000000000000606482015260840161068e565b73ffffffffffffffffffffffffffffffffffffffff808516600090815260208190526040808220858503905591851681529081208054849290611569908490611e74565b925050819055508273ffffffffffffffffffffffffffffffffffffffff168473ffffffffffffffffffffffffffffffffffffffff167fddf252ad1be2c89b69c2b068fc378daa952ba7f163c4a11628f55a4df523b3ef846040516115cf91815260200190565b60405180910390a350505050565b600073ffffffffffffffffffffffffffffffffffffffff84163b61160357506000610d9d565b6040517f88a7ca5c00000000000000000000000000000000000000000000000000000000815260009073ffffffffffffffffffffffffffffffffffffffff8616906388a7ca5c9061165e9033908a9089908990600401611eae565b602060405180830381600087803b15801561167857600080fd5b505af115801561168c573d6000803e3d6000fd5b505050506040513d601f19601f820116820180604052508101906116b09190611ef7565b7fffffffff00000000000000000000000000000000000000000000000000000000167f88a7ca5c0000000000000000000000000000000000000000000000000000000014915050949350505050565b73ffffffffffffffffffffffffffffffffffffffff82166117a2576040517f08c379a000000000000000000000000000000000000000000000000000000000815260206004820152602160248201527f45524332303a206275726e2066726f6d20746865207a65726f2061646472657360448201527f7300000000000000000000000000000000000000000000000000000000000000606482015260840161068e565b6117ae82600083611a8e565b73ffffffffffffffffffffffffffffffffffffffff821660009081526020819052604090205481811015611864576040517f08c379a000000000000000000000000000000000000000000000000000000000815260206004820152602260248201527f45524332303a206275726e20616d6f756e7420657863656564732062616c616e60448201527f6365000000000000000000000000000000000000000000000000000000000000606482015260840161068e565b73ffffffffffffffffffffffffffffffffffffffff831660009081526020819052604081208383039055600280548492906118a0908490611f14565b909155505060405182815260009073ffffffffffffffffffffffffffffffffffffffff8516907fddf252ad1be2c89b69c2b068fc378daa952ba7f163c4a11628f55a4df523b3ef9060200160405180910390a3505050565b6005805473ffffffffffffffffffffffffffffffffffffffff8381167fffffffffffffffffffffffff0000000000000000000000000000000000000000831681179093556040519116919082907f8be0079c531659141344cd1fd0a4f28419497f9722a3daafe3b4186f6b6457e090600090a35050565b600073ffffffffffffffffffffffffffffffffffffffff84163b611995575060006105bd565b6040517f7b04a2d000000000000000000000000000000000000000000000000000000000815260009073ffffffffffffffffffffffffffffffffffffffff861690637b04a2d0906119ee90339088908890600401611f2b565b602060405180830381600087803b158015611a0857600080fd5b505af1158015611a1c573d6000803e3d6000fd5b505050506040513d601f19601f82011682018060405250810190611a409190611ef7565b7fffffffff00000000000000000000000000000000000000000000000000000000167f7b04a2d000000000000000000000000000000000000000000000000000000000149150509392505050565b6109118383836110bf565b7fffffffff00000000000000000000000000000000000000000000000000000000811681146107cd57600080fd5b600060208284031215611ad957600080fd5b81356105bd81611a99565b6000815180845260005b81811015611b0a57602081850181015186830182015201611aee565b81811115611b1c576000602083870101525b50601f017fffffffffffffffffffffffffffffffffffffffffffffffffffffffffffffffe0169290920160200192915050565b6020815260006105bd6020830184611ae4565b803573ffffffffffffffffffffffffffffffffffffffff81168114611b8657600080fd5b919050565b60008060408385031215611b9e57600080fd5b611ba783611b62565b946020939093013593505050565b600080600060608486031215611bca57600080fd5b611bd384611b62565b9250611be160208501611b62565b9150604084013590509250925092565b7f4e487b7100000000000000000000000000000000000000000000000000000000600052604160045260246000fd5b600082601f830112611c3157600080fd5b813567ffffffffffffffff80821115611c4c57611c4c611bf1565b604051601f83017fffffffffffffffffffffffffffffffffffffffffffffffffffffffffffffffe0908116603f01168101908282118183101715611c9257611c92611bf1565b81604052838152866020858801011115611cab57600080fd5b836020870160208301376000602085830101528094505050505092915050565b600080600060608486031215611ce057600080fd5b611ce984611b62565b925060208401359150604084013567ffffffffffffffff811115611d0c57600080fd5b611d1886828701611c20565b9150509250925092565b600060208284031215611d3457600080fd5b5035919050565b600060208284031215611d4d57600080fd5b6105bd82611b62565b60008060008060808587031215611d6c57600080fd5b611d7585611b62565b9350611d8360208601611b62565b925060408501359150606085013567ffffffffffffffff811115611da657600080fd5b611db287828801611c20565b91505092959194509250565b60008060408385031215611dd157600080fd5b611dda83611b62565b9150611de860208401611b62565b90509250929050565b600181811c90821680611e0557607f821691505b60208210811415611e3f577f4e487b7100000000000000000000000000000000000000000000000000000000600052602260045260246000fd5b50919050565b7f4e487b7100000000000000000000000000000000000000000000000000000000600052601160045260246000fd5b60008219821115611e8757611e87611e45565b500190565b600060208284031215611e9e57600080fd5b815180151581146105bd57600080fd5b600073ffffffffffffffffffffffffffffffffffffffff808716835280861660208401525083604083015260806060830152611eed6080830184611ae4565b9695505050505050565b600060208284031215611f0957600080fd5b81516105bd81611a99565b600082821015611f2657611f26611e45565b500390565b73ffffffffffffffffffffffffffffffffffffffff84168152826020820152606060408201526000611f606060830184611ae4565b9594505050505056fea264697066735822122077e38da55580190baa4ef78fe6d03ac288164ff89d8daa794c9b3beb6de7684d64736f6c63430008090033",
  "linkReferences": {},
  "deployedLinkReferences": {}
}