{
  "_format": "hh-sol-artifact-1",
  "contractName": "T8",
  "sourceName": "contracts/T8.sol",
  "abi": [
    {
      "inputs": [
        {
          "internalType": "string",
          "name": "name",
          "type": "string"
        },
        {
          "internalType": "string",
          "name": "symbol",
          "type": "string"
        },
        {
          "internalType": "uint8",
          "name": "_decimals",
          "type": "uint8"
        },
        {
          "internalType": "uint256",
          "name": "initialBalance",
          "type": "uint256"
        },
        {
          "internalType": "address payable",
          "name": "feeReceiver",
          "type": "address"
        }
      ],
      "stateMutability": "payable",
      "type": "constructor"
    },
    {
      "anonymous": false,
      "inputs": [
        {
          "indexed": true,
          "internalType": "address",
          "name": "owner",
          "type": "address"
        },
        {
          "indexed": true,
          "internalType": "address",
          "name": "spender",
          "type": "address"
        },
        {
          "indexed": false,
          "internalType": "uint256",
          "name": "value",
          "type": "uint256"
        }
      ],
      "name": "Approval",
      "type": "event"
    },
    {
      "anonymous": false,
      "inputs": [],
      "name": "MintFinished",
      "type": "event"
    },
    {
      "anonymous": false,
      "inputs": [
        {
          "indexed": true,
          "internalType": "address",
          "name": "previousOwner",
          "type": "address"
        },
        {
          "indexed": true,
          "internalType": "address",
          "name": "newOwner",
          "type": "address"
        }
      ],
      "name": "OwnershipTransferred",
      "type": "event"
    },
    {
      "anonymous": false,
      "inputs": [
        {
          "indexed": false,
          "internalType": "address",
          "name": "account",
          "type": "address"
        }
      ],
      "name": "Paused",
      "type": "event"
    },
    {
      "anonymous": false,
      "inputs": [
        {
          "indexed": true,
          "internalType": "address",
          "name": "from",
          "type": "address"
        },
        {
          "indexed": true,
          "internalType": "address",
          "name": "to",
          "type": "address"
        },
        {
          "indexed": false,
          "internalType": "uint256",
          "name": "value",
          "type": "uint256"
        }
      ],
      "name": "Transfer",
      "type": "event"
    },
    {
      "anonymous": false,
      "inputs": [
        {
          "indexed": false,
          "internalType": "address",
          "name": "account",
          "type": "address"
        }
      ],
      "name": "Unpaused",
      "type": "event"
    },
    {
      "inputs": [
        {
          "internalType": "address",
          "name": "owner",
          "type": "address"
        },
        {
          "internalType": "address",
          "name": "spender",
          "type": "address"
        }
      ],
      "name": "allowance",
      "outputs": [
        {
          "internalType": "uint256",
          "name": "",
          "type": "uint256"
        }
      ],
      "stateMutability": "view",
      "type": "function"
    },
    {
      "inputs": [
        {
          "internalType": "address",
          "name": "spender",
          "type": "address"
        },
        {
          "internalType": "uint256",
          "name": "amount",
          "type": "uint256"
        }
      ],
      "name": "approve",
      "outputs": [
        {
          "internalType": "bool",
          "name": "",
          "type": "bool"
        }
      ],
      "stateMutability": "nonpayable",
      "type": "function"
    },
    {
      "inputs": [
        {
          "internalType": "address",
          "name": "spender",
          "type": "address"
        },
        {
          "internalType": "uint256",
          "name": "amount",
          "type": "uint256"
        }
      ],
      "name": "approveAndCall",
      "outputs": [
        {
          "internalType": "bool",
          "name": "",
          "type": "bool"
        }
      ],
      "stateMutability": "nonpayable",
      "type": "function"
    },
    {
      "inputs": [
        {
          "internalType": "address",
          "name": "spender",
          "type": "address"
        },
        {
          "internalType": "uint256",
          "name": "amount",
          "type": "uint256"
        },
        {
          "internalType": "bytes",
          "name": "data",
          "type": "bytes"
        }
      ],
      "name": "approveAndCall",
      "outputs": [
        {
          "internalType": "bool",
          "name": "",
          "type": "bool"
        }
      ],
      "stateMutability": "nonpayable",
      "type": "function"
    },
    {
      "inputs": [
        {
          "internalType": "address",
          "name": "account",
          "type": "address"
        }
      ],
      "name": "balanceOf",
      "outputs": [
        {
          "internalType": "uint256",
          "name": "",
          "type": "uint256"
        }
      ],
      "stateMutability": "view",
      "type": "function"
    },
    {
      "inputs": [
        {
          "internalType": "uint256",
          "name": "amount",
          "type": "uint256"
        }
      ],
      "name": "burn",
      "outputs": [],
      "stateMutability": "nonpayable",
      "type": "function"
    },
    {
      "inputs": [
        {
          "internalType": "address",
          "name": "account",
          "type": "address"
        },
        {
          "internalType": "uint256",
          "name": "amount",
          "type": "uint256"
        }
      ],
      "name": "burnFrom",
      "outputs": [],
      "stateMutability": "nonpayable",
      "type": "function"
    },
    {
      "inputs": [],
      "name": "decimals",
      "outputs": [
        {
          "internalType": "uint8",
          "name": "",
          "type": "uint8"
        }
      ],
      "stateMutability": "view",
      "type": "function"
    },
    {
      "inputs": [
        {
          "internalType": "address",
          "name": "spender",
          "type": "address"
        },
        {
          "internalType": "uint256",
          "name": "subtractedValue",
          "type": "uint256"
        }
      ],
      "name": "decreaseAllowance",
      "outputs": [
        {
          "internalType": "bool",
          "name": "",
          "type": "bool"
        }
      ],
      "stateMutability": "nonpayable",
      "type": "function"
    },
    {
      "inputs": [],
      "name": "finishMinting",
      "outputs": [],
      "stateMutability": "nonpayable",
      "type": "function"
    },
    {
      "inputs": [
        {
          "internalType": "address",
          "name": "spender",
          "type": "address"
        },
        {
          "internalType": "uint256",
          "name": "addedValue",
          "type": "uint256"
        }
      ],
      "name": "increaseAllowance",
      "outputs": [
        {
          "internalType": "bool",
          "name": "",
          "type": "bool"
        }
      ],
      "stateMutability": "nonpayable",
      "type": "function"
    },
    {
      "inputs": [
        {
          "internalType": "address",
          "name": "account",
          "type": "address"
        },
        {
          "internalType": "uint256",
          "name": "amount",
          "type": "uint256"
        }
      ],
      "name": "mint",
      "outputs": [],
      "stateMutability": "nonpayable",
      "type": "function"
    },
    {
      "inputs": [],
      "name": "mintingFinished",
      "outputs": [
        {
          "internalType": "bool",
          "name": "",
          "type": "bool"
        }
      ],
      "stateMutability": "view",
      "type": "function"
    },
    {
      "inputs": [],
      "name": "name",
      "outputs": [
        {
          "internalType": "string",
          "name": "",
          "type": "string"
        }
      ],
      "stateMutability": "view",
      "type": "function"
    },
    {
      "inputs": [],
      "name": "owner",
      "outputs": [
        {
          "internalType": "address",
          "name": "",
          "type": "address"
        }
      ],
      "stateMutability": "view",
      "type": "function"
    },
    {
      "inputs": [],
      "name": "pause",
      "outputs": [],
      "stateMutability": "nonpayable",
      "type": "function"
    },
    {
      "inputs": [],
      "name": "paused",
      "outputs": [
        {
          "internalType": "bool",
          "name": "",
          "type": "bool"
        }
      ],
      "stateMutability": "view",
      "type": "function"
    },
    {
      "inputs": [
        {
          "internalType": "address",
          "name": "tokenAddress",
          "type": "address"
        },
        {
          "internalType": "uint256",
          "name": "tokenAmount",
          "type": "uint256"
        }
      ],
      "name": "recoverERC20",
      "outputs": [],
      "stateMutability": "nonpayable",
      "type": "function"
    },
    {
      "inputs": [],
      "name": "renounceOwnership",
      "outputs": [],
      "stateMutability": "nonpayable",
      "type": "function"
    },
    {
      "inputs": [
        {
          "internalType": "bytes4",
          "name": "interfaceId",
          "type": "bytes4"
        }
      ],
      "name": "supportsInterface",
      "outputs": [
        {
          "internalType": "bool",
          "name": "",
          "type": "bool"
        }
      ],
      "stateMutability": "view",
      "type": "function"
    },
    {
      "inputs": [],
      "name": "symbol",
      "outputs": [
        {
          "internalType": "string",
          "name": "",
          "type": "string"
        }
      ],
      "stateMutability": "view",
      "type": "function"
    },
    {
      "inputs": [],
      "name": "totalSupply",
      "outputs": [
        {
          "internalType": "uint256",
          "name": "",
          "type": "uint256"
        }
      ],
      "stateMutability": "view",
      "type": "function"
    },
    {
      "inputs": [
        {
          "internalType": "address",
          "name": "recipient",
          "type": "address"
        },
        {
          "internalType": "uint256",
          "name": "amount",
          "type": "uint256"
        }
      ],
      "name": "transfer",
      "outputs": [
        {
          "internalType": "bool",
          "name": "",
          "type": "bool"
        }
      ],
      "stateMutability": "nonpayable",
      "type": "function"
    },
    {
      "inputs": [
        {
          "internalType": "address",
          "name": "recipient",
          "type": "address"
        },
        {
          "internalType": "uint256",
          "name": "amount",
          "type": "uint256"
        }
      ],
      "name": "transferAndCall",
      "outputs": [
        {
          "internalType": "bool",
          "name": "",
          "type": "bool"
        }
      ],
      "stateMutability": "nonpayable",
      "type": "function"
    },
    {
      "inputs": [
        {
          "internalType": "address",
          "name": "recipient",
          "type": "address"
        },
        {
          "internalType": "uint256",
          "name": "amount",
          "type": "uint256"
        },
        {
          "internalType": "bytes",
          "name": "data",
          "type": "bytes"
        }
      ],
      "name": "transferAndCall",
      "outputs": [
        {
          "internalType": "bool",
          "name": "",
          "type": "bool"
        }
      ],
      "stateMutability": "nonpayable",
      "type": "function"
    },
    {
      "inputs": [
        {
          "internalType": "address",
          "name": "sender",
          "type": "address"
        },
        {
          "internalType": "address",
          "name": "recipient",
          "type": "address"
        },
        {
          "internalType": "uint256",
          "name": "amount",
          "type": "uint256"
        }
      ],
      "name": "transferFrom",
      "outputs": [
        {
          "internalType": "bool",
          "name": "",
          "type": "bool"
        }
      ],
      "stateMutability": "nonpayable",
      "type": "function"
    },
    {
      "inputs": [
        {
          "internalType": "address",
          "name": "sender",
          "type": "address"
        },
        {
          "internalType": "address",
          "name": "recipient",
          "type": "address"
        },
        {
          "internalType": "uint256",
          "name": "amount",
          "type": "uint256"
        },
        {
          "internalType": "bytes",
          "name": "data",
          "type": "bytes"
        }
      ],
      "name": "transferFromAndCall",
      "outputs": [
        {
          "internalType": "bool",
          "name": "",
          "type": "bool"
        }
      ],
      "stateMutability": "nonpayable",
      "type": "function"
    },
    {
      "inputs": [
        {
          "internalType": "address",
          "name": "sender",
          "type": "address"
        },
        {
          "internalType": "address",
          "name": "recipient",
          "type": "address"
        },
        {
          "internalType": "uint256",
          "name": "amount",
          "type": "uint256"
        }
      ],
      "name": "transferFromAndCall",
      "outputs": [
        {
          "internalType": "bool",
          "name": "",
          "type": "bool"
        }
      ],
      "stateMutability": "nonpayable",
      "type": "function"
    },
    {
      "inputs": [
        {
          "internalType": "address",
          "name": "newOwner",
          "type": "address"
        }
      ],
      "name": "transferOwnership",
      "outputs": [],
      "stateMutability": "nonpayable",
      "type": "function"
    },
    {
      "inputs": [],
      "name": "unpause",
      "outputs": [],
      "stateMutability": "nonpayable",
      "type": "function"
    }
  ],
  "bytecode": "0x60a060408190526005805460ff60a81b191690556200296938819003908190833981016040819052620000329162000445565b84848484848484816003908051906020019062000051929190620002d2565b50805162000067906004906020840190620002d2565b50506005805460ff19169055506200007f33620000e4565b60ff83166080526200009d33836200013e60201b620012591760201c565b6040516001600160a01b038216903480156108fc02916000818181858888f19350505050158015620000d3573d6000803e3d6000fd5b505050505050505050505062000559565b600580546001600160a01b03838116610100818102610100600160a81b031985161790945560405193909204169182907f8be0079c531659141344cd1fd0a4f28419497f9722a3daafe3b4186f6b6457e090600090a35050565b6001600160a01b0382166200019a5760405162461bcd60e51b815260206004820152601f60248201527f45524332303a206d696e7420746f20746865207a65726f20616464726573730060448201526064015b60405180910390fd5b620001a86000838362000235565b8060026000828254620001bc9190620004f5565b90915550506001600160a01b03821660009081526020819052604081208054839290620001eb908490620004f5565b90915550506040518181526001600160a01b038316906000907fddf252ad1be2c89b69c2b068fc378daa952ba7f163c4a11628f55a4df523b3ef9060200160405180910390a35050565b6200024d8383836200025260201b620013851760201c565b505050565b6200026a8383836200024d60201b62000b2e1760201c565b60055460ff16156200024d5760405162461bcd60e51b815260206004820152602a60248201527f45524332305061757361626c653a20746f6b656e207472616e736665722077686044820152691a5b19481c185d5cd95960b21b606482015260840162000191565b828054620002e0906200051c565b90600052602060002090601f0160209004810192826200030457600085556200034f565b82601f106200031f57805160ff19168380011785556200034f565b828001600101855582156200034f579182015b828111156200034f57825182559160200191906001019062000332565b506200035d92915062000361565b5090565b5b808211156200035d576000815560010162000362565b634e487b7160e01b600052604160045260246000fd5b600082601f830112620003a057600080fd5b81516001600160401b0380821115620003bd57620003bd62000378565b604051601f8301601f19908116603f01168101908282118183101715620003e857620003e862000378565b816040528381526020925086838588010111156200040557600080fd5b600091505b838210156200042957858201830151818301840152908201906200040a565b838211156200043b5760008385830101525b9695505050505050565b600080600080600060a086880312156200045e57600080fd5b85516001600160401b03808211156200047657600080fd5b6200048489838a016200038e565b965060208801519150808211156200049b57600080fd5b50620004aa888289016200038e565b945050604086015160ff81168114620004c257600080fd5b6060870151608088015191945092506001600160a01b0381168114620004e757600080fd5b809150509295509295909350565b600082198211156200051757634e487b7160e01b600052601160045260246000fd5b500190565b600181811c908216806200053157607f821691505b602082108114156200055357634e487b7160e01b600052602260045260246000fd5b50919050565b6080516123f462000575600039600061029201526123f46000f3fe608060405234801561001057600080fd5b50600436106101da5760003560e01c806370a082311161010457806395d89b41116100a2578063cae9ca5111610071578063cae9ca5114610428578063d8fbe9941461043b578063dd62ed3e1461044e578063f2fde38b1461049457600080fd5b806395d89b41146103e7578063a457c2d7146103ef578063a9059cbb14610402578063c1d34b891461041557600080fd5b80637d64bcb4116100de5780637d64bcb4146103815780638456cb59146103895780638980f11f146103915780638da5cb5b146103a457600080fd5b806370a0823114610330578063715018a61461036657806379cc67901461036e57600080fd5b8063313ce5671161017c5780634000aea01161014b5780634000aea0146102ec57806340c10f19146102ff57806342966c68146103125780635c975abb1461032557600080fd5b8063313ce5671461028b5780633177029f146102bc57806339509351146102cf5780633f4ba83a146102e257600080fd5b8063095ea7b3116101b8578063095ea7b3146102405780631296ee621461025357806318160ddd1461026657806323b872dd1461027857600080fd5b806301ffc9a7146101df57806305d2035b1461020757806306fdde031461022b575b600080fd5b6101f26101ed366004611f1c565b6104a7565b60405190151581526020015b60405180910390f35b6005547501000000000000000000000000000000000000000000900460ff166101f2565b610233610540565b6040516101fe9190611fa4565b6101f261024e366004611fe0565b6105d2565b6101f2610261366004611fe0565b6105e8565b6002545b6040519081526020016101fe565b6101f261028636600461200a565b61060b565b60405160ff7f00000000000000000000000000000000000000000000000000000000000000001681526020016101fe565b6101f26102ca366004611fe0565b6106f6565b6101f26102dd366004611fe0565b610712565b6102ea61075b565b005b6101f26102fa366004612120565b6107ec565b6102ea61030d366004611fe0565b61089b565b6102ea610320366004612177565b6109dc565b60055460ff166101f2565b61026a61033e366004612190565b73ffffffffffffffffffffffffffffffffffffffff1660009081526020819052604090205490565b6102ea6109e9565b6102ea61037c366004611fe0565b610a7a565b6102ea610b33565b6102ea610cd1565b6102ea61039f366004611fe0565b610d60565b600554610100900473ffffffffffffffffffffffffffffffffffffffff1660405173ffffffffffffffffffffffffffffffffffffffff90911681526020016101fe565b610233610ecd565b6101f26103fd366004611fe0565b610edc565b6101f2610410366004611fe0565b610faa565b6101f26104233660046121ab565b610fb7565b6101f2610436366004612120565b611065565b6101f261044936600461200a565b611109565b61026a61045c366004612213565b73ffffffffffffffffffffffffffffffffffffffff918216600090815260016020908152604080832093909416825291909152205490565b6102ea6104a2366004612190565b611126565b60007fffffffff0000000000000000000000000000000000000000000000000000000082167fb0202a1100000000000000000000000000000000000000000000000000000000148061053a57507f01ffc9a7000000000000000000000000000000000000000000000000000000007fffffffff000000000000000000000000000000000000000000000000000000008316145b92915050565b60606003805461054f90612246565b80601f016020809104026020016040519081016040528092919081815260200182805461057b90612246565b80156105c85780601f1061059d576101008083540402835291602001916105c8565b820191906000526020600020905b8154815290600101906020018083116105ab57829003601f168201915b5050505050905090565b60006105df338484611418565b50600192915050565b60006106048383604051806020016040528060008152506107ec565b9392505050565b60006106188484846115cb565b73ffffffffffffffffffffffffffffffffffffffff84166000908152600160209081526040808320338452909152902054828110156106de576040517f08c379a000000000000000000000000000000000000000000000000000000000815260206004820152602860248201527f45524332303a207472616e7366657220616d6f756e742065786365656473206160448201527f6c6c6f77616e636500000000000000000000000000000000000000000000000060648201526084015b60405180910390fd5b6106eb8533858403611418565b506001949350505050565b6000610604838360405180602001604052806000815250611065565b33600081815260016020908152604080832073ffffffffffffffffffffffffffffffffffffffff8716845290915281205490916105df9185906107569086906122c9565b611418565b60055473ffffffffffffffffffffffffffffffffffffffff6101009091041633146107e2576040517f08c379a000000000000000000000000000000000000000000000000000000000815260206004820181905260248201527f4f776e61626c653a2063616c6c6572206973206e6f7420746865206f776e657260448201526064016106d5565b6107ea61188a565b565b60006107f88484610faa565b506108053385858561196b565b610891576040517f08c379a000000000000000000000000000000000000000000000000000000000815260206004820152602660248201527f455243313336333a205f636865636b416e6443616c6c5472616e73666572207260448201527f657665727473000000000000000000000000000000000000000000000000000060648201526084016106d5565b5060019392505050565b60055473ffffffffffffffffffffffffffffffffffffffff610100909104163314610922576040517f08c379a000000000000000000000000000000000000000000000000000000000815260206004820181905260248201527f4f776e61626c653a2063616c6c6572206973206e6f7420746865206f776e657260448201526064016106d5565b6005547501000000000000000000000000000000000000000000900460ff16156109ce576040517f08c379a000000000000000000000000000000000000000000000000000000000815260206004820152602260248201527f45524332304d696e7461626c653a206d696e74696e672069732066696e69736860448201527f656400000000000000000000000000000000000000000000000000000000000060648201526084016106d5565b6109d88282611259565b5050565b6109e63382611a8d565b50565b60055473ffffffffffffffffffffffffffffffffffffffff610100909104163314610a70576040517f08c379a000000000000000000000000000000000000000000000000000000000815260206004820181905260248201527f4f776e61626c653a2063616c6c6572206973206e6f7420746865206f776e657260448201526064016106d5565b6107ea6000611c86565b6000610a86833361045c565b905081811015610b17576040517f08c379a0000000000000000000000000000000000000000000000000000000008152602060048201526024808201527f45524332303a206275726e20616d6f756e74206578636565647320616c6c6f7760448201527f616e63650000000000000000000000000000000000000000000000000000000060648201526084016106d5565b610b248333848403611418565b610b2e8383611a8d565b505050565b60055473ffffffffffffffffffffffffffffffffffffffff610100909104163314610bba576040517f08c379a000000000000000000000000000000000000000000000000000000000815260206004820181905260248201527f4f776e61626c653a2063616c6c6572206973206e6f7420746865206f776e657260448201526064016106d5565b6005547501000000000000000000000000000000000000000000900460ff1615610c66576040517f08c379a000000000000000000000000000000000000000000000000000000000815260206004820152602260248201527f45524332304d696e7461626c653a206d696e74696e672069732066696e69736860448201527f656400000000000000000000000000000000000000000000000000000000000060648201526084016106d5565b600580547fffffffffffffffffffff00ffffffffffffffffffffffffffffffffffffffffff1675010000000000000000000000000000000000000000001790556040517fae5184fba832cb2b1f702aca6117b8d265eaf03ad33eb133f19dde0f5920fa0890600090a1565b60055473ffffffffffffffffffffffffffffffffffffffff610100909104163314610d58576040517f08c379a000000000000000000000000000000000000000000000000000000000815260206004820181905260248201527f4f776e61626c653a2063616c6c6572206973206e6f7420746865206f776e657260448201526064016106d5565b6107ea611d04565b60055473ffffffffffffffffffffffffffffffffffffffff610100909104163314610de7576040517f08c379a000000000000000000000000000000000000000000000000000000000815260206004820181905260248201527f4f776e61626c653a2063616c6c6572206973206e6f7420746865206f776e657260448201526064016106d5565b8173ffffffffffffffffffffffffffffffffffffffff1663a9059cbb610e2860055473ffffffffffffffffffffffffffffffffffffffff6101009091041690565b6040517fffffffff0000000000000000000000000000000000000000000000000000000060e084901b16815273ffffffffffffffffffffffffffffffffffffffff909116600482015260248101849052604401602060405180830381600087803b158015610e9557600080fd5b505af1158015610ea9573d6000803e3d6000fd5b505050506040513d601f19601f82011682018060405250810190610b2e91906122e1565b60606004805461054f90612246565b33600090815260016020908152604080832073ffffffffffffffffffffffffffffffffffffffff8616845290915281205482811015610f9d576040517f08c379a000000000000000000000000000000000000000000000000000000000815260206004820152602560248201527f45524332303a2064656372656173656420616c6c6f77616e63652062656c6f7760448201527f207a65726f00000000000000000000000000000000000000000000000000000060648201526084016106d5565b6108913385858403611418565b60006105df3384846115cb565b6000610fc485858561060b565b50610fd18585858561196b565b6106eb576040517f08c379a000000000000000000000000000000000000000000000000000000000815260206004820152602660248201527f455243313336333a205f636865636b416e6443616c6c5472616e73666572207260448201527f657665727473000000000000000000000000000000000000000000000000000060648201526084016106d5565b949350505050565b600061107184846105d2565b5061107d848484611dc4565b610891576040517f08c379a000000000000000000000000000000000000000000000000000000000815260206004820152602560248201527f455243313336333a205f636865636b416e6443616c6c417070726f766520726560448201527f766572747300000000000000000000000000000000000000000000000000000060648201526084016106d5565b600061105d84848460405180602001604052806000815250610fb7565b60055473ffffffffffffffffffffffffffffffffffffffff6101009091041633146111ad576040517f08c379a000000000000000000000000000000000000000000000000000000000815260206004820181905260248201527f4f776e61626c653a2063616c6c6572206973206e6f7420746865206f776e657260448201526064016106d5565b73ffffffffffffffffffffffffffffffffffffffff8116611250576040517f08c379a000000000000000000000000000000000000000000000000000000000815260206004820152602660248201527f4f776e61626c653a206e6577206f776e657220697320746865207a65726f206160448201527f646472657373000000000000000000000000000000000000000000000000000060648201526084016106d5565b6109e681611c86565b73ffffffffffffffffffffffffffffffffffffffff82166112d6576040517f08c379a000000000000000000000000000000000000000000000000000000000815260206004820152601f60248201527f45524332303a206d696e7420746f20746865207a65726f20616464726573730060448201526064016106d5565b6112e260008383611ee3565b80600260008282546112f491906122c9565b909155505073ffffffffffffffffffffffffffffffffffffffff82166000908152602081905260408120805483929061132e9084906122c9565b909155505060405181815273ffffffffffffffffffffffffffffffffffffffff8316906000907fddf252ad1be2c89b69c2b068fc378daa952ba7f163c4a11628f55a4df523b3ef9060200160405180910390a35050565b60055460ff1615610b2e576040517f08c379a000000000000000000000000000000000000000000000000000000000815260206004820152602a60248201527f45524332305061757361626c653a20746f6b656e207472616e7366657220776860448201527f696c65207061757365640000000000000000000000000000000000000000000060648201526084016106d5565b73ffffffffffffffffffffffffffffffffffffffff83166114ba576040517f08c379a0000000000000000000000000000000000000000000000000000000008152602060048201526024808201527f45524332303a20617070726f76652066726f6d20746865207a65726f2061646460448201527f726573730000000000000000000000000000000000000000000000000000000060648201526084016106d5565b73ffffffffffffffffffffffffffffffffffffffff821661155d576040517f08c379a000000000000000000000000000000000000000000000000000000000815260206004820152602260248201527f45524332303a20617070726f766520746f20746865207a65726f20616464726560448201527f737300000000000000000000000000000000000000000000000000000000000060648201526084016106d5565b73ffffffffffffffffffffffffffffffffffffffff83811660008181526001602090815260408083209487168084529482529182902085905590518481527f8c5be1e5ebec7d5bd14f71427d1e84f3dd0314c0f7b2291e5b200ac8c7c3b925910160405180910390a3505050565b73ffffffffffffffffffffffffffffffffffffffff831661166e576040517f08c379a000000000000000000000000000000000000000000000000000000000815260206004820152602560248201527f45524332303a207472616e736665722066726f6d20746865207a65726f20616460448201527f647265737300000000000000000000000000000000000000000000000000000060648201526084016106d5565b73ffffffffffffffffffffffffffffffffffffffff8216611711576040517f08c379a000000000000000000000000000000000000000000000000000000000815260206004820152602360248201527f45524332303a207472616e7366657220746f20746865207a65726f206164647260448201527f657373000000000000000000000000000000000000000000000000000000000060648201526084016106d5565b61171c838383611ee3565b73ffffffffffffffffffffffffffffffffffffffff8316600090815260208190526040902054818110156117d2576040517f08c379a000000000000000000000000000000000000000000000000000000000815260206004820152602660248201527f45524332303a207472616e7366657220616d6f756e742065786365656473206260448201527f616c616e6365000000000000000000000000000000000000000000000000000060648201526084016106d5565b73ffffffffffffffffffffffffffffffffffffffff8085166000908152602081905260408082208585039055918516815290812080548492906118169084906122c9565b925050819055508273ffffffffffffffffffffffffffffffffffffffff168473ffffffffffffffffffffffffffffffffffffffff167fddf252ad1be2c89b69c2b068fc378daa952ba7f163c4a11628f55a4df523b3ef8460405161187c91815260200190565b60405180910390a350505050565b60055460ff166118f6576040517f08c379a000000000000000000000000000000000000000000000000000000000815260206004820152601460248201527f5061757361626c653a206e6f742070617573656400000000000000000000000060448201526064016106d5565b600580547fffffffffffffffffffffffffffffffffffffffffffffffffffffffffffffff001690557f5db9ee0a495bf2e6ff9c91a7834c1ba4fdd244a5e8aa4e537bd38aeae4b073aa335b60405173ffffffffffffffffffffffffffffffffffffffff909116815260200160405180910390a1565b600073ffffffffffffffffffffffffffffffffffffffff84163b6119915750600061105d565b6040517f88a7ca5c00000000000000000000000000000000000000000000000000000000815260009073ffffffffffffffffffffffffffffffffffffffff8616906388a7ca5c906119ec9033908a9089908990600401612303565b602060405180830381600087803b158015611a0657600080fd5b505af1158015611a1a573d6000803e3d6000fd5b505050506040513d601f19601f82011682018060405250810190611a3e919061234c565b7fffffffff00000000000000000000000000000000000000000000000000000000167f88a7ca5c0000000000000000000000000000000000000000000000000000000014915050949350505050565b73ffffffffffffffffffffffffffffffffffffffff8216611b30576040517f08c379a000000000000000000000000000000000000000000000000000000000815260206004820152602160248201527f45524332303a206275726e2066726f6d20746865207a65726f2061646472657360448201527f730000000000000000000000000000000000000000000000000000000000000060648201526084016106d5565b611b3c82600083611ee3565b73ffffffffffffffffffffffffffffffffffffffff821660009081526020819052604090205481811015611bf2576040517f08c379a000000000000000000000000000000000000000000000000000000000815260206004820152602260248201527f45524332303a206275726e20616d6f756e7420657863656564732062616c616e60448201527f636500000000000000000000000000000000000000000000000000000000000060648201526084016106d5565b73ffffffffffffffffffffffffffffffffffffffff83166000908152602081905260408120838303905560028054849290611c2e908490612369565b909155505060405182815260009073ffffffffffffffffffffffffffffffffffffffff8516907fddf252ad1be2c89b69c2b068fc378daa952ba7f163c4a11628f55a4df523b3ef9060200160405180910390a3505050565b6005805473ffffffffffffffffffffffffffffffffffffffff8381166101008181027fffffffffffffffffffffff0000000000000000000000000000000000000000ff85161790945560405193909204169182907f8be0079c531659141344cd1fd0a4f28419497f9722a3daafe3b4186f6b6457e090600090a35050565b60055460ff1615611d71576040517f08c379a000000000000000000000000000000000000000000000000000000000815260206004820152601060248201527f5061757361626c653a207061757365640000000000000000000000000000000060448201526064016106d5565b600580547fffffffffffffffffffffffffffffffffffffffffffffffffffffffffffffff001660011790557f62e78cea01bee320cd4e420270b5ea74000d11b0c9f74754ebdbfc544b05a2586119413390565b600073ffffffffffffffffffffffffffffffffffffffff84163b611dea57506000610604565b6040517f7b04a2d000000000000000000000000000000000000000000000000000000000815260009073ffffffffffffffffffffffffffffffffffffffff861690637b04a2d090611e4390339088908890600401612380565b602060405180830381600087803b158015611e5d57600080fd5b505af1158015611e71573d6000803e3d6000fd5b505050506040513d601f19601f82011682018060405250810190611e95919061234c565b7fffffffff00000000000000000000000000000000000000000000000000000000167f7b04a2d000000000000000000000000000000000000000000000000000000000149150509392505050565b610b2e838383611385565b7fffffffff00000000000000000000000000000000000000000000000000000000811681146109e657600080fd5b600060208284031215611f2e57600080fd5b813561060481611eee565b6000815180845260005b81811015611f5f57602081850181015186830182015201611f43565b81811115611f71576000602083870101525b50601f017fffffffffffffffffffffffffffffffffffffffffffffffffffffffffffffffe0169290920160200192915050565b6020815260006106046020830184611f39565b803573ffffffffffffffffffffffffffffffffffffffff81168114611fdb57600080fd5b919050565b60008060408385031215611ff357600080fd5b611ffc83611fb7565b946020939093013593505050565b60008060006060848603121561201f57600080fd5b61202884611fb7565b925061203660208501611fb7565b9150604084013590509250925092565b7f4e487b7100000000000000000000000000000000000000000000000000000000600052604160045260246000fd5b600082601f83011261208657600080fd5b813567ffffffffffffffff808211156120a1576120a1612046565b604051601f83017fffffffffffffffffffffffffffffffffffffffffffffffffffffffffffffffe0908116603f011681019082821181831017156120e7576120e7612046565b8160405283815286602085880101111561210057600080fd5b836020870160208301376000602085830101528094505050505092915050565b60008060006060848603121561213557600080fd5b61213e84611fb7565b925060208401359150604084013567ffffffffffffffff81111561216157600080fd5b61216d86828701612075565b9150509250925092565b60006020828403121561218957600080fd5b5035919050565b6000602082840312156121a257600080fd5b61060482611fb7565b600080600080608085870312156121c157600080fd5b6121ca85611fb7565b93506121d860208601611fb7565b925060408501359150606085013567ffffffffffffffff8111156121fb57600080fd5b61220787828801612075565b91505092959194509250565b6000806040838503121561222657600080fd5b61222f83611fb7565b915061223d60208401611fb7565b90509250929050565b600181811c9082168061225a57607f821691505b60208210811415612294577f4e487b7100000000000000000000000000000000000000000000000000000000600052602260045260246000fd5b50919050565b7f4e487b7100000000000000000000000000000000000000000000000000000000600052601160045260246000fd5b600082198211156122dc576122dc61229a565b500190565b6000602082840312156122f357600080fd5b8151801515811461060457600080fd5b600073ffffffffffffffffffffffffffffffffffffffff8087168352808616602084015250836040830152608060608301526123426080830184611f39565b9695505050505050565b60006020828403121561235e57600080fd5b815161060481611eee565b60008282101561237b5761237b61229a565b500390565b73ffffffffffffffffffffffffffffffffffffffff841681528260208201526060604082015260006123b56060830184611f39565b9594505050505056fea26469706673582212201424391841fec6baefbabc25facf5ec2df91b35195dde0402bdb9ef3778253d164736f6c63430008090033",
  "linkReferences": {},
  "deployedLinkReferences": {}
}