{
  "_format": "hh-sol-artifact-1",
  "contractName": "WeightedMultiOwner",
  "sourceName": "contracts/WeightedMultiOwner.sol",
  "abi": [
    {
      "inputs": [
        {
          "internalType": "address[]",
          "name": "_owners",
          "type": "address[]"
        },
        {
          "internalType": "uint8[]",
          "name": "_ownerWeights",
          "type": "uint8[]"
        },
        {
          "internalType": "uint256",
          "name": "_required",
          "type": "uint256"
        },
        {
          "internalType": "address payable",
          "name": "feeReceiver",
          "type": "address"
        }
      ],
      "stateMutability": "payable",
      "type": "constructor"
    },
    {
      "anonymous": false,
      "inputs": [
        {
          "indexed": true,
          "internalType": "address",
          "name": "sender",
          "type": "address"
        },
        {
          "indexed": true,
          "internalType": "uint256",
          "name": "transactionID",
          "type": "uint256"
        }
      ],
      "name": "Confirmation",
      "type": "event"
    },
    {
      "anonymous": false,
      "inputs": [
        {
          "indexed": true,
          "internalType": "address",
          "name": "sender",
          "type": "address"
        },
        {
          "indexed": true,
          "internalType": "uint256",
          "name": "value",
          "type": "uint256"
        }
      ],
      "name": "Deposit",
      "type": "event"
    },
    {
      "anonymous": false,
      "inputs": [
        {
          "indexed": true,
          "internalType": "uint256",
          "name": "transactionID",
          "type": "uint256"
        }
      ],
      "name": "Execution",
      "type": "event"
    },
    {
      "anonymous": false,
      "inputs": [
        {
          "indexed": true,
          "internalType": "uint256",
          "name": "transactionID",
          "type": "uint256"
        }
      ],
      "name": "ExecutionFailure",
      "type": "event"
    },
    {
      "anonymous": false,
      "inputs": [
        {
          "indexed": true,
          "internalType": "address",
          "name": "owner",
          "type": "address"
        },
        {
          "indexed": true,
          "internalType": "uint256",
          "name": "weight",
          "type": "uint256"
        }
      ],
      "name": "OwnerAddition",
      "type": "event"
    },
    {
      "anonymous": false,
      "inputs": [
        {
          "indexed": true,
          "internalType": "address",
          "name": "owner",
          "type": "address"
        }
      ],
      "name": "OwnerRemoval",
      "type": "event"
    },
    {
      "anonymous": false,
      "inputs": [
        {
          "indexed": false,
          "internalType": "uint256",
          "name": "required",
          "type": "uint256"
        }
      ],
      "name": "RequirementChange",
      "type": "event"
    },
    {
      "anonymous": false,
      "inputs": [
        {
          "indexed": true,
          "internalType": "address",
          "name": "sender",
          "type": "address"
        },
        {
          "indexed": true,
          "internalType": "uint256",
          "name": "transactionID",
          "type": "uint256"
        }
      ],
      "name": "Revocation",
      "type": "event"
    },
    {
      "anonymous": false,
      "inputs": [
        {
          "indexed": true,
          "internalType": "uint256",
          "name": "transactionID",
          "type": "uint256"
        }
      ],
      "name": "Submission",
      "type": "event"
    },
    {
      "stateMutability": "payable",
      "type": "fallback"
    },
    {
      "inputs": [
        {
          "internalType": "address",
          "name": "owner",
          "type": "address"
        },
        {
          "internalType": "uint8",
          "name": "weight",
          "type": "uint8"
        }
      ],
      "name": "addOwner",
      "outputs": [],
      "stateMutability": "nonpayable",
      "type": "function"
    },
    {
      "inputs": [
        {
          "internalType": "address",
          "name": "owner",
          "type": "address"
        },
        {
          "internalType": "uint8",
          "name": "newWeight",
          "type": "uint8"
        }
      ],
      "name": "changeOwnerWeight",
      "outputs": [],
      "stateMutability": "nonpayable",
      "type": "function"
    },
    {
      "inputs": [
        {
          "internalType": "uint256",
          "name": "_required",
          "type": "uint256"
        }
      ],
      "name": "changeRequirement",
      "outputs": [],
      "stateMutability": "nonpayable",
      "type": "function"
    },
    {
      "inputs": [
        {
          "internalType": "uint256",
          "name": "transactionID",
          "type": "uint256"
        }
      ],
      "name": "confirmTransaction",
      "outputs": [],
      "stateMutability": "nonpayable",
      "type": "function"
    },
    {
      "inputs": [
        {
          "internalType": "uint256",
          "name": "transactionID",
          "type": "uint256"
        }
      ],
      "name": "executeTransaction",
      "outputs": [],
      "stateMutability": "nonpayable",
      "type": "function"
    },
    {
      "inputs": [
        {
          "internalType": "address",
          "name": "owner",
          "type": "address"
        }
      ],
      "name": "getOwnerWeight",
      "outputs": [
        {
          "internalType": "uint8",
          "name": "",
          "type": "uint8"
        }
      ],
      "stateMutability": "view",
      "type": "function"
    },
    {
      "inputs": [],
      "name": "getOwners",
      "outputs": [
        {
          "internalType": "address[]",
          "name": "",
          "type": "address[]"
        }
      ],
      "stateMutability": "view",
      "type": "function"
    },
    {
      "inputs": [
        {
          "internalType": "uint256",
          "name": "transactionID",
          "type": "uint256"
        }
      ],
      "name": "getTransaction",
      "outputs": [
        {
          "internalType": "address",
          "name": "createdBy",
          "type": "address"
        },
        {
          "internalType": "address",
          "name": "destination",
          "type": "address"
        },
        {
          "internalType": "uint256",
          "name": "value",
          "type": "uint256"
        },
        {
          "internalType": "bytes",
          "name": "data",
          "type": "bytes"
        },
        {
          "internalType": "bool",
          "name": "executed",
          "type": "bool"
        },
        {
          "internalType": "uint256",
          "name": "voteWeight",
          "type": "uint256"
        },
        {
          "internalType": "bool",
          "name": "confirmedBySender",
          "type": "bool"
        }
      ],
      "stateMutability": "view",
      "type": "function"
    },
    {
      "inputs": [],
      "name": "getTransactionsLength",
      "outputs": [
        {
          "internalType": "uint256",
          "name": "",
          "type": "uint256"
        }
      ],
      "stateMutability": "view",
      "type": "function"
    },
    {
      "inputs": [
        {
          "internalType": "uint256",
          "name": "transactionID",
          "type": "uint256"
        }
      ],
      "name": "getVoters",
      "outputs": [
        {
          "internalType": "address[]",
          "name": "",
          "type": "address[]"
        }
      ],
      "stateMutability": "view",
      "type": "function"
    },
    {
      "inputs": [
        {
          "internalType": "uint256",
          "name": "transactionID",
          "type": "uint256"
        }
      ],
      "name": "isConfirmed",
      "outputs": [
        {
          "internalType": "bool",
          "name": "",
          "type": "bool"
        }
      ],
      "stateMutability": "view",
      "type": "function"
    },
    {
      "inputs": [],
      "name": "isOwner",
      "outputs": [
        {
          "internalType": "bool",
          "name": "",
          "type": "bool"
        }
      ],
      "stateMutability": "view",
      "type": "function"
    },
    {
      "inputs": [
        {
          "internalType": "address",
          "name": "owner",
          "type": "address"
        }
      ],
      "name": "removeOwner",
      "outputs": [],
      "stateMutability": "nonpayable",
      "type": "function"
    },
    {
      "inputs": [
        {
          "internalType": "address",
          "name": "owner",
          "type": "address"
        },
        {
          "internalType": "address",
          "name": "newOwner",
          "type": "address"
        }
      ],
      "name": "replaceOwner",
      "outputs": [],
      "stateMutability": "nonpayable",
      "type": "function"
    },
    {
      "inputs": [],
      "name": "required",
      "outputs": [
        {
          "internalType": "uint256",
          "name": "",
          "type": "uint256"
        }
      ],
      "stateMutability": "view",
      "type": "function"
    },
    {
      "inputs": [
        {
          "internalType": "uint256",
          "name": "transactionID",
          "type": "uint256"
        }
      ],
      "name": "revokeConfirmation",
      "outputs": [],
      "stateMutability": "nonpayable",
      "type": "function"
    },
    {
      "inputs": [
        {
          "internalType": "address",
          "name": "destination",
          "type": "address"
        },
        {
          "internalType": "uint256",
          "name": "value",
          "type": "uint256"
        },
        {
          "internalType": "bytes",
          "name": "data",
          "type": "bytes"
        }
      ],
      "name": "submitTransaction",
      "outputs": [
        {
          "internalType": "uint256",
          "name": "",
          "type": "uint256"
        }
      ],
      "stateMutability": "nonpayable",
      "type": "function"
    },
    {
      "inputs": [],
      "name": "totalWeight",
      "outputs": [
        {
          "internalType": "uint256",
          "name": "",
          "type": "uint256"
        }
      ],
      "stateMutability": "view",
      "type": "function"
    },
    {
      "stateMutability": "payable",
      "type": "receive"
    }
  ],
  "bytecode": "0x60806040526040516200269438038062002694833981016040819052620000269162000577565b8251845114620000985760405162461bcd60e51b815260206004820152603260248201527f4c656e677468206f66206f776e65727320616e64206f776e657257656967687460448201527173206d757374206265207468652073616d6560701b60648201526084015b60405180910390fd5b600184511015620000ec5760405162461bcd60e51b815260206004820181905260248201527f5468657265206d757374206265206174206c65617374206f6e65206f776e657260448201526064016200008f565b60005b8451811015620002b65760006001600160a01b031685828151811062000119576200011962000665565b60200260200101516001600160a01b031614156200017a5760405162461bcd60e51b815260206004820152601360248201527f4f776e65722063616e2774206265206e756c6c0000000000000000000000000060448201526064016200008f565b8381815181106200018f576200018f62000665565b602002602001015160ff1660016000828254620001ad919062000691565b9250508190555062000240858281518110620001cd57620001cd62000665565b6020026020010151858381518110620001ea57620001ea62000665565b60200260200101516040518060400160405280601c81526020017f30206973206e6f7420612076616c6964206f776e65725765696768740000000081525060036200037760201b6200157117909392919060201c565b60ff1615620002a15760405162461bcd60e51b815260206004820152602660248201527f416e206f776e65722063616e2774206265206164646564206d756c7469706c656044820152652074696d657360d01b60648201526084016200008f565b80620002ad81620006ac565b915050620000ef565b506000546001541015620003275760405162461bcd60e51b815260206004820152603160248201527f5468652073756d206f66206f776e657257656967687473206d75737420626520604482015270185d081b19585cdd081c995c5d5a5c9959607a1b60648201526084016200008f565b60008290556200033662000422565b6040516001600160a01b038216903480156108fc02916000818181858888f193505050501580156200036c573d6000803e3d6000fd5b505050505062000722565b60008160ff84166200039e5760405162461bcd60e51b81526004016200008f9190620006ca565b506001600160a01b038416600090815260018601602052604090205460ff16620003ee5784546001810186556000868152602090200180546001600160a01b0319166001600160a01b0386161790555b506001600160a01b03831660009081526001850160205260409020805460ff84811660ff1983161790925516949350505050565b34156200045757604051349033907fe1fffcc4923d04b559f4d29a8bfc6cda04eb5b0d3c460751c2402c5c5cc9109c90600090a35b565b634e487b7160e01b600052604160045260246000fd5b604051601f8201601f191681016001600160401b03811182821017156200049a576200049a62000459565b604052919050565b60006001600160401b03821115620004be57620004be62000459565b5060051b60200190565b6001600160a01b0381168114620004de57600080fd5b50565b600082601f830112620004f357600080fd5b815160206200050c6200050683620004a2565b6200046f565b82815260059290921b840181019181810190868411156200052c57600080fd5b8286015b848110156200055a57805160ff811681146200054c5760008081fd5b835291830191830162000530565b509695505050505050565b80516200057281620004c8565b919050565b600080600080608085870312156200058e57600080fd5b84516001600160401b0380821115620005a657600080fd5b818701915087601f830112620005bb57600080fd5b81516020620005ce6200050683620004a2565b82815260059290921b8401810191818101908b841115620005ee57600080fd5b948201945b83861015620006195785516200060981620004c8565b82529482019490820190620005f3565b918a01519198509093505050808211156200063357600080fd5b506200064287828801620004e1565b935050604085015191506200065a6060860162000565565b905092959194509250565b634e487b7160e01b600052603260045260246000fd5b634e487b7160e01b600052601160045260246000fd5b60008219821115620006a757620006a76200067b565b500190565b6000600019821415620006c357620006c36200067b565b5060010190565b600060208083528351808285015260005b81811015620006f957858101830151858201604001528201620006db565b818111156200070c576000604083870101525b50601f01601f1916929092016040019392505050565b611f6280620007326000396000f3fe60806040526004361061012d5760003560e01c806396c82e57116100a5578063c642747411610074578063e20056e611610059578063e20056e614610375578063ee22610b14610395578063f2193627146103b55761013c565b8063c64274741461033f578063dc8452cd1461035f5761013c565b806396c82e57146102c6578063a0e67e2b146102ea578063ba51a6df146102ff578063c01a8c841461031f5761013c565b806333ea3dc8116100fc578063784547a7116100e1578063784547a71461025457806386b646f2146102845780638f32d59b146102b15761013c565b806333ea3dc8146102015780636598de2f146102345761013c565b806303903a1d146101445780630e5229b0146101a1578063173825d9146101c157806320ea8d86146101e15761013c565b3661013c5761013a6103ca565b005b61013a6103ca565b34801561015057600080fd5b5061018a61015f366004611aaf565b73ffffffffffffffffffffffffffffffffffffffff1660009081526004602052604090205460ff1690565b60405160ff90911681526020015b60405180910390f35b3480156101ad57600080fd5b5061013a6101bc366004611aca565b610400565b3480156101cd57600080fd5b5061013a6101dc366004611aaf565b6105ec565b3480156101ed57600080fd5b5061013a6101fc366004611b07565b610803565b34801561020d57600080fd5b5061022161021c366004611b07565b610a0c565b6040516101989796959493929190611b9a565b34801561024057600080fd5b5061013a61024f366004611aca565b610b2b565b34801561026057600080fd5b5061027461026f366004611b07565b610bd1565b6040519015158152602001610198565b34801561029057600080fd5b506102a461029f366004611b07565b610c03565b6040516101989190611bfa565b3480156102bd57600080fd5b50610274610c92565b3480156102d257600080fd5b506102dc60015481565b604051908152602001610198565b3480156102f657600080fd5b506102a4610ca4565b34801561030b57600080fd5b5061013a61031a366004611b07565b610d16565b34801561032b57600080fd5b5061013a61033a366004611b07565b610e72565b34801561034b57600080fd5b506102dc61035a366004611c77565b61106b565b34801561036b57600080fd5b506102dc60005481565b34801561038157600080fd5b5061013a610390366004611d60565b611229565b3480156103a157600080fd5b5061013a6103b0366004611b07565b6112f9565b3480156103c157600080fd5b506002546102dc565b34156103fe57604051349033907fe1fffcc4923d04b559f4d29a8bfc6cda04eb5b0d3c460751c2402c5c5cc9109c90600090a35b565b333014610494576040517f08c379a000000000000000000000000000000000000000000000000000000000815260206004820152602760248201527f4f6e6c79207468652077616c6c65742063616e2063616c6c2074686973206f7060448201527f65726174696f6e0000000000000000000000000000000000000000000000000060648201526084015b60405180910390fd5b73ffffffffffffffffffffffffffffffffffffffff8216610511576040517f08c379a000000000000000000000000000000000000000000000000000000000815260206004820152601360248201527f4f776e65722063616e2774206265206e756c6c00000000000000000000000000604482015260640161048b565b8060ff16600160008282546105269190611dc2565b9091555061053890506003838361166e565b60ff16156105a2576040517f08c379a000000000000000000000000000000000000000000000000000000000815260206004820152601060248201527f497320616c7265616479206f776e657200000000000000000000000000000000604482015260640161048b565b60405160ff82169073ffffffffffffffffffffffffffffffffffffffff8416907fb803cfb0582d5f54a97148ad58ab22b34a568b9aad85b2d78c8fec3d012e350090600090a35050565b33301461067b576040517f08c379a000000000000000000000000000000000000000000000000000000000815260206004820152602760248201527f4f6e6c79207468652077616c6c65742063616e2063616c6c2074686973206f7060448201527f65726174696f6e00000000000000000000000000000000000000000000000000606482015260840161048b565b73ffffffffffffffffffffffffffffffffffffffff81166000908152600460205260408120546001546106b19160ff1690611dda565b9050600054811015610745576040517f08c379a000000000000000000000000000000000000000000000000000000000815260206004820152603160248201527f5468652073756d206f66206f776e657257656967687473206d7573742062652060448201527f6174206c65617374207265717569726564000000000000000000000000000000606482015260840161048b565b6001556000610755600383611697565b60ff16116107bf576040517f08c379a000000000000000000000000000000000000000000000000000000000815260206004820152600f60248201527f5761736e277420616e206f776e65720000000000000000000000000000000000604482015260640161048b565b60405173ffffffffffffffffffffffffffffffffffffffff8216907f8001553a916ef2f495d26a907cc54d96ed840d7bda71e73194bf5a9df7a76b9090600090a250565b60006002828154811061081857610818611df1565b60009182526020909120600890910201600481015490915060ff161561089a576040517f08c379a000000000000000000000000000000000000000000000000000000000815260206004820152601f60248201527f5472616e73616374696f6e20697320616c726561647920657865637574656400604482015260640161048b565b6108a5600333611941565b61090b576040517f08c379a000000000000000000000000000000000000000000000000000000000815260206004820152601360248201527f596f75206172656e277420616e206f776e657200000000000000000000000000604482015260640161048b565b33600090815260068201602052604081205460078301805460ff909216929091610936908490611dda565b909155506000905061094b6005830133611697565b60ff16116109db576040517f08c379a000000000000000000000000000000000000000000000000000000000815260206004820152602760248201527f5472616e73616374696f6e206973206e6f742079657420636f6e6669726d656460448201527f20627920796f7500000000000000000000000000000000000000000000000000606482015260840161048b565b50604051819033907ff6a317157440607f36269043eb55f1287a5a19ba2216afeab88cd46cbcfb88e990600090a350565b6000806000606060008060008060028981548110610a2c57610a2c611df1565b6000918252602090912060089091020180546001820154600283015460038401805473ffffffffffffffffffffffffffffffffffffffff9485169d50939092169a509850919250610a7c90611e20565b80601f0160208091040260200160405190810160405280929190818152602001828054610aa890611e20565b8015610af55780601f10610aca57610100808354040283529160200191610af5565b820191906000526020600020905b815481529060010190602001808311610ad857829003601f168201915b5050506004840154600785015493985060ff169650919450610b1d9150506005820133611941565b915050919395979092949650565b333014610bba576040517f08c379a000000000000000000000000000000000000000000000000000000000815260206004820152602760248201527f4f6e6c79207468652077616c6c65742063616e2063616c6c2074686973206f7060448201527f65726174696f6e00000000000000000000000000000000000000000000000000606482015260840161048b565b610bc3826105ec565b610bcd8282610400565b5050565b6000805460028381548110610be857610be8611df1565b90600052602060002090600802016007015410159050919050565b606060028281548110610c1857610c18611df1565b60009182526020918290206005600890920201018054604080518285028101850190915281815292830182828015610c8657602002820191906000526020600020905b815473ffffffffffffffffffffffffffffffffffffffff168152600190910190602001808311610c5b575b50505050509050919050565b6000610c9f600333611941565b905090565b60606003600001805480602002602001604051908101604052809291908181526020018280548015610d0c57602002820191906000526020600020905b815473ffffffffffffffffffffffffffffffffffffffff168152600190910190602001808311610ce1575b5050505050905090565b333014610da5576040517f08c379a000000000000000000000000000000000000000000000000000000000815260206004820152602760248201527f4f6e6c79207468652077616c6c65742063616e2063616c6c2074686973206f7060448201527f65726174696f6e00000000000000000000000000000000000000000000000000606482015260840161048b565b806001541015610e37576040517f08c379a000000000000000000000000000000000000000000000000000000000815260206004820152603160248201527f5468652073756d206f66206f776e657257656967687473206d7573742062652060448201527f6174206c65617374207265717569726564000000000000000000000000000000606482015260840161048b565b60008190556040518181527fa3f1ee9126a074d9326c682f561767f710e927faa811f7a99829d49dc421797a9060200160405180910390a150565b600060028281548110610e8757610e87611df1565b60009182526020909120600890910201600481015490915060ff1615610f09576040517f08c379a000000000000000000000000000000000000000000000000000000000815260206004820152601f60248201527f5472616e73616374696f6e20697320616c726561647920657865637574656400604482015260640161048b565b33600081815260046020908152604091829020548251808401909352601383527f596f75206172656e277420616e206f776e65720000000000000000000000000091830191909152610f65926005850192909160ff1690611571565b60ff1615610ff5576040517f08c379a000000000000000000000000000000000000000000000000000000000815260206004820152602660248201527f596f7520616c726561647920636f6e6669726d65642074686973207472616e7360448201527f616374696f6e0000000000000000000000000000000000000000000000000000606482015260840161048b565b3360009081526004602052604081205460078301805460ff90921692909161101e908490611dc2565b909155505060405182915033907f4a504a94899432a9846e1aa406dceb1bcfd538bb839071d49d1e5e23f5be30ef90600090a361105a81610bd1565b1561106857611068816112f9565b50565b600073ffffffffffffffffffffffffffffffffffffffff84166110ea576040517f08c379a000000000000000000000000000000000000000000000000000000000815260206004820152601960248201527f44657374696e6174696f6e2063616e2774206265206e756c6c00000000000000604482015260640161048b565b600280546001810182556000919091527f405787fa12a823e0f2b7631cc41b3ba8828b3321ca811111fa75cd3aa3bb5ace600882029081018054337fffffffffffffffffffffffff00000000000000000000000000000000000000009182161782557f405787fa12a823e0f2b7631cc41b3ba8828b3321ca811111fa75cd3aa3bb5acf8301805490911673ffffffffffffffffffffffffffffffffffffffff89161790557f405787fa12a823e0f2b7631cc41b3ba8828b3321ca811111fa75cd3aa3bb5ad08201869055845190916111eb917f405787fa12a823e0f2b7631cc41b3ba8828b3321ca811111fa75cd3aa3bb5ad19091019060208701906119ed565b505060405181907fc0ba8fe4b176c1714197d43b9cc6bcf797a4a7461c5fe8d0ef6e184ae7601e5190600090a261122181610e72565b949350505050565b3330146112b8576040517f08c379a000000000000000000000000000000000000000000000000000000000815260206004820152602760248201527f4f6e6c79207468652077616c6c65742063616e2063616c6c2074686973206f7060448201527f65726174696f6e00000000000000000000000000000000000000000000000000606482015260840161048b565b73ffffffffffffffffffffffffffffffffffffffff821660009081526004602052604090205460ff166112ea836105ec565b6112f48282610400565b505050565b60006002828154811061130e5761130e611df1565b60009182526020909120600890910201600481015490915060ff1615611390576040517f08c379a000000000000000000000000000000000000000000000000000000000815260206004820152601f60248201527f5472616e73616374696f6e20697320616c726561647920657865637574656400604482015260640161048b565b61139982610bd1565b6113ff576040517f08c379a000000000000000000000000000000000000000000000000000000000815260206004820181905260248201527f5472616e73616374696f6e206973206e6f742079657420636f6e6669726d6564604482015260640161048b565b6004810180547fffffffffffffffffffffffffffffffffffffffffffffffffffffffffffffff0016600190811790915581015460028201546003830180546114e69373ffffffffffffffffffffffffffffffffffffffff1692919061146390611e20565b80601f016020809104026020016040519081016040528092919081815260200182805461148f90611e20565b80156114dc5780601f106114b1576101008083540402835291602001916114dc565b820191906000526020600020905b8154815290600101906020018083116114bf57829003601f168201915b5050505050611976565b1561151a5760405182907f33e13ecb54c3076d8e8bb8c2881800a4d972b792045ffae98fdf46df365fed7590600090a25050565b60405182907f526441bb6c1aba3c9a4a6ca1d6545da9c2333c8c48343ef398eb858d72b7923690600090a260040180547fffffffffffffffffffffffffffffffffffffffffffffffffffffffffffffff0016905550565b60008160ff84166115af576040517f08c379a000000000000000000000000000000000000000000000000000000000815260040161048b9190611e74565b506115ba8585611941565b61160f5784546001810186556000868152602090200180547fffffffffffffffffffffffff00000000000000000000000000000000000000001673ffffffffffffffffffffffffffffffffffffffff86161790555b5073ffffffffffffffffffffffffffffffffffffffff831660009081526001850160205260409020805460ff8481167fffffffffffffffffffffffffffffffffffffffffffffffffffffffffffffff0083161790925516949350505050565b60006112218383604051806060016040528060218152602001611f0c6021913987929190611571565b60006116a38383611941565b6116af5750600061193b565b60005b835481101561188c578273ffffffffffffffffffffffffffffffffffffffff168460000182815481106116e7576116e7611df1565b60009182526020909120015473ffffffffffffffffffffffffffffffffffffffff16141561187a578354849061171f90600190611dda565b8154811061172f5761172f611df1565b600091825260209091200154845473ffffffffffffffffffffffffffffffffffffffff9091169085908390811061176857611768611df1565b600091825260209091200180547fffffffffffffffffffffffff00000000000000000000000000000000000000001673ffffffffffffffffffffffffffffffffffffffff9290921691909117905583548490806117c7576117c7611e87565b6000828152602080822083017fffffffffffffffffffffffffffffffffffffffffffffffffffffffffffffffff90810180547fffffffffffffffffffffffff000000000000000000000000000000000000000016905590920190925573ffffffffffffffffffffffffffffffffffffffff851682526001860190526040902080547fffffffffffffffffffffffffffffffffffffffffffffffffffffffffffffff00811690915560ff16915061193b9050565b8061188481611eb6565b9150506116b2565b506040517f08c379a000000000000000000000000000000000000000000000000000000000815260206004820152604760248201527f546869732073686f756c64206e6f742068617070656e202861206b65792d766160448201527f6c756520706169722077617320696e206b65797320627574206e6f7420696e2060648201527f76616c7565732900000000000000000000000000000000000000000000000000608482015260a40161048b565b92915050565b73ffffffffffffffffffffffffffffffffffffffff8116600090815260018301602052604081205460ff1615155b9392505050565b6000808473ffffffffffffffffffffffffffffffffffffffff16848460405161199f9190611eef565b60006040518083038185875af1925050503d80600081146119dc576040519150601f19603f3d011682016040523d82523d6000602084013e6119e1565b606091505b50909695505050505050565b8280546119f990611e20565b90600052602060002090601f016020900481019282611a1b5760008555611a61565b82601f10611a3457805160ff1916838001178555611a61565b82800160010185558215611a61579182015b82811115611a61578251825591602001919060010190611a46565b50611a6d929150611a71565b5090565b5b80821115611a6d5760008155600101611a72565b803573ffffffffffffffffffffffffffffffffffffffff81168114611aaa57600080fd5b919050565b600060208284031215611ac157600080fd5b61196f82611a86565b60008060408385031215611add57600080fd5b611ae683611a86565b9150602083013560ff81168114611afc57600080fd5b809150509250929050565b600060208284031215611b1957600080fd5b5035919050565b60005b83811015611b3b578181015183820152602001611b23565b83811115611b4a576000848401525b50505050565b60008151808452611b68816020860160208601611b20565b601f017fffffffffffffffffffffffffffffffffffffffffffffffffffffffffffffffe0169290920160200192915050565b600073ffffffffffffffffffffffffffffffffffffffff808a16835280891660208401525086604083015260e06060830152611bd960e0830187611b50565b94151560808301525060a0810192909252151560c090910152949350505050565b6020808252825182820181905260009190848201906040850190845b818110156119e157835173ffffffffffffffffffffffffffffffffffffffff1683529284019291840191600101611c16565b7f4e487b7100000000000000000000000000000000000000000000000000000000600052604160045260246000fd5b600080600060608486031215611c8c57600080fd5b611c9584611a86565b925060208401359150604084013567ffffffffffffffff80821115611cb957600080fd5b818601915086601f830112611ccd57600080fd5b813581811115611cdf57611cdf611c48565b604051601f82017fffffffffffffffffffffffffffffffffffffffffffffffffffffffffffffffe0908116603f01168101908382118183101715611d2557611d25611c48565b81604052828152896020848701011115611d3e57600080fd5b8260208601602083013760006020848301015280955050505050509250925092565b60008060408385031215611d7357600080fd5b611d7c83611a86565b9150611d8a60208401611a86565b90509250929050565b7f4e487b7100000000000000000000000000000000000000000000000000000000600052601160045260246000fd5b60008219821115611dd557611dd5611d93565b500190565b600082821015611dec57611dec611d93565b500390565b7f4e487b7100000000000000000000000000000000000000000000000000000000600052603260045260246000fd5b600181811c90821680611e3457607f821691505b60208210811415611e6e577f4e487b7100000000000000000000000000000000000000000000000000000000600052602260045260246000fd5b50919050565b60208152600061196f6020830184611b50565b7f4e487b7100000000000000000000000000000000000000000000000000000000600052603160045260246000fd5b60007fffffffffffffffffffffffffffffffffffffffffffffffffffffffffffffffff821415611ee857611ee8611d93565b5060010190565b60008251611f01818460208701611b20565b919091019291505056fe456d7074792076616c75652063616e27742062652070757420696e746f206d6170a264697066735822122084f40eed333be1262b82a1a8993c62de92d7b7d548a5d78c1c903de4b7b8e83564736f6c63430008090033",
  "linkReferences": {},
  "deployedLinkReferences": {}
}